:020000040801F1
:10100000A84C0020C111010835200108091E010863
:10101000312001082D1C0108B12A01080000000040
:10102000000000000000000000000000DD260108B4
:10103000E91D0108000000004D2501083D270108B9
:10104000DB110108DB110108DB110108A5260108ED
:10105000DB110108DB110108EB1D0108DB110108A0
:10106000DB110108DB110108DB110108DB110108AC
:10107000DB110108DB110108DB110108DB1101089C
:10108000DB110108DB110108DB110108DB1101088C
:10109000DB110108DB110108DB110108DB1101087C
:1010A000DB110108DB110108DB110108DB1101086C
:1010B000DB110108DB110108DB110108DB1101085C
:1010C000DB110108DB110108DB110108DB1101084C
:1010D000DB110108DB110108BD280108DB11010843
:1010E000DB110108DB110108DB110108DB1101082C
:1010F000DB110108DB110108DB110108DB1101081C
:10110000DB110108D5260108DB110108DB110108FC
:10111000DB110108DB110108DB11010819280108A6
:10112000DB110108DB110108DB110108DB110108EB
:10113000DB110108DB110108DB110108DB110108DB
:10114000DB110108DB110108DB110108DB110108CB
:10115000DB110108DB110108DB110108DB110108BB
:10116000DB110108DB110108DB110108DB110108AB
:10117000DB110108DB110108DB1101080000000090
:10118000DB110108DB110108DB110108DB1101088B
:10119000DB110108DB110108DB1101080000000070
:1011A000DB110108DB110108DB110108DFF80CD0AD
:1011B00000F0AAFB00480047C9670108A84C0020BE
:1011C0000648804706480047FEE7FEE7FEE7FEE7E1
:1011D000FEE7FEE7FEE7FEE7FEE7FEE7452701083C
:1011E000AD11010800487047E0D2010838B5D0E9D8
:1011F0000221491E01EB410102EBC1014268C1EB32
:10120000011102EB81010268C1EB011102EB8102C5
:10121000D0E9043101EB410103EB81013023A1F559
:10122000527191FBF3F4174D6C4302EBC41291FB26
:10123000F3F403FB141100921A2902DB124B1A4437
:1012400000920C2291FBF2F3104C6343009C04EBE0
:10125000C313009391FBF2F302FB13110C4A08E055
:10126000491E40F2A324535C6343009C04EBC31368
:1012700000930029F4DC0146684600F003FA009868
:1012800038BD00003F0C0F008051010067C2030011
:10129000E4D2010840EA01039B0703D009E008C932
:1012A000121F08C0042AFAD203E011F8013B00F82B
:1012B000013B521EF9D27047D2B201E000F8012B77
:1012C000491EFBD270470022F6E710B513460A46C6
:1012D00004461946FFF7F0FF204610BD10B504463E
:1012E00004E00B7800F8013B03B1491C521EF8D210
:1012F000204610BD421C10F8011B0029FBD1801AAA
:10130000704710B5002200E0521C835C8C5CA34245
:1013100001D1002BF8D1D8B2E1B2401A10BD30B5DE
:1013200005460020034600E05B1C934205D2EC5CBE
:10133000C85C201A01D1002CF6D130BD2DE9FE4F3A
:10134000804681EA0300C00F0C46009021F0004166
:1013500023F00045B8EB0200A94105D240462146E2
:1013600090461C460B46024623F00040104347D0EF
:10137000270DC7F30A00C3F30A510290401A0190E7
:1013800040286BDAC3F3130040F4801B00989246A8
:1013900020B10023D2EB030A63EB0B0B01985946F3
:1013A000C0F14002504600F03CF906460D4650465A
:1013B0005946019A00F054F910EB080061410024ED
:1013C00087EA115284EAE7731A4340D0009A62B365
:1013D000019A012A4FEA075215DC001B61EB02015A
:1013E0004FF0004202EA0752CDE90042001C41F5ED
:1013F000801132462B4600F09AF903B0BDE8F08F19
:1014000040462146F9E7001B61EB0201001C41F553
:10141000801300185B412018A2F5001747EB030169
:1014200040EAD570B6196D4111E06D084FEA3606F5
:1014300045EAC0754FEA0752001B61EB0201001C30
:1014400041F5801149084FEA3000001951413246F8
:101450002B4603B0BDE8F04F00F05AB900980122C6
:1014600040000023D0EB020263EBE07300982146BA
:101470004FEAE074B8EB000061EB0401E9E783F0A8
:1014800000435BE781F0004158E72DE9FE4F81EA18
:10149000030404F0004421F0004100944FF0000BDD
:1014A00023F0004350EA01045ED052EA03045BD00B
:1014B000C3F30A54C1F30A552C44A4F2F334019443
:1014C000A0FB0254C1F3130141F48011C3F31303D1
:1014D00043F4801301FB024400FB034E840A970A85
:1014E00044EA815447EA8357A4FB076802958D0AB2
:1014F00005FB07854FEA932C04FB0C542705029D3E
:101500004FEA065847EA1637B5EB08056EEB070CAD
:10151000870E920E47EA811742EA8312A7FB020167
:10152000B6EB0B0164EB00042B0D43EA0C335E18A1
:1015300044EB1C50DA465146E7FB0201C5F31304A5
:101540004FEA0B3343EA14534FEA0432019C43EA57
:101550000603A4F10C040294009CCDE900B400F051
:10156000E6F803B0BDE8F08F00200146F9E700F08F
:10157000004230F000400AD0C10D01F56071C0F3A7
:10158000160042EA0151C20840071143704700208B
:101590000146704730B50B46014600202022012449
:1015A00009E021FA02F59D4205D303FA02F5491B31
:1015B00004FA02F52844151EA2F10102F1DC30BD47
:1015C0002DE9F05F0546002092469B468846064678
:1015D000814640241BE0284641464746224600F00B
:1015E0002FF853465A46C01A914110D31146184657
:1015F000224600F016F82D1A67EB01084F462246E6
:101600000120002100F00DF817EB00094E41201ECB
:10161000A4F10104DFDC484631462A464346BDE8D2
:10162000F09F202A04DB203A00FA02F100207047E4
:101630009140C2F1200320FA03F319439040704710
:10164000202A04DB203A21FA02F00021704721FA17
:1016500002F3D040C2F1200291400843194670477E
:10166000202A06DBCB17203A41FA02F043EAE07366
:1016700006E041FA02F3D040C2F120029140084353
:101680001946704710B500683C22B0FBF2F302FB2C
:101690001303B0FBF2F00B60B0FBF2F302FB130399
:1016A000B0FBF2F018224B60B0FBF2F302FB130325
:1016B000B0FBF2F0021D8B600723B2FBF3F403FBD7
:1016C0001422800040F2B55300F66C308A61B0FB02
:1016D000F3F2B0FBF3F403FB1400443280084A61D8
:1016E000C8613B2802D3920700D0401C0022074C5F
:1016F00013460A61E25C824203D8801A5B1C0B61CC
:10170000F8E7401CC860084610BD0000F0D2010890
:1017100010B5141E73F1000408DA401C41F10001F9
:1017200092185B411A4301D120F0010010BD2DE950
:10173000F04D92469B4611B1B1FA81F202E0B0FA47
:1017400080F220329046FFF76CFF04460F4640EAD5
:101750000A0041EA0B0153465A46084313D011468A
:1017600053EA010019D0C8F140025046FFF768FF64
:1017700005460E46504659464246FFF752FF08437B
:1017800005D0012004E020463946BDE8F08D002058
:10179000054346EAE0762C4337430A986305E40A9A
:1017A000A0EB08000022FD0A44EA47540A3002D5A3
:1017B00000200146E9E7010510196941DDE9084506
:1017C00000196941BDE8F04DA2E72DE9F04D81EA2D
:1017D000030404F0004B21F0004514464FF0000ACA
:1017E00023F0004150EA050220D054EA01021DD046
:1017F000C5F30A570246C5F31303C1F31300C1F33F
:101800000A5640F4801543F48013A7EB0608101B1A
:10181000D64608F2FD3873EB050002D308F1010843
:1018200001E092185B41B8F1000F03DA0020014695
:10183000BDE8F08D00204FF48011064684460EE08E
:10184000171B73EB050705D3121B63EB0503064358
:101850004CEA010C49084FEA300092185B4150EA0B
:101860000107EDD152EA030012D082EA040083EAB4
:101870000501084305D0101BAB4106D2012200230D
:1018800006E000224FF0004302E06FF00102531027
:101890001AEB06004CEB085110EB0A0041EB0B0170
:1018A000BDE8F04DFFF734BFC1F30A52C1F3130195
:1018B00040F2FF3341F480119A4202DA00200146DF
:1018C000704740F233439A42A2F2334202DC524262
:1018D000FFF7B6BEFFF7A5BE30B5041E71F10004D8
:1018E00004DB4FF00044404264EB0101141E73F12D
:1018F000000405DB1C464FF00043524263EB040337
:10190000994208BF904230BD064C074D06E0E068A2
:1019100040F0010394E8070098471034AC42F6D336
:10192000FFF748FC7CD501089CD501082DE9F84358
:1019300006460F4615461C464FF000081A4806801A
:1019400047800571C480B4F5807F01D14FF4004811
:10195000DFF854C0CDF80080BCF806309CF80420B5
:10196000BCF80210BCF8000001F070FF0F480088BE
:1019700002F008F8284601F0EDFE814602F018FE5C
:101980007CB900F099F8284601F0E4FE814602F0A7
:101990000FFE00F091F8284601F0DCFE814602F0CF
:1019A00007FEBDE8F88300007C00002084000020D2
:1019B00010B588B040F6044006F0BEFD41F20D10AF
:1019C00006F0BAFD4FF4E04205212D4804F09EFCDC
:1019D0004FF4A04300220221294804F0D2FC4FF426
:1019E000A04302220021264804F0F2FC4FF40053E9
:1019F00001220221224804F0C4FC4FF400530222C9
:101A000000211F4804F0E4FC4FF400730022012180
:101A10001B4804F0B6FC4FF4007302220021184862
:101A200004F0D6FC4FF40071154804F0A0FC1548F2
:101A300007F042FF01A807F0B6FF002002904FF424
:101A4000827001904FF400600390012006904002E4
:101A50000490202007900020059001A9094807F074
:101A600089FF084807F0F2FC01F0DEFE064CE3882F
:101A7000227961882088FFF759FF08B010BD000067
:101A800000100240003401407C00002070B5044684
:101A90000D46284601F08AFEF0EE400A00EE104A9C
:101AA000B8EEC00A60EE800A9FED021A80EE810A4D
:101AB00070BD00000000004738B50E48C088B0F582
:101AC000807F11D14FF400400A4C0090E3882279C6
:101AD0006188208801F0BAFE0748008801F052FFB3
:101AE0002146087901F01EFF0348008801F04AFFF3
:101AF00000B238BD7C0000208400002070B5044690
:101B00000CB9002070BDFFF7D7FF05460448418897
:101B10002846FFF7BBFF84ED000A0120F2E7000032
:101B20007C00002010B501F0CAFF012211021C4800
:101B300002F088F801220221194802F083F80021FE
:101B4000174801F0B1FF02220121154801F071FF91
:101B500003230A220021124802F00CF803230B226F
:101B600001210F4802F006F80C23802200210C48C6
:101B700001F0DCFF0A4801F0F6FF094801F0A9FF77
:101B8000074801F0ABFF00220121054801F0B4FF36
:101B9000034801F0A8FF024801F036FF10BD000025
:101BA000002001400CB5002001900090694601A87A
:101BB00000F00EF8BDF804000CBD0CB5002001903B
:101BC0000090694601A800F003F8BDF800000CBDC4
:101BD00000B101B97047044A12880280024A528853
:101BE0000A8000BFF6E700009800002010B540F61C
:101BF000024006F0A1FC41F2081006F09DFC032310
:101C000000221946074804F0BCFB4FF4403001F0B5
:101C100039FFFFF787FF00F0B5F80121024801F016
:101C2000FFFF10BD000802400020014000BFFEE79A
:101C300030B502460C464FF6FF710AB9002030BDA0
:101C400011E012F8010B414000230AE001F001000D
:101C500020B14AF2010080EA610100E04910581CFD
:101C6000C3B2082BF2D3201EA4F10105ACB2E8D117
:101C70000846E4E710B541F21D0006F05DFC4FF4A4
:101C8000406006F059FC302300220321164804F07E
:101C900078FB164802F0CAFA0021144802F0E7FA6D
:101CA0000121124802F0E3FA0021104802F0D2FAB2
:101CB00001210E4802F0CEFA00231A4619460B48BD
:101CC00002F094FA00231A460121084802F08EFA25
:101CD0009FED070A002000F01FF89FED050A012084
:101CE00000F01AF810BD000000000240007400402F
:101CF0000000000070B505460C46B4F5805F01D3C6
:101D000040F6FF74234600222946024802F06EFA8C
:101D100070BD00000074004070B52DED028B0446CC
:101D2000B0EE408AB0EE480A00F008F805462946B1
:101D30002046FFF7DFFFBDEC028B70BDB5EEC00A99
:101D4000F1EE10FA01D800207047DFED0C0AB4EE76
:101D5000E00AF1EE10FA02DB40F6FF70F4E79FEDC7
:101D6000071AC0EE010A9FED061A60EE810AFCEE2A
:101D7000E00A10EE900A80B2E6E7000033335340E9
:101D800000F07F4500B589B040F6164006F0D4FB60
:101D90000021124802F055FC1148009001200190EA
:101DA00010480290002003904FF40060049000203F
:101DB0000590069002200790000408906A460021D2
:101DC000064802F0EDFC00221146044802F026FC11
:101DD0000021024802F012FC09B000BD006402407C
:101DE0004C20014098000020704710B5012002F0FF
:101DF000C5FE10B1012002F0BBFE10BD0148006815
:101E0000704700008C00002000BFFEE710B54FF4C3
:101E1000007301221146124804F0B3FA4FF4007324
:101E2000022201210E4804F0D3FA4FF400710C484D
:101E300004F09DFA4FF48071094804F098FA00F01C
:101E400075F84FF40071064804F08FFA00F06EF850
:101E50004FF48071024804F088FA00F067F810BD72
:101E60000004024010B54FF40073012211460E48E1
:101E700004F087FA4FF40073022201210A4804F0AB
:101E8000A7FA4FF40071084804F06FFA4FF480711C
:101E9000054804F06CFA00F049F84FF4007102486C
:101EA00004F065FA10BD00000004024010B50024E3
:101EB0004FF400711C4804F05AFA00F037F84FF460
:101EC0008071194804F053FA00F030F84FF40073B1
:101ED00001220021144804F054FA06E0601CC4B248
:101EE000FE2C02DDFFF7BEFF10BD4FF400710E485F
:101EF00004F03FFA0028F1D14FF480710A4804F051
:101F000034FA00F013F84FF400730122114606482A
:101F100004F037FA4FF4007302220121024804F062
:101F200057FA00BFE0E700000004024008B578203F
:101F3000009000BFBDF80000411E89B2009100284A
:101F4000F8D108BDF8B500243DE0204A52F824102D
:101F50001F4A52F8240004F00CFA05461B4A52F8B6
:101F600024101B4A52F8240004F003FA0646B54236
:101F700002D10DB9012000E000200DF804001DF889
:101F800004001449095D884209D11348005D022804
:101F900008DA1148005D401C0F49085502E0002096
:101FA0000D4908550C48005D022806DB1DF80400A9
:101FB0000A4908550220084908551DF8040005493A
:101FC0000855601CC4B2042CBFDBF8BD40AC01084E
:101FD00030AC01081A0000201E0000200400002080
:101FE00001460148405C70470400002010B5FFF72F
:101FF000A9FF04F013FA10BD10B540F6014006F039
:102000009BFA4FF4A04300220121084804F0B9F9DB
:102010004FF4A04302220021044804F0D9F94FF400
:10202000A041024804F0A1F910BD000000040240E4
:1020300000BFFEE77047000010B5002807DA0A0766
:10204000140E054A00F00F031B1FD45403E00A07C7
:10205000130E024A135410BD18ED00E000E400E036
:10206000BFF34F8F0648006800F4E060054908435D
:10207000001D03490860BFF34F8F00BFFEE700005B
:102080000CED00E00000FA0570B500240CE000251E
:1020900006E00020074901EB85010855681CC5B220
:1020A000802DF6DB601CC4B2042CF0DB00F0F8F8E5
:1020B00070BD00000C01002070B50B46CE1701EB7F
:1020C0005676C6F3C702CE1701EB5676F610A1EB93
:1020D000C606F4B20123A340DDB20E4B03EB80032E
:1020E0009B5CDB430B4E06EB8006B354094B03EBC2
:1020F00080039B5C2B43074E06EB8006B354054BD5
:1021000003EB80039B5CDB43024E06EB8006B3547B
:1021100070BD00000C01002070B50A46CE1701EB1F
:102120005676C6F3C703CE1701EB5676F610A1EB31
:10213000C606F4B20122A240D5B2054A02EB8002E3
:10214000D25C2A43024E06EB8006F25470BD0000BA
:102150000C01002010B5C82002F02AFA40F6014018
:1021600006F0EAF94FF48073012211464B4804F05F
:1021700008F94FF4807302220121484804F028F93D
:102180004FF48071454804F0F2F84FF400730122D7
:102190001146424804F0F5F84FF400730222012181
:1021A0003E4804F015F94FF400713C4804F0DFF8A4
:1021B000C82002F0FDF90021AE2000F036F9002120
:1021C000084600F032F90021102000F02EF900211D
:1021D000402000F02AF90021812000F026F900219A
:1021E000CF2000F022F90021A12000F01EF90021EB
:1021F000C82000F01AF90021A62000F016F90021ED
:10220000A82000F012F900211F2000F00EF9002193
:10221000D32000F00AF90021084600F006F9002159
:10222000D52000F002F90021802000F0FEF8002106
:10223000D92000F0FAF80021F12000F0F6F8002192
:10224000DA2000F0F2F80021022000F0EEF8002180
:10225000DB2000F0EAF80021402000F0E6F8002141
:10226000202000F0E2F80021022000F0DEF800213A
:102270008D2000F0DAF80021142000F0D6F80021BB
:10228000A42000F0D2F80021A62000F0CEF8002112
:10229000AF2000F0CAF8FFF7F7FE10BD00040240BF
:1022A00070B500241CE004F1B001C8B2002100F0B8
:1022B000BCF80021084600F0B8F80021102000F01A
:1022C000B4F8002508E0084901EB8501085D01210B
:1022D00000F0ABF8681CC5B2802DF4DB601CC4B202
:1022E000042CE0DB70BD00000C0100202DE9FF4F45
:1022F00081B080460E461C4600962046E31704EB4C
:102300005373DB1021464FEAE47C04EB5C7C4FEA1C
:10231000EC0CA4EBCC0CBCF1000F02D04FF0010C84
:1023200001E04FF0000C6344224604EBD27C4FEAFC
:102330006C0C03FB0CF303F0FF0B03982038C7B2BF
:10234000002547E00C2C07D107EB4700234901EBA0
:10235000800010F805A014E0102C05D1204800EBF7
:10236000071010F805A00CE0182C07D107EBC700E8
:102370001C4901EB800010F805A002E005B0BDE8A3
:10238000F08F4FF000091FE00AF0800020B13146C5
:102390004046FFF7C1FE03E031464046FFF78CFEA2
:1023A0004FEA4A604FEA106A701CC6B20098301AB1
:1023B000A04205D1009E08F1010000F0FF0806E0F0
:1023C00009F1010000F0FF09B9F1080FDCDB00BFE3
:1023D000681CC5B25D45B5DB00BFCFE768B4010836
:1023E000DCB80108CCBE0108F0B506460F4614461D
:1023F0001D4613E022782B4639463046FFF776FF1C
:10240000284605EBD07106EB6101CEB2C5F1800024
:10241000B04202DA0026B81CC7B2641C207820281B
:1024200002DB20787E28E5DDF0BD70B505460C4660
:10243000FFF7ECFC782000F053F9FFF737FD1CB1F3
:10244000402000F04DF902E0002000F049F9FFF7CC
:102450002DFD284600F044F9FFF728FDFFF702FDA7
:1024600070BD000010B54FF4406006F065F841F211
:102470000E1006F061F80123022200210B4803F040
:1024800080FF0021084607F001FB002211460120D1
:1024900002F008FB012002F06BFB00220121062064
:1024A00005F000FB05F012FC10BD0000000002402A
:1024B00030B52DED028B81B004460D4604B125B92F
:1024C000002001B0BDEC028B30BD684605F0EAFC8F
:1024D00008B90020F5E79DED000A00F019F8B0EE0C
:1024E000408A84ED008AB0EE480A00F004F885EDD9
:1024F000000A0120E5E710B52DED028BB0EE408A11
:10250000B0EE480A05F05EFCBDEC028B10BD000089
:1025100010B52DED028BB0EE408AB5EEC08AF1EE1B
:1025200010FA03D29FED080AB0EE408AB0EE480AD6
:1025300005F01CFDF0EE408AB0EE680A05F06AFD79
:10254000BDEC028B10BD00000000000070470000D1
:1025500010B541F21C0005F0EFFF05F01BFB22480F
:10256000006845F25001884236D04FF4E05005F043
:1025700023FF00BF4FF4E05005F030FF0128F9D1F0
:10258000000206F00FF841F60F4005F0D5FF06F007
:10259000C7FB14211548FEF796FE7F2013490881DA
:1025A000FF2048812420087003204870052088708F
:1025B0000220C870122008710020487188710861DB
:1025C000C860084606F0F2FA45F250000649086075
:1025D00001200749087005E041F60F4005F0ACFF07
:1025E00006F09EFB10BD0000502800404C03002068
:1025F000D400002070B50446FFF734FF012002F03C
:10260000B7FA05F0C7FACA201F49086053200860CE
:1026100006F036FC1D4D00BF042006F0BDFA18B9C7
:10262000281EA5F10105F7D11DB919A006F010FA71
:1026300070BD042006F0F6FB24B1611E88B206F0DE
:102640005DFC02E0002006F059FC002211464FF428
:10265000800002F027FA4FF4806006F095FA4FF4FC
:10266000800002F085FA4FF4804006F03BFB4FF407
:10267000800002F075FA00221146032005F012FADC
:1026800006F028FC00BFD3E724280040FFFF0F001E
:102690005B4552525D205754572074696D656F75C4
:1026A000740D0A0010B54FF4806006F075FA48B159
:1026B00005F070FACA200649086053200860081522
:1026C00006F062FA4FF4800002F052FA10BD0000EA
:1026D0002428004010B506F037FC10BD70470000FC
:1026E00070B50446002524E04FF48071124803F0D1
:1026F0003CFE04F0800028B14FF400710E4803F056
:1027000036FE04E04FF400710B4803F02EFEFFF795
:102710000DFC4FF48071084803F029FEFFF706FC1A
:102720004FF48071044803F020FE6006040E681C1C
:10273000C5B2082DD8DB70BD0004024010B501F011
:1027400041FF10BD08B53048006840F470002E49C4
:1027500008602E48006840F001002C49086000BF66
:102760002A48006800F002000028F9D000BF27487E
:102770000830006840F080002449083108600020DB
:10278000009002E00098401C009000985028F9D377
:102790001E480830006840F090001C49083108606D
:1027A0000020009002E00098401C00900098502803
:1027B000F9D300BF15480830006820F00300134922
:1027C0000831086011480068114908400F49086045
:1027D0000846006820F48020086000200B4908317A
:1027E000086000BF09480830006800200028F9D1BF
:1027F00008480649091D0860002004490C3108609A
:1028000007F01EFA08BD000088ED00E00038024025
:10281000FFFFF6FE1030002410B50121134807F029
:102820009CFB012821D112480068401C1049086017
:10283000084600680521B0FBF1F201FB120008B95F
:10284000FFF7D4FB0B48008800280ADD0948008800
:10285000012801D103F010FA06480088401E0549FE
:1028600008800121014807F075FB10BD00140040ED
:102870008C000020A200002010B54FF480710448A5
:10288000FEF721FD0020034908800349087010BDB0
:1028900005240020660000206800002010B5044BCD
:1028A000044A0621044802F067F802F035F810BD2A
:1028B00005250020044400400060024010B50F4987
:1028C0000F4808F07AF8C0B10D4807F0B3FF0D4982
:1028D000087003F00FFD0C49088008460088FF28A7
:1028E00001D9FF20088000200849074A128888542F
:1028F00001200749087006F093F810BD0403040096
:1029000000440040640000206600002005240020F0
:102910006800002010B54FF4964440480078112814
:1029200001D1A4100CE03D480078122802D14FF4E8
:10293000165405E039480078142801D14FF4E134E9
:1029400040F6034005F0F8FD40F6044005F0F4FDC4
:1029500041F2110005F0F0FD4FF4807300220121D7
:102960002F4803F00EFD4FF48073022200212C4803
:1029700003F02EFD4FF48071294803F0F6FC20236C
:1029800001220221274803F0FCFC202207212548D0
:1029900003F0BCFC402301220221224803F0F1FC99
:1029A000402207211F4803F0B1FCFFF777FF1E48C4
:1029B00007F046FF21461C4807F0C8FE00211A48D0
:1029C00008F037F80021184808F023F800211648CD
:1029D00008F00FF80821144808F023F804211248E1
:1029E00008F00FF88021104807F0A2FF40210E48A0
:1029F00007F094FF00220221262005F053F84FF43F
:102A00004171094807F0CCFF074807F09BFFFFF72B
:102A100033FF00200549087010BD0000CD000020E4
:102A200000100240000C02400044004064000020FE
:102A300070B505460C4605B104B970BDB4F5807F8C
:102A400001D94FF48074224629461548FEF722FC2E
:102A50004FF48071134803F08AFC0621124807F0F6
:102A600076FF22460621114801F03EFE00BF2022DB
:102A700006210E4801F06EFE0028F8D000BF0621A6
:102A8000094807F07EFF0028F9D0012001F090FDF1
:102A90004FF48071034803F068FC00BFCDE70000ED
:102AA0000525002000100240004400400060024064
:102AB00000BFFEE77CB5044600201D4616460029EF
:102AC0000BD0491ECDE90041044B6A4629463046E9
:102AD00000F09EFA009A002111707CBD3F3701087A
:102AE00002E008C8121F08C1002AFAD170477047D7
:102AF000002001E001C1121F002AFBD170472DE91F
:102B0000F04788B081460C4615460027A2461EE0D5
:102B100004F12000A84202D24FF0200801E0A5EB0A
:102B2000040843466A462146484600F02FF800262E
:102B30000AE0FF2F05D01DF80600FF2801D104EBA5
:102B4000060A1DF80670761C4645F2D32034AC42C6
:102B5000DED3FF2F03D1504608B0BDE8F0872846EA
:102B6000FAE72DE9F04104460D4616460027607E3F
:102B700010B10120BDE8F08132462946A06802F07C
:102B800059F8002800DA01273846F3E72DE9F0412B
:102B900004460D4616461F464FF00008607E10B1F1
:102BA0000220BDE8F0813B4632462946A06802F08B
:102BB00017F9002801DA4FF002084046F1E72DE945
:102BC000F04704460D4616461F46DDF820904FF0AC
:102BD0000008607E10B10320BDE8F0873B46324616
:102BE0002946A06802F094F9002801DA4FF00308A2
:102BF0004046F1E72DE9FC4782460E4617461C4643
:102C00004FF000084FF00109FF22494601A8FEF7E6
:102C100053FB44B1002023463A46314600905046CB
:102C2000FFF7CDFF8046251BB8F1000F0ED16DB127
:102C3000E1192A4601A8FEF72DFB0020A1194B46F9
:102C400001AA00905046FFF7BAFF80464046BDE813
:102C5000FC8730B502460023481E0146044606E0C4
:102C6000C80002EBD000007800B904E05B1C081E2D
:102C7000A1F10101F4D100BFE01A30BD2DE9F04708
:102C800004460D4616469846DDF820900CB900BF64
:102C9000FEE70DB900BFFEE70EB900BFFEE7207EDC
:102CA00010B10020BDE8F087256084F80480C4F8E6
:102CB0002490607EF0B901F0A3FF304602F04EF898
:102CC000A06008B90420EDE7A16801F11C0001F043
:102CD00061FF076AE06808B9E76007E0E068B0FBF9
:102CE000F7F107FB110008B10820DBE7A068806B53
:102CF000206100BFE068411E084008B100BFFEE748
:102D0000D4E90310B0FBF1F201FB120008B1082076
:102D1000C8E7D4E90310B0FBF1F0022801D2082083
:102D2000C0E70020BEE7000041B901220276044A54
:102D3000127822B90122024B1A7000E000BF7047DE
:102D40007800002030B5A1B0044600250020049092
:102D5000012084F8310000201D4904AB0246CDE972
:102D60000041029005A9204606F00EFAA07E20B18F
:102D7000049810B1022021B030BDD4E90310B0FB9B
:102D8000F1F00499884202D1204602F03EFA002078
:102D90001049CDE900012346024605A902902046CC
:102DA00006F0F2F900BF0C48002322460BA9009060
:102DB000204603F08FFC94F8300018B1204603F051
:102DC00040F8F0E7002084F831002846D3E70000FF
:102DD000933F01084D3E0108753E01082DE9F04181
:102DE00006460F4614461D460CB900BFFEE7681E96
:102DF000072101EBC000C308224639463046FFF7E1
:102E0000C5FE29462046FFF724FFBDE8F0812DE9E5
:102E1000F04105460E4614464FF0FF37701E07225C
:102E200002EBC000C108FF222846FEF745FA14B1A4
:102E3000671E0020E8553846BDE8F0812DE9F84FBF
:102E400081460F4615461E46DDE90A8A4FF0000B03
:102E5000B04501D300BFFEE70DB900BFFEE7424613
:102E600031462846FFF7D3FF0446601C10B9002006
:102E7000BDE8F88F2A19391901234846CDF800A07A
:102E8000FFF79DFE83465846F2E700002DE9FF5FFD
:102E900082B00021DDE90430020DDDF840B00343CB
:102EA00018D044F61050A2F2FF3242431514119884
:102EB00001281FD0A5EB0B00401C5FEA000A4FF071
:102EC00000064E4FDFF83891B046504615D5CAF18E
:102ED000000413E0119801244AA3012801D16FEAEC
:102EE0000B010298119AC0E90031C0E9024206B014
:102EF000BDE8F09FCBF10000DFE704460021404A27
:102F0000491842EB0450CDE9001012E0E00707D069
:102F100032463B4640464946FEF7B7FA8046894668
:102F200032463B4610461946FEF7AFFA06460F46B4
:102F30006410002CEAD1DDE90401DDE90023BAF1D7
:102F4000000F06DAFEF7A1FA42464B46FEF79DFA5D
:102F500005E0FEF73AFC42464B46FEF736FC0446D7
:102F60000E460022284BFEF7B7FC03D84FF0FF3087
:102F7000014607E00022254B20463146FEF7DEF9E8
:102F8000FEF792FC102409E0002C0ADB0A22002341
:102F9000FEF716FB039B30321A55641E50EA0102FD
:102FA000F2D1641C039AC4F111031444119A012A4A
:102FB00003D0012208430DD10AE0084304D00020C9
:102FC0004FF0110B119072E7A3EB0B056D1E0DE096
:102FD0005B4504DD4FF0000205F1010504E003DA72
:102FE0004FF00002A5F10105002AECD002981199DA
:102FF000C0E90231C0E9004579E700000000144053
:103000000000F03F300000000000F0430000E03F0F
:103010002DE9FF4F95B09B468946064600250FE2F5
:10302000252877D100242746F84A0121059400E09D
:10303000044316F8013F203B01FA03F01042F7D198
:1030400030782A2811D06FF02F033078A0F13002A9
:10305000092A16D8059A44F0020402EB820203EB17
:1030600042021044761C0590EFE759F8042B0592B4
:10307000002A03DA504244F40054059044F002045C
:10308000761C30782E2816D116F8010F44F004046F
:103090002A280DD06FF02F023078A0F13003092BD1
:1030A00009D807EB870302EB4303C718761CF3E745
:1030B00059F8047B761C30786C280FD006DC4C283D
:1030C00017D068280DD06A2814D104E0742810D0D5
:1030D0007A280FD10DE044F400140AE044F480147F
:1030E00001E044F440147278824202D104F5801465
:1030F000761C761C307866280BD013DC582877D0E5
:1031000009DC002875D04528F6D04628F4D0472899
:103110001AD19DE118E0632835D0642879D065285C
:1031200012D195E1702873D008DC6728F1D06928A6
:103130006FD06E280DD06F2806D1B5E073282CD043
:10314000752875D0782874D05A46179990476D1C09
:1031500075E1C4F30250022809D003280DD0D9F834
:10316000001004280DD00D6009F1040967E1D9F8B9
:103170000010EA17C1E90052F6E7D9F800100D80F7
:10318000F2E70D70F0E719F8041B8DF8001000202D
:103190008DF80100EA46012003E059F804AB4FF036
:1031A000FF3061074FF0000102D40DE008F101018A
:1031B0008846B9420FDA8045F8DB1AF80810002972
:1031C000F4D108E008F1010188468142FADB1AF8DF
:1031D00008100029F6D105985B46A0EB08072146A8
:1031E0003846179A00F094FA284400EB080507E0E7
:1031F0004DE029E10DE01AF8010B5A461799904766
:10320000B8F10108F7D25B4621463846179A13E118
:1032100042E00A220092C4F302524FF0000A022A4E
:1032200008D059F804CB032A4FEAEC710AD00DE01C
:1032300029E02AE009F1070121F00702F2E802C1C2
:10324000914609E00FFA8CFC4FEAEC71042A03D195
:103250004FFA8CFC4FEAEC71002907DA0A4600218C
:10326000DCF1000C61EB02012D2202E0220504D505
:103270002B228DF80420012203E0E20701D0202256
:10328000F7E7904659E00A2102E010220DE01021F4
:103290004FF0000A00910BE010224FF0000A44F0BA
:1032A00004040827009203E008224FF0000A00926D
:1032B000C4F30252022A05D059F804CB0021032A94
:1032C00008D009E009F1070121F00702F2E802C184
:1032D000914605E01FFA8CFC042A01D10CF0FF0C8A
:1032E0004FF00008220728D5702806D0009B83F0F5
:1032F000100353EA0A0305D00EE040228DF80420A3
:10330000012208E05CEA010206D030228DF8042098
:103310008DF8050002229046009B83F0080353EAD3
:103320000A030AD15CEA010201D1620705D5302205
:103330008DF804204FF001087F1E582804D034A0D7
:1033400003900EA802900DE036A0F9E753466046C0
:10335000009AFEF735F984460398825C0298401E75
:10336000029002705CEA0100F0D1029806A9081AE6
:1033700000F1200A600702D524F4803400E0012720
:10338000574502DDA7EB0A0000E0002000EB0A0130
:10339000009005984144401A0590E00306D45B462E
:1033A0002146179A059800F0B3F90544002706E076
:1033B00001A85A46C05D179990476D1C7F1C474570
:1033C000F6DBE0030CD55B462146179A059800F022
:1033D0009FF9054404E030205A46179990476D1C28
:1033E0000099481E00900029F5DC08E00298029937
:1033F0005A460078491C0291179990476D1CBAF102
:103400000001AAF1010AF1DC65E1000009280100D0
:10341000303132333435363738396162636465664A
:10342000000000003031323334353637383941420C
:10343000434445460000000000F058F90544761C5E
:10344000307800287FF4ECAD19B02846BDE8F08F45
:10345000620700D4062709F1070222F0070CFCE8F6
:103460000223E14603F000485FEA080C02D00FF2A5
:10347000702C0DE05FEA045C02D50FF2682C07E0C7
:103480005FEAC47C02D00FF2602C01E0AFF2700C56
:103490004FF0FF3823F00043CDF850C065280CD022
:1034A00006DC452809D046281DD047283DD13DE0FF
:1034B000662818D067287ED138E00021112F01DB63
:1034C000112000E0781CCDE9000106A90EA8FFF745
:1034D000DDFCDDE90F010E9A03910021009207F156
:1034E000010A04914DE04FF000400097CDE9011032
:1034F00006A90EA8FFF7CAFCDDE90F0203920E9B96
:1035000011990022DDF80CA00093049211B9791CE6
:1035100000EB010AB7EB0A0004D4C0F1FF3007F159
:10352000010A0490AAEB0700019044E0012F00DAA1
:1035300001270021112F01DD112000E03846CDE9DF
:10354000000106A90EA8FFF7A1FCDDE90F010E9A04
:103550000391002104910092BA4621070CD40399EB
:10356000514500DA8A46BAF1010F05DD009AAAF149
:103570000101515C302908D0B84202DA10F1040F81
:1035800006DA0121CDE9011015E0AAF10101E9E710
:10359000002805DC049901440491AAEB000102E033
:1035A000411C514500DD8A460499401A401C019097
:1035B0004FF000400290200704D40198504501DBF1
:1035C000CDF8048000208DF84F0002980DF14F07D0
:1035D000B0F1004F25D02B200E9002984FF002083A
:1035E00000280CDA404202902D200E9007E00A21BC
:1035F0000298FDF7CFFF3031029007F8011DB8F1B6
:103600000001A8F10108F2DC02980028EFD1791E30
:103610000E980870307800F0200040F0450007F860
:10362000020D12A8C01B00F107081498007800B121
:10363000012000EB0A01019801EBE071059841447B
:10364000401A401E0590E00306D45B462146179AB7
:10365000059800F05DF805441498007818B15A46B2
:10366000179990476D1CE00324D55B462146179AB5
:10367000059800F04DF805441CE00498002807DB8D
:10368000DDE90301884203DD0098405C179901E001
:10369000179930205A469047049805F10105401CBF
:1036A00004900198401E019004D12E205A4617998B
:1036B00090476D1CBAF10001AAF1010ADDDC05E0BA
:1036C00017F8010B5A46179990476D1CB8F1000185
:1036D000A8F10108F4DC5B462146179A0598ABE691
:1036E0002D0000002B000000200000002DE9F0411B
:1036F000044600251E461746880404D405E03946D2
:103700002020B0476D1C641EF9D52846BDE8F08125
:103710002DE9F041044600251E469046C80301D518
:10372000302700E02027880404D505E041463846CC
:10373000B0476D1C641EF9D52846BDE8F0814A6883
:10374000002A06D00A68531C0B6010704868401E9F
:1037500048607047014601F01F00B0B948110828C1
:1037600013D2DFE800F00406080A130C0E10A220A2
:1037700070475220FCE72A20FAE71620F8E70620D7
:10378000F6E70420F4E70320F2E700BF0C20EFE7A0
:1037900006E00A2100BF0A1EA1F1010399B2FAD185
:1037A000021EA0F10100F4D170470000C0F308012F
:1037B000D1B94112072917D2DFE801F00407170A2F
:1037C0000D101300DFED100A12E0DFED100A0FE01C
:1037D000DFED0F0A0CE0DFED0F0A09E0DFED0E0A66
:1037E00006E0DFED0E0A03E000BFDFED0D0A00BFCB
:1037F00000BF0C4991ED000A20EE801ADFED081A97
:1038000081EE210A70470000A69BC4406F128340DE
:103810006F12833F6F12033F6F12833E6F12833D1F
:103820006F1203408800002010B54AF6CA411220EA
:1038300000F0C6F8142000F01BF8044644F04004E1
:103840002146142000F0BCF810BD000070B50446FD
:10385000049D45EA040008431843104340F00B0060
:10386000024E30803046008870BD00008400002089
:1038700070B504464FF40071134802F076FD4FF422
:103880007A70FFF785FF48F2061000F01FF84FF43A
:103890007A70FFF77DFF204600F018F84FF47A7039
:1038A000FFF776FF002000F011F8054600F056F80B
:1038B0004FF40071044802F05AFD4FF47A70FFF79C
:1038C00067FF284670BD00000010024070B5044636
:1038D0004FF4003506E0281EA5F1010502D14FF690
:1038E000FF7070BD02210E4806F03CF80028F2D0AF
:1038F00021460B4805F0DEFF4FF4003506E0281E98
:10390000A5F1010502D14FF6FF70EAE70121044855
:1039100006F028F80028F2D0014805F0C7FFE0E7DC
:103920000034014070B504462046FFF713FF401DE8
:1039300085B209E04FF40051074802F01AFD00B9C2
:1039400070BD012000F034FE281EA5F101018DB2EA
:10395000F0D100BFF4E700000010024010B54FF4B2
:10396000003404E0201EA4F1010400D105E0802110
:10397000034805F0F7FF0128F4D000BF10BD000098
:103980000034014070B504464FF400710B4802F05A
:10399000ECFC4FF47A70FFF7FBFE2046FFF796FF32
:1039A0000546FFF7DBFF4FF40071044802F0DFFC2F
:1039B0004FF47A70FFF7ECFE284670BD001002400D
:1039C00070B505460C464FF400710E4802F0CDFC70
:1039D0004FF47A70FFF7DCFE4FF40140FFF776FFFB
:1039E0002846FFF773FF2046FFF770FFFFF7B6FF8B
:1039F0004FF40071034802F0BAFC4FF47A70FFF7FD
:103A0000C7FE70BD00100240816841F0080181606E
:103A100000BF816801F008010029FAD1816841F0F6
:103A20000401816000BF816801F004010029FAD11E
:103A3000704730B5012902D0022920D10FE06AB1C8
:103A4000102A0BD8C36A23F47003C362C36A541EDE
:103A50004FF4700505EA04542343C36210E06AB1D1
:103A6000042A0BD8836B23F440138363836B541EA7
:103A70004FF4401505EA04542343836300E000BF7C
:103A800000BF30BD0649096821F4E021054AC2F8AB
:103A900004131146D1F804130143C2F8041370470C
:103AA000042301400020014021B1826842F40062F9
:103AB000826003E0826822F400628260704710B581
:103AC00040F6081004F05CFD40F6081004F046FDD6
:103AD00010BD816841F4807181607047816841F454
:103AE000007181607047816801F0010119B9816836
:103AF00041F0010181607047012902D0022912D1F1
:103B000008E0836823F040538360836843EA0273CC
:103B1000836009E0836823F440138360836843EA89
:103B20000253836000E000BF00BF704730B5B1F5BD
:103B3000007F06D1D0F8804044F40074C0F8804083
:103B400005E0D0F8804024F40074C0F8804050F8BC
:103B5000804F24F4FE740460046842EA03052C4399
:103B600040F8804930BDD0F8801041F00101C0F824
:103B700080107047F0B51D4606290CDA436B01EB47
:103B800081071F26BE40B34301EB810602FA06F609
:103B90003343436322E00C290EDA036B8E1F06EBDE
:103BA00086071F26BE40B3438E1F06EB860602FA29
:103BB00006F63343036311E010290FDAC36AA1F15B
:103BC0000C0606EB86071F26BE40B343A1F10C0688
:103BD00006EB860602FA06F63343C3620A2A0CDABB
:103BE000046902EB42070726BE40B44302EB4206DB
:103BF00005FA06F63443046111E0122A0FDCC468AA
:103C0000A2F10A0606EB46070726BE40B443A2F11E
:103C10000A0606EB460605FA06F63443C460F0BD14
:103C2000012902D002290AD104E0826842F08042D0
:103C3000826005E0826842F48002826000E000BF9A
:103C400000BF7047AAB101F480731BB1436843F40D
:103C50008073436001F480631BB1436843F4806365
:103C6000436001F00203CBB1836843F00203836039
:103C700014E001F480731BB1436823F48073436044
:103C800001F480631BB1436823F48063436001F057
:103C900002031BB1836823F00203836070470000B6
:103CA00070B58AB004460E4615464FF0FF300990B5
:103CB0000020089007900494059509A8069000201C
:103CC0001B4907AA08ABCDE9002102900246314604
:103CD000204605F059FA079858B1012015490022ED
:103CE00004ABCDE90021029002223146204605F0C6
:103CF0004BFA0898C0B10998401CA8B90898012847
:103D000002D894F8300060B101200A49002204ABC7
:103D1000CDE90021029002463146204605F034FAF2
:103D200002E0012084F8300009980AB070BD00005C
:103D30006D920108393D010830B503460C46214615
:103D4000187898B11D6948685C3085420ED998781A
:103D5000012806D09878022808D1086890F8300029
:103D600020B958698D682860012030BD0020FCE72B
:103D700010B52DED028B88B00446B0EE408AF0EE0F
:103D8000608A00200090019002900322214668463C
:103D9000FDF7A4FA8DED018ACDED028A0C22694669
:103DA00003A801F04FF903A9034801F0C9FB08B0CB
:103DB000BDEC028B10BD0000FC290020FEB50546BD
:103DC0001E4A07CA8DE807001D490098884208D09E
:103DD00000200090019002900846009000208DF88D
:103DE000070018480088ADF80400174800788DF8DF
:103DF00006008DF8075008216846FDF719FF02906C
:103E000001F034FED12001F0ADFD0C4801F0BAFD07
:103E1000D12001F0A7FD6E4600240AE056F82410D8
:103E2000064A02EB840001F033FED12001F09AFD36
:103E3000641C032CF2D301F09BFDFEBD00000108C1
:103E4000544F4F4200010020CD0000202DE9F041E9
:103E500004460D4617462E46207840B1A078032828
:103E600005D1012086F83000304601F0EAFF00203D
:103E7000BDE8F0812DE9FF4104460D4617462E4668
:103E8000607858B12078032808D12146304602F0E6
:103E9000D9FCE8B1012004B0BDE8F0812078012808
:103EA0000AD10521CDE90010062302AA3046216D72
:103EB000FEF7C4FF0120EEE7607848B120780228C1
:103EC00006D1A27804F110013046236D06F0E0F926
:103ED0000020E0E72DE9F04105460F4600260024CA
:103EE0002BE005EB841101F11C0000F053FE0646A7
:103EF00006B921E005EB8410406BF169884217DBBD
:103F00009222104910A004F0A3FD05EB8410F36980
:103F1000426B05EB8410011D104804F099FD10A0C0
:103F200004F096FD00200F490860401EBDE8F081B6
:103F30000D4840F8246000BF641CBC42D1D300206F
:103F4000F4E7000064CC01085B452F46414C5D203E
:103F50002825733A2564292000000000FCD20108BE
:103F60000A000000740000207023002030B50346D2
:103F70000D4614462078012807D15878032802D02E
:103F80005878022801D1586828605878207000209D
:103F900030BD2DE9F04105460C461646287888B913
:103FA0002746B0463868401C386098F81A0010B1AF
:103FB0000120BDE8F0814FF0FF324046696801F012
:103FC0009FFD00BF0020F4E72DE9F04105460F46B4
:103FD00090463C462668287818B901202071BDE833
:103FE000F081687802280CD1F06A401C30B9282290
:103FF000294606F12800FDF74DF916E00120207151
:10400000EDE76878012810D1A068401CA0606868BE
:10401000E060A068012808D1F06A401C28B9282275
:10402000294606F12800FDF735F90020D7E7000002
:1040300010B5024801F0A2FA10BD0000FC290020D2
:104040002DE9F04F8BB006460F4690469946DDF8B5
:1040500050B00024002003907D694046FDF74AF9E6
:10406000402803D905200BB0BDE8F08FFF221C21AA
:1040700004A8FDF721F95C4806904046FDF73AF99F
:10408000C0B28DF82400CDF828B09DF82400014678
:104090001C310A98084407900799F0681438814247
:1040A00001D90720DFE7681C40B939463046079A36
:1040B00003F0C3FC0546401C00287DD034B903AB97
:1040C00039463046079A06F073F90446002C45D16C
:1040D000FF20029000200890042209A9089800F00F
:1040E000C7FF089004220AA9089800F0C1FF0890B1
:1040F0009DF824204146089800F0BAFF08909DF8EA
:1041000024009DF82410A0EB010A05E0012202A979
:10411000089800F0ADFF0890BAF10000AAF1010A7A
:10412000F4D149460A9A089800F0A2FF08900A992B
:104130000A98A0EB010A05E0012202A9089800F004
:1041400097FF0890BAF10000AAF1010AF4D104AA7D
:104150002946304606F0FAFC044600BFF4B99DF843
:104160002430424605F11C013046FEF743FD04466B
:104170009DF80C0058B99DF82400034605F11C0079
:1041800003440A981A183046796806F0BCFA9DF87C
:1041900024202B464146304606F07AF85CB99DF85B
:1041A0002400024605F11C0011184A4630460A9BBD
:1041B000FEF720FD044600E013E054B9012002217F
:1041C000062304AACDE9001029463046FEF736FE44
:1041D00004462CB99DF80C0010B1012086F830007F
:1041E00000E0072420463EE74B56303069B922B143
:1041F000012A04D0022A06D103E0836004E0C360F0
:1042000002E0036100E000BF0FE001290DD122B1FF
:10421000012A04D0022A06D103E0436104E083614D
:1042200002E0C36100E000BF00BF704710B5044664
:104230000748204440B940F61D0004F0A1F940F6BB
:104240001D0004F08BF900E000BF00BF10BD0000AE
:10425000008CFFBF21B9026842F00102026005E054
:10426000012903D1026842F480320260704721B90B
:10427000026822F00202026005E0012903D102680F
:1042800022F400320260704700EE100AB8EE400AD5
:10429000DFED040A60EE200A9FED031A80EE810A2A
:1042A000704700003333534000F07F4500B970473A
:1042B0000168B1F57A7F03D3424A0168914202D97D
:1042C00041F288310160818821B181884FF6FF7207
:1042D000914201D10121818090ED020AB5EEC00A20
:1042E000F1EE10FA08D390ED020ADFED370AB4EED2
:1042F000E00AF1EE10FA03DDB7EE000A80ED020AE3
:1043000090ED040AB5EEC00AF1EE10FA08D390ED74
:10431000040ADFED2E0AB4EEE00AF1EE10FA03DD36
:104320009FED290A80ED040A90ED030AB5EEC00A5C
:10433000F1EE10FA08D390ED030ADFED230AB4EE94
:10434000E00AF1EE10FA03DDB7EE000A80ED030A91
:1043500090ED050AB5EEC00AF1EE10FA08D390ED23
:10436000050ADFED1A0AB4EEE00AF1EE10FA03DDF9
:104370009FED150A80ED050A90ED060AB5EEC00A1C
:10438000F1EE10FA08D390ED060AF0EE080AB4EE4A
:10439000E00AF1EE10FA03DDB7EE000A80ED060A3E
:1043A000017F012904D0017F022901D00221017778
:1043B000417F112902D3417F142901D9132141776B
:1043C00000BF74E7C02709000000C8420000FA439C
:1043D00000B9704741F28831016001218180B7EE58
:1043E000000A80ED020AB7EE000A80ED030A9FED95
:1043F000090A80ED040A9FED070A80ED050AB7EE71
:10440000000A80ED060A022101771321417700BFDF
:10441000DFE700000000C84210B5FDF7C3FB04460B
:10442000FFF732FF0248D0ED000A20EE200A10BD4F
:10443000B800002010B5FDF7C0FB0446FFF724FFCD
:104440000248D0ED000A20EE200A10BDBC0000207A
:10445000B4EEE00AF1EE10FA01DD01207047002011
:10446000FCE7000000B5F0EE401AB0EE601A0C4810
:10447000D0ED000AB0EE610AFFF7EAFF38B909484B
:10448000D0ED000AB0EE410AFFF7E2FF08B10120CB
:1044900000E00020044908700846007800BD0000D4
:1044A000C0000020C4000020AD0000202DE9F04F26
:1044B0009BB005460E46144698460027582105A88D
:1044C000FCF701FF5CB905AA3146284601F0D5F892
:1044D00008B105AC03E005201BB0BDE8F08FB8F1D2
:1044E000000F0ED100200321CDE90010062303AAFE
:1044F0002846216DFEF7A2FC0746012085F8A4009E
:1045000027E001200421CDE90010062303AA284654
:10451000216DFEF793FC074695F8A400B0B9AFB93A
:104520005EB13046FCF7E6FE82464FF0FF3352465E
:104530003146284605F0ACFE08E03CB1A2784FF0C9
:10454000FF3304F11001284605F0A2FE002085F893
:10455000A400206DE968B0FBF1F0484300F10309C5
:104560001FBB042303AA49462846FEF737FC01284F
:104570001BD10221042303AACDE900104946284695
:10458000FEF75CFC0746206DE968B0FBF1F000FB2C
:1045900001FB5946284601F007FE8246BAF1000F9A
:1045A00002D002218AF8021000BF384694E70000CA
:1045B0000349086000BF024909680029FBD1704720
:1045C000000000200448006820B103480068401E35
:1045D00001490860704700000000002010B501EBA1
:1045E0004102D30000F11002D25822F0010301EB86
:1045F0004102D40000F11002135110BD10B501EBBF
:104600004102D30000F11002D25842F0010301EB45
:104610004102D40000F11002135110BD30B5134611
:1046200001EB4104E50000F11004625922F06062E0
:1046300042EA436201EB4104E50000F110046251DB
:1046400030BD10B501EB4102D30000F11002D25889
:1046500022F0010301EB4102D40000F110021351DA
:10466000002301EB4102D40000F11002135101EBD1
:104670004102D40000F11402135101EB4102D400B5
:1046800000F11802135101EB4102D40000F11C02A9
:10469000135101EB4102D40000F1200213512123F8
:1046A00001EB4102D40000F12402135104290CDA79
:1046B00001EB41025300C1F3400203EB82033D22B0
:1046C0009A4083681A4382600DE00A1FD1B201EB61
:1046D00041025300C1F3400203EB82033D229A40A2
:1046E000C3681A43C26010BD70B504460D46164635
:1046F00029462046FFF772FF20222946204600F077
:104700000AF832462946204600F0F6F829462046A7
:10471000FFF774FF70BD10B504290CDA01EB4103FB
:104720005C00C1F3400304EB830302FA03F38468E3
:10473000234383600DE00B1FD9B201EB41035C0002
:10474000C1F3400304EB830302FA03F3C468234379
:10475000C36010BD10B5034604290FDA01EB410018
:104760004400C1F3400004EB800402FA04F01C682A
:10477000204008B1012010BD0020FCE7081FC1B295
:1047800001EB41004400C1F3400004EB800402FA55
:1047900004F05C68204008B10120ECE70020EAE763
:1047A00070B501EB4104E50000F12404645924F0E4
:1047B000040501EB4104E60000F12404A55101EBDE
:1047C0004104E60000F118041568A55101EB41040D
:1047D000E60000F11C049568A55101EB4104E600D8
:1047E00000F11404D569A55101EB4104E50000F185
:1047F000100463593F4C2340146944EA8404156A49
:104800002C4395692C43234301EB4104E50000F15F
:1048100010046351546874B901EB4104E50000F1E0
:104820001004645944F4007501EB4104E60000F102
:104830001004A5511FE05468012C0ED101EB410476
:10484000E50000F11004645924F4007501EB410403
:10485000E60000F11004A5510DE001EB4104E50074
:1048600000F11004645944F4004501EB4104E600F2
:1048700000F11004A551D46874B901EB4104E500BE
:1048800000F11004645944F4806501EB4104E60032
:1048900000F11004A5510DE001EB4104E50000F129
:1048A0001004645924F4806501EB4104E60000F132
:1048B0001004A551546974B901EB4104E50000F1FD
:1048C0001004645944F4807501EB4104E60000F1E2
:1048D0001004A5510DE001EB4104E50000F11004C6
:1048E000645924F4807501EB4104E60000F11004E2
:1048F000A55170BD3F87FCFF10B501EB4103DC0003
:1049000000F114031A5110BD024601EB4100C3002F
:1049100002F11400C058704700B589B040F6154048
:1049200003F00AFE05211148FFF78BFE10480090A6
:10493000012001900F480290002003900490059000
:1049400006904FF480700790000208906A46052197
:104950000648FFF725FF042205210448FFF75EFE05
:1049600005210248FFF74AFE09B000BD0060024081
:104970000444004005240020F0B589B006460F46E7
:1049800014461D4640F6154003F0D6FD40F616408D
:1049900003F0D2FD39463046FFF753FE0094012064
:1049A0000190029500200390049001200590402082
:1049B0000690002007904FF4803008906A463946F0
:1049C0003046FFF7EDFE042239463046FFF726FE5B
:1049D00009B0F0BD2DE9F0439FB004460E46914664
:1049E00035462F684FF00008207800284FD0A07877
:1049F000022802D0A078032849D101200321CDE963
:104A000000106068C11C042308AA3846FEF716FA95
:104A1000606814301D9000BF09A9384603F0D9FD25
:104A20009DF8250058B19DF82400022803D09DF878
:104A30002400032803D109A9384601F003FF09AA7D
:104A40002146384601F021FB1D90401C0028E3D18F
:104A5000421E3846616801F053F8D5F80880606856
:104A6000A86000222146384601F04CFB7861012302
:104A700002AA4146384603F053FE38B906986968E1
:104A8000884203D901201FB0BDE8F08300BF002099
:104A9000F9E770B505460C462146284604F0DCFCD3
:104AA000204670BD10B52D4B1B6883432B4C2360F3
:104AB000231D1B688343241D2360231D1B68834320
:104AC000241D2360231D1B688343241D236011B113
:104AD00001290ED105E0214B1B6803431F4C2360C5
:104AE00008E01E4B1B1D1B6803431C4C241D236048
:104AF00000E000BF00BF32B1012A11D0022A1CD051
:104B0000032A27D127E0154B08331B680343134CB6
:104B100008342360231D1B688343241D23601BE08E
:104B20000E4B08331B6883430C4C08342360231D51
:104B30001B680343241D23600EE0084B08331B68E9
:104B40000343064C08342360231D1B680343241DC4
:104B5000236001E000BF00BF00BF10BD003C01406A
:104B6000024909680143014A11607047003C014055
:104B70000149086070470000143C014001460448A8
:104B80000068084008B1012070470020FCE70000E1
:104B9000143C014070B5054600240CE0084850F86C
:104BA000241018222846FCF7BAFB18B9044850F81C
:104BB000240070BD641C002CF0D00020F9E7000038
:104BC00028CC010810B50C48007808B1002010BDB1
:104BD00000240AE0094850F82400406A20B107493F
:104BE00051F82410486A8047641C002CF2D0012040
:104BF000014908700020EAE76A00002028CC01087B
:104C000010B50B480078012805D104F039FD4FF4A8
:104C10007A70FFF7CDFCFFF7D5FF0446002C00DAD1
:104C200003E000F0B9F8044600BF204610BD0000C4
:104C3000D40000202DE9F04104460D461646002719
:104C4000B846A819A16B88420ED94FF4F8721F49D3
:104C50001FA003F0FDFE23A003F0FAFE2FA003F037
:104C6000F7FE781EBDE8F081204600F0BBFD8046CF
:104C7000B8F1000F11D140F2F712144914A003F05B
:104C8000E7FE221D04F11C01254803F0E1FE23A0EC
:104C900003F0DEFE4FF0FF30E4E7616B4819314668
:104CA000D8F8302090470746002F0DDA4FF4FF72F6
:104CB000064907A003F0CCFE04F11C0119A003F083
:104CC000C7FE16A003F0C4FE3846CBE7A7CC010808
:104CD0005B452F46414C5D202825733A25642920E9
:104CE00000000000506172746974696F6E20657213
:104CF000617365206572726F7221205061727469F0
:104D000074696F6E2061646472657373206F75746B
:104D1000206F6620626F756E642E00000A0000002E
:104D2000E4D30108506172746974696F6E20657212
:104D3000617365206572726F722120466C617368C1
:104D4000206465766963652825732920657261731F
:104D500065206572726F72210000000070B5054613
:104D600000240EE00A48006800EB8410011D28466C
:104D7000FCF7C7FA20B90648006800EB841070BD44
:104D8000641C044800688442ECD30020F7E700006C
:104D90006C0000207400002010B50D48007810B1A0
:104DA0000C48006810BD0C480C49086005200949F2
:104DB00008600846016809480068FFF78BF800B1F1
:104DC00003E001200249087000BF02480068E9E7DB
:104DD00070000020740000203CD401086C0000200A
:104DE0002DE9F04704460D4617461E464FF00008D1
:104DF000C146A819A16B88420FD94FF4D07221493E
:104E000021A003F025FE25A003F022FE31A003F02F
:104E10001FFE4FF0FF30BDE8F087204600F0E2FCB7
:104E20008146B9F1000F11D140F2A712154916A021
:104E300003F00EFE221D04F11C01274803F008FEBA
:104E400024A003F005FE4FF0FF30E4E7616B481942
:104E500032463946D9F8283098478046B8F1000FD5
:104E60000DDA4FF4D772074907A003F0F1FD04F102
:104E70001C011AA003F0ECFD16A003F0E9FD40466A
:104E8000C9E7000080CC01085B452F46414C5D20FE
:104E90002825733A256429200000000050617274AF
:104EA0006974696F6E2072656164206572726F72D9
:104EB0002120506172746974696F6E20616464723C
:104EC000657373206F7574206F6620626F756E64F2
:104ED0002E0000000A00000098D30108506172748F
:104EE0006974696F6E2072656164206572726F7299
:104EF0002120466C617368206465766963652825A6
:104F000073292072656164206572726F72210000DE
:104F10002DE9F04704460D4617461E464FF000089F
:104F2000C146A819A16B88420FD940F2C912214984
:104F300021A003F08DFD25A003F08AFD31A003F030
:104F400087FD4FF0FF30BDE8F087204600F04AFCB7
:104F50008146B9F1000F11D14FF4E872154916A03E
:104F600003F076FD221D04F11C01274803F070FDBB
:104F700024A003F06DFD4FF0FF30E4E7616B4819AA
:104F800032463946D9F82C3098478046B8F1000FA0
:104F90000DDA40F2D712074907A003F059FD04F1DA
:104FA0001C011AA003F054FD16A003F051FD404669
:104FB000C9E7000093CC01085B452F46414C5D20BA
:104FC0002825733A2564292000000000506172747E
:104FD0006974696F6E207772697465206572726F8B
:104FE000722120506172746974696F6E206164640B
:104FF00072657373206F7574206F6620626F756EB3
:10500000642E00000A0000004CD301085061727445
:105010006974696F6E207772697465206572726F4A
:10502000722120466C617368206465766963652827
:10503000257329207772697465206572726F7221F9
:105040000000000001604260704770B506460C46E3
:1050500065682069A84200D225692B46304622683F
:10506000E168FDF793FD00B10025284670BD000002
:1050700030B503460C46DB4308E014F8010B5840FA
:10508000C0B2054D55F8200080EA1323101EA2F18E
:105090000102F2D1D84330BDD4CC010802460B4600
:1050A000002106E0505C20385F2801D300207047C3
:1050B000491C9942F6D30120F9E770B504460D4624
:1050C0000026207E08B9082070BD00BFE06910B13D
:1050D0002046E169884700BF012300222946204677
:1050E000FFF7E4F9064600BF206A10B12046216AA6
:1050F000884700BF3046E7E7F0B585B005460E4665
:1051000080220F496846FFF79DFF07463A46314621
:10511000284600F017F8041E0FD021460848FFF774
:10512000BDFF28B1002006490855084605B0F0BD6E
:105130000498802801D80020F8E70020F6E7000056
:1051400084230020F8B504460E4615460027207E2D
:1051500008B90020F8BD00BFE06910B12046E16940
:10516000884700BF05F11000009031462046D5E980
:10517000002300F0D5FE074600BF206A10B120468C
:10518000216A884700BF3846E4E72DE9F04186B040
:1051900005460E4614468CB12046FCF7ABF8804617
:1051A0004246214601A8FFF74DFF07463A463146E1
:1051B000284600F008F806B0BDE8F08131462846E0
:1051C000FFF77BFFF7E72DE9F04104460E46154651
:1051D0000027207E10B90820BDE8F08100BFE069FB
:1051E00010B12046E169884700BF31462046D5E925
:1051F000002304F071F8074600BF206A10B1204672
:10520000216A884700BF3846E6E72DE9F04188B0BB
:105210000446002700BFE06910B12046E1698847D5
:1052200000BF002507E04FF0FF3104F1A80000EBBC
:10523000C50041606D1C402DF5D300260AE04FF0FB
:10524000FF323146204600F05BFC074607B139E0EB
:10525000E06806442069B042F1D800252EE005EB55
:105260004501A06A00EB8100806848B905EB450262
:10527000A16A01EB82014868FCF73CF8804606E031
:1052800005EB4501A06A00EB8100D0F808804FF0E3
:10529000FF300790CDF8008005EB4501A06A00EBD8
:1052A0008100436805EB4501A06A50F8212002A95E
:1052B0002046FEF7C5FE07B104E06D1CE06AA84277
:1052C000CDD800BF0020606100BF206A10B1204629
:1052D000216A884700BF384608B0BDE8F081000069
:1052E0002DE9F0478CB00446884691461E46DDF80D
:1052F00050A0002700234A4641462046CDF800A092
:10530000FDF7BCFC074607B16DE000BFE06910B1D6
:105310002046E169884700BF002084F8300084F807
:10532000310026B1D6E90001C4E90A0103E00021F9
:10533000E1620020A06200200590049060612E4987
:1053400004AA05ABCDE900210290024606A9204639
:1053500003F01AFF05986061D4E90310B0FBF1F087
:10536000012801D800BFFEE7002514E0002105EB6D
:10537000450204F52A7000F83210491E05EB45027B
:1053800000EBC200416105EB450204F52A7000EB19
:10539000C20041606D1C082DE8D3002507E04FF0E6
:1053A000FF3104F1A80000EBC50041606D1C402DE9
:1053B000F5D300BF206A10B12046216A884700BF9C
:1053C0002046FDF7BFFC074600BFE06910B120464C
:1053D000E169884700BF00BF206A10B12046216AFA
:1053E000884700BF00BF39462046FDF79DFC384680
:1053F0000CB0BDE8F08700006D3F01082DE9F04FCB
:1054000099B00446884691461D46DDE9227A002679
:1054100000200B900C900D900E900B940DB900BFD6
:10542000FEE701234A4641462046CDF800A0FDF79D
:1054300025FC064606B179E000BFE06910B12046C0
:10544000E169884700BF6565A765012084F85C00B5
:10545000801E60610146E162E068B84201D800BF89
:10546000FEE7002010900120344900220BABCDE96B
:10547000002102900FA9204603F0BFFE9DF83000E6
:1054800038B1A07E08B1022650E0204604F0C0FDED
:1054900018E00D9909B10E9808E094F85C1009B174
:1054A000E06A03E0D4E90321881AE062E16801447C
:1054B0002269914202D30021616102E0E168014466
:1054C000616100BF012304F128022046E16A03F074
:1054D000EDF92920005D022802D1A06B20651DE0B6
:1054E0002920005D012819D16169E06A814215D047
:1054F000D4F82CB0BBF1000F04D1D4E90310A0EB19
:10550000010B02E0E068ABEB000B002301AA594657
:10551000204603F0CBF90598206500BF00BF206A44
:1055200010B12046216A884700BF00BF314620469F
:10553000FDF7FAFB304619B0BDE8F08FC93F01080E
:1055400070B504460D460026207E08B9082070BDBF
:1055500000BFE06910B12046E169884700BF002222
:105560002946204604F010FD064600BF206A10B10F
:105570002046216A884700BF3046E8E710B5044658
:1055800000BFE06910B12046E169884700BF2046AE
:1055900004F03EFD00BF206A10B12046216A884712
:1055A00000BF10BD2DE9F04190B004460D461646EF
:1055B0004FF0000815B910B0BDE8F081E76A00BFF0
:1055C000E06910B12046E169884700BF00BFE0688C
:1055D0008044002306AA3946204603F067F900B14B
:1055E0002FE09DF81900022803D09DF81900032828
:1055F0001ED19DF81900022805D1282204F12801A6
:1056000006A8FBF747FE0B98049000BF01A92046AF
:1056100003F0E0F9314601A8A84700B11BE001A959
:1056200006A800F01BFD0490401C0028EED107E006
:105630009DF81900012802D09DF8190000B90AE070
:1056400000BF424606A9204600F0F2FC0746401C77
:105650000028BCD100BF00BF206A10B12046216ADB
:10566000884700BF00BFA6E702461369CB60D06839
:10567000886093680B61084670472DE9F041074642
:105680000D46144600262846FBF734FE804604F1FA
:10569000500342462946384600F069FC30B12146A5
:1056A000384602F096FF0120BDE8F08122462946E7
:1056B000384600F02DF806462EB1424629463846B7
:1056C000236D04F0E5FD3046EEE72DE9F047044692
:1056D0000D4616462F46B1463846FBF70BFE804670
:1056E000A078404502D00020BDE8F087607868B11E
:1056F000207802280AD14246394604F11000FBF70F
:105700000EFE18B9012089F80000EDE70020EBE754
:105710007CB506460C46154600200190054801ABB5
:10572000224629460090304600F0D4FF9DF8040040
:105730007CBD0000CB5601082DE9F04F89B007462B
:105740000C461646A046F868B4FBF0F0F96800FB7A
:1057500001FB5946384600F027FD8246BAF1000F9A
:1057600008D0DAF81400A04204D14FF0FF3009B09D
:10577000BDE8F08F2BE0202301AA21463846FDF733
:1057800005FA10B14FF0FF30F1E7002519E001A84C
:10579000415D01AA681C105C01EB0021A81C105C93
:1057A00001EB0041E81C105C01EB00690C488145ED
:1057B00006D160190838404502D360190838D6E789
:1057C0006D1C1C2D02D26019B042E0D31C34B442CF
:1057D00003D204F12000B042CDD34FF0FF30C6E732
:1057E0004B563030014604480068081A8011034ABD
:1057F00052F82000704700006C0000207023002049
:105800001CB500200C211A4B1AA2CDE900101CA1D6
:105810001D48FFF7F3FD044600200C21144B1BA28A
:10582000CDE900101CA11E48FFF7E8FD044300204D
:1058300018210F4B1BA2CDE900101DA11E48FFF738
:10584000DDFD044300204021094B1CA2CDE90010DE
:105850001CA11E48FFF7D2FD044334B121461CA011
:1058600003F0F6F84FF0FF301CBD0020FCE700000D
:10587000AD5E010873616D706C655F6C6F670000F1
:1058800073616D706C650000982900206F766572F9
:105890005F6C6F67000000006F76657200000000AB
:1058A000FC290020686964655F6C6F670000000078
:1058B0006869646500000000602A00206F705F6CFA
:1058C0006F6700006E6F726D616C0000C42A00206B
:1058D000466C617368444220CAFDBEDDBFE2B3F589
:1058E000CABCBBAFCAA7B0DC2120636F64653A2095
:1058F00025640A0038B50020034608A20AA10090DA
:105900000C48FFF7EDFC044634B121460AA003F031
:105910009FF84FF0FF3038BD0020FCE76664625FFF
:105920006B76646231000000656E765F7061726153
:105930006D0000002C2600205B4572726F725D20A6
:10594000506172616D204B56444220696E6974202B
:105950006661696C65642120636F64653D25640A36
:105960000000000001490860704700000C3C024044
:105970000348006840F0004001490860704700009B
:10598000103C024030B5044600256FF0304000F076
:1059900037F805466DBB18481849086044F00040C8
:1059A000091F086015481438006820F0F8001349F2
:1059B000143908600846006840F002000860084694
:1059C000006840F4803008606FF0304000F018F854
:1059D00005460A48001F006820F000400749091FDB
:1059E000086006481438006820F0020003491439A2
:1059F0000860284630BD0000D6C7B8A9243C024044
:105A000010B50346012400BF00F00AF804465B1EEF
:105A1000012C01D1002BF7D103B90724204610BD7A
:105A20000020114A116801F480320AB1012019E006
:105A300001F480720AB1022014E001F080020AB180
:105A400003200FE001F040020AB104200AE001F057
:105A500010020AB1052005E001F002020AB1062099
:105A600000E00020704700000C3C02400548006840
:105A700000F0004028B1044802490C39086003488E
:105A800008607047103C024023016745AB89EFCDA9
:105A900070B504460D4600266FF03040FFF7B0FFAA
:105AA0000646DEB90E48006820F440700C490860D4
:105AB0000846006840F4007008600846006840F03E
:105AC0000100086025606FF03040FFF799FF06463F
:105AD0000348006820F0010001490860304670BDAD
:105AE000103C02402DE9F04104460D4617462E4673
:105AF0003046616800F058F80020BDE8F0810000F1
:105B0000F0B58BB005460C4616460027142106A8B2
:105B1000FBF7D9FBE868B4FBF0F100FB114008B1DA
:105B200000BFFEE721462846EA68FDF71AF8074657
:105B300097BBFF22142106A8FBF7BEFB01200090B3
:105B4000042306AA214601902846FDF777F9012093
:105B5000009004230DF11B02E11C01902846FDF783
:105B60006DF90F48089009964FF0FF300A90012018
:105B70000C2308AA04F1080100902846FDF71FF83D
:105B80000746182207496846FBF784FB01946946DB
:105B9000284604F072FD00BF38460BB0F0BD00008F
:105BA00046444230BCCC0108F0B58DB005460E46E7
:105BB00000241C4FE868B6FBF0F100FB116008B14F
:105BC00000BFFEE731462846EA68FCF7CAFF0446F4
:105BD00034BB00BF01200090042302AA314601908B
:105BE0002846FDF72BF9044614B120460DB0F0BD50
:105BF00000BFFF2204210DF10B00FBF75DFBCDF888
:105C00000B7000BF012004230DF10B02F11C00906A
:105C10002846FCF7D4FF04460CB12046E6E700BF57
:105C20002046E3E754534C3010B5002821D0114BE7
:105C30000022001F196803E0814203D80A46496820
:105C40000029F9D152B11368841A9C4204D100682A
:105C500018441060104602E0506000E0186039B14E
:105C600002680B1A934203D10B681A440260496818
:105C7000416010BD040100200120014908707047F7
:105C8000A000002010B541F61B5002F083FB012854
:105C900000D100E00020044602F0E0FA204610BDEA
:105CA00010B54FF47A71134804F028F808B100F0E9
:105CB0005BFD1148007810B900F0A6F8B8B100F00B
:105CC00079FD4FF47A710D4804F018F888B110236B
:105CD0000B48002102680846FCF786FB102309A246
:105CE00019460020FCF780FBFCF7DAFA01E000F02F
:105CF00057FD10BDB0000020AC000020B400002013
:105D0000A80000204175746F53616D706C65202090
:105D10000000000010B54FF4C06001F025FF002224
:105D20001146312001F0BEFE10BD000010B5102359
:105D30000748002102680846FCF756FB102305A21D
:105D400019460020FCF750FBFCF7AAFA10BD000032
:105D5000A800002049444C4520202020202020205D
:105D60000000000000B589B001A800F0B1F81D499D
:105D700001980860BDF808001B4908809DED030AE2
:105D80001A4880ED000A9DED040A194880ED000ACA
:105D90009DED050A174880ED000A9DED060A16489C
:105DA00080ED000A9DED070A144880ED000A9DF879
:105DB0002000134908709DF82100124908700F480F
:105DC00090ED000A0020FBF7A7FF0C4890ED000AB9
:105DD0000120FBF7A1FFFCF79DFD0520FEF7E8FB86
:105DE00009B000BDD000002000010020B800002054
:105DF000BC000020C0000020C4000020C80000201B
:105E0000CC000020CD000020014800787047000041
:105E1000A400002008B1012100E00021014A117016
:105E200070470000A400002030B503460C4615461C
:105E3000187820B12068401C206058682860002035
:105E400030BD10B504462046216900F001F810BDB0
:105E500030B58FB004460D460020089007901149D8
:105E600007AA08ABCDE900210290012209A920462A
:105E700003F08AF9089801280FD80494059507982B
:105E8000069000200849CDE9000104AB024609A9AB
:105E90000290204603F078F900BF002084F830001B
:105EA0000FB030BD295E0108D549010810B500F0DA
:105EB000C5F9044605480068844202DC03480068CE
:105EC000441C02480460204610BD0000D800002099
:105ED00030B585B004460CB905B030BD2046FEF79C
:105EE00077FA202221466846FFF7ACF86A4608A1F7
:105EF0000A48FFF727F90546202D03D02046FEF774
:105F000067FAE9E72046FEF7D1F900BFE4E70000B1
:105F1000646174615F636F6E666967002C260020A0
:105F20002DE9F04397B08046894616461D461E9CD3
:105F3000002701AA49464046FFF79FFB80B10CB1FC
:105F4000049820600498A84201D2049F00E02F46E4
:105F50004EB13B46324640461699FCF717FE02E02A
:105F60000CB100202060384617B0BDE8F0832DE961
:105F7000F04391B005460E4690461F4642463146D4
:105F80000020FFF775F84FEA104900244CE005F1B6
:105F9000A80000EBC4004068401C90B305F1A800C5
:105FA00030F8340048453ED1402101A8FBF78BF979
:105FB00005F1A80000EBC400406800F11C0140237B
:105FC00001AA2846FCF7E2FD424601A93046FBF74C
:105FD000A6F938BB05F1A80000EBC40040683860A2
:105FE00005F1A80000EBC40040884FF6BF7188425D
:105FF00008DB4FF6FF7105F1A80000EBC4004180FB
:106000000CE010E005F1A80000EBC400408840302F
:1060100081B205F1A80000EBC4004180012011B05D
:10602000BDE8F08300BF641C402CB0D30020F6E72D
:1060300010B50346D86810441C69A0420BD84868C4
:10604000DC68A04203D34868DC68001B10BDD3E9BC
:106050000340001BFAE74FF0FF30F7E710B50246A8
:106060004FF0FF335078012801D1801E10BDCC685D
:1060700050684030844203D3C868A0F1140302E0A2
:106080004FF0FF30F2E71846F0E72DE9F041064601
:106090000D4614464FF0FF376878012802D1801E64
:1060A000BDE8F081206D401C18B9686800F1140744
:1060B00026E06868F1680844216D88421DD3607845
:1060C00018B1A168206D471801E0206D471C686871
:1060D000F1680844A0F1140239463046FFF72CFB62
:1060E0000746781C30B16868F1680844B84201D3AB
:1060F000A06828B94FF0FF30D2E74FF0FF30CFE76C
:106100003846CDE730B503461446C868401C08B988
:10611000DA6803E0C868DD6800FB05F2A0181D69B5
:10612000A84209D8486810441D69A84202D24868AC
:10613000104430BD0020FCE74FF0FF30F9E710B508
:106140000346D86810441C69A0420BD84868DC6834
:1061500020441C69A04203D24868DC68204410BD7A
:106160000020FCE74FF0FF30F9E7000010B586B0E3
:1061700000200590042205A96846FEF763FF6A46E1
:1061800005A10848FEF7DEFF0446042C01D00020DC
:106190000590059806B010BD706F7765725F636FEC
:1061A000756E74002C26002010B502460B460021A7
:1061B00010E001EB410402F52A7000EBC4004068D6
:1061C000984206D101EB410402F52A7000EBC400AD
:1061D00010BD491C0829ECD30020F9E770B505462D
:1061E0000C460DB1002C00DC70BD621E0BA12846D0
:1061F000FBF774F80021601E29540CA10E48FEF72D
:106200007BFF06463EB1621E31462846FBF766F824
:106210000021601E295400BFE6E7000044454641C6
:10622000554C545F5445414D000000007465616D4C
:106230005F6E756D626572002C26002000B591B00E
:106240002C2101A8FBF73FF80CA802F05DFC9DF89B
:10625000300000F00F009DF83010091101EB8101B2
:1062600000EB4100643006909DF8310000F00F0013
:106270009DF83110091101EB810100EB4100401E36
:1062800005909DF8320000F00F009DF832100911C2
:1062900001EB810100EB410004909DF8340000F017
:1062A0000F009DF83410091101EB810100EB410052
:1062B00003909DF8350000F00F009DF8351009118E
:1062C00001EB810100EB410002909DF8360000F0E7
:1062D0000F009DF83610091101EB810100EB410020
:1062E00001900020099001A8FAF780FFA0F5E14095
:1062F00011B000BD10B505210348FEF705FBC0F540
:10630000807080B210BD000000600240F0B503460E
:106310001C6A5D6A00200DE00126864016403EB1F1
:1063200087000F26BE40B443860001FA06F63443C8
:10633000461CB0B20828EFD3082011E001268640A1
:1063400016405EB1A0F10806B7000F26BE40B54367
:10635000A0F10806B60001FA06F63543461CB0B2B5
:106360001028EBD31C625D62F0BD816270478161D1
:10637000704702461069084008B1012070470020AC
:10638000FCE7F0B504460D4616462168E268002099
:1063900019E0012787401F409FB14FEA400C0327B7
:1063A00007FA0CF7B943470005FA07F739434FEAF4
:1063B000400C032707FA0CF7BA43470006FA07F721
:1063C0003A43471CB8B21028E3D32160E260F0BD25
:1063D000F0B50C461546012C03D146681E434660B5
:1063E00002E046689E434660826800210DE0012677
:1063F0008E401E403EB14F000326BE40B2434E00C9
:1064000005FA06F632434E1CB1B21029EFD3826072
:10641000F0BD10B503F04AF9012010BD00B5A54844
:106420000078401CA34908700020A349087016E0BA
:10643000A248A149097830F8110000280ADD9F48D8
:106440009D49097830F81100401E9C499A4A1278FB
:1064500021F8120098480078401C97490870964827
:1064600000780428E4DB934800781E287EDB0020B7
:10647000904908709049087016E191488E49097852
:10648000405C20F006008E498B4A127888548D4873
:1064900089490978415C8C48874A1278815486483A
:1064A0000078FBF79DFD8949834A12788854084695
:1064B00081490978415C83487F4A12788154834836
:1064C0007D490978405C01280AD17D487A490978DC
:1064D000405C40F001007A49774A1278885409E01C
:1064E000774875490978405C20F001017448724A88
:1064F00012788154754870490978405C01280ED1A2
:1065000071486D490978405C48B96D486A49097815
:10651000405C40F002006A49674A127888546B4830
:1065200065490978405C78B9674863490978405CF7
:10653000012809D1624860490978405C40F00401B3
:106540005F485D4A1278815461485B490978405C34
:10655000052818D2DFE800F0031845717C005B487D
:1065600055490978405C01280DD100E0A1E04FF4C5
:106570007A705249504A127821F812000121544889
:106580004D4A1278815489E050484B490978405C63
:1065900058B900214948484A127820F812100221BF
:1065A0004B48454A127881541AE0444842490978D8
:1065B00030F81100A0B9642040493F4A127821F810
:1065C0001200042142483C4A127881543C483A491E
:1065D0000978405C40F020003949374A12788854E5
:1065E0005CE03A4834490978405C01280FD1032027
:1065F0003749314A1278885431482F490978405C2C
:1066000040F010012E482C4A1278815414E02B4897
:106610002949097830F8110070B900212C48264A20
:1066200012788154264824490978405C40F00801DA
:106630002348214A1278815430E024481E490978C1
:10664000405C20B9002022491B4A1278885425E07A
:106650001E4819490978405C28B900201C49164A8F
:10666000127888541AE015481349097830F8110057
:10667000A0B964211148104A127820F8121010486D
:106680000D490978405C40F040000D490A4A1278F3
:10669000885404200E49084A1278885400BF0648DE
:1066A0000078401C04490870034800780428FFF66D
:1066B000E4AE00BD220000202300002030000020B6
:1066C00008000020380000202800002024000020BE
:1066D0002C0000202DE9F04786B005460C461646F2
:1066E0001F46DDF838804FF00009D5F814A000BF30
:1066F000E868814400236A465146284602F010F8B3
:1067000000B125E0B8F1000F00D121E09DF80100B3
:10671000022803D09DF80100032818D101981430F5
:10672000206500BF2146284601F053FF3A46314616
:106730002046C04710B106B0BDE8F0872246694642
:106740002846FFF7A2FC2065401C0028EAD100BFC4
:106750004A4669462846FFF7D5FC8246401C002879
:10676000C6D100BFE7E7000010B50B48007828B994
:106770004FF480510948FFF7FAFD04E04FF48051CF
:106780000648FFF7F2FD0448007808B9012000E050
:1067900000200149087010BD3C00002000040240A8
:1067A00010B54FF480410248FFF7DFFD10BD000037
:1067B0000004024010B54FF480410248FFF7D7FDB6
:1067C00010BD00000004024010B503F0F5F803F01E
:1067D00055F9002010BD0000F0B50B30154D20F02C
:1067E00007010024144A0FE003688B420BD38B424D
:1067F00005D95E1A43184768C3E9006700E043689B
:10680000136002C004E0021D10680028ECD120468D
:10681000002802D1286808B10020F0BD064A0748C8
:106820001060074A121A22F00702C0E90024012072
:106830002860D7E70801002004010020AC2C0020CC
:10684000A83C00202DE9F04FAFB007460C464FF0B2
:10685000000A2078022805D100232246194638462E
:10686000FDF724FE27A93846A268FDF719FA054668
:10687000401CC8B197F83100D0B12078032817D157
:1068800044216846FAF71FFDA27804F1100168461A
:10689000FAF724FD11AA69463846FEF739FF10B110
:1068A0004FF0000A5DE003E007202FB0BDE8F08F55
:1068B000D4F80880002327A93846A26803F078FDA1
:1068C0000020012106232DAACDE9001029463846D3
:1068D000FCF7B4FAA8F108080026B1461CE006F15E
:1068E0002000404502D24FF0200901E0A8EB060944
:1068F0004B46206D083081191FAA3846FCF746F92F
:106900000120009005F1080081194B461FAA384666
:10691000FCF755F982464E444645E0D3012002215A
:1069200006232DAACDE9001029463846FCF786FA41
:10693000F868B5FBF0F0F96800FB01FBA0780146B0
:1069400005F11C000144E0680A185946384603F076
:10695000DAFEA2782B4604F11001384603F098FCC9
:1069600000BF0123224600213846FDF79FFD504617
:106970009BE70000014606480088814203D04FF69D
:10698000FF70814201D1012070470020FCE7000028
:106990000001002010B52DED028B0446B0EE408AB8
:1069A000F0EE608AB4EEE88AF1EE10FA31DDF0EE36
:1069B000680AB0EE480A2046FDF7DAF91648007872
:1069C000012826D115480078022822D21449134AFA
:1069D000127801EB820003222146FAF77FFC0020A7
:1069E0000F490E4A127801EB8201C8700D480B491D
:1069F000097800EB810080ED008A0B48074909788F
:106A000000EB8100C0ED008A04480078401C034977
:106A10000870BDEC028B10BDCC000020DF00002010
:106A2000E0000020E8000020F000002010B516482B
:106A3000007820B15020FDF7BBFDFBF711FB134898
:106A4000007800B30020114908701420FDF7B0FD54
:106A5000FFF712F901F092F80A20FBF7CBFD0020B6
:106A600001F0A2F800224FF44021012001F0B4F817
:106A7000FBF768FEFBF74EFF05A001F0E9FFFFF70B
:106A8000FBF801F07BF810BDDC000020FC000020CA
:106A9000696E737472756D656E742077616B657560
:106AA000700D0A0070B52DED048B84B000242AE02F
:106AB0001A4800EB840090ED000A10EE101A084608
:106AC000FAF755FD41EC180B154800EB840090EDEA
:106AD000000A10EE101A0846FAF749FD41EC190BAE
