:020000040800F2
:10800000180F0020C1810008C58A00087388000885
:10801000C18A00086D880008A190000800000000D7
:10802000000000000000000000000000C58D0008F6
:108030007188000800000000ED8C0008258E000803
:10804000DB810008DB810008DB810008DB810008A0
:10805000DB810008DB810008DB810008DB81000890
:10806000DB810008DB810008DB810008DB81000880
:10807000DB810008DB810008DB810008DB81000870
:10808000DB810008DB810008DB810008DB81000860
:10809000DB810008DB810008DB810008DB81000850
:1080A000DB810008DB810008DB810008DB81000840
:1080B000DB810008DB810008DB810008DB81000830
:1080C000DB810008DB810008DB810008DB81000820
:1080D000DB810008DB810008658F0008DB81000878
:1080E000DB810008DB810008DB810008DB81000800
:1080F000DB810008DB810008DB810008DB810008F0
:10810000DB810008BD8D0008DB810008DB810008F1
:10811000DB810008DB810008DB810008018F00089B
:10812000DB810008DB810008DB810008DB810008BF
:10813000DB810008DB810008DB810008DB810008AF
:10814000DB810008DB810008DB810008DB8100089F
:10815000DB810008DB810008DB810008DB8100088F
:10816000DB810008DB810008DB810008DB8100087F
:10817000DB810008DB810008DB81000800000000D3
:10818000DB810008DB810008DB810008DB8100085F
:10819000DB810008DB810008DB81000800000000B3
:1081A000DB810008DB810008DB810008DFF80CD0F0
:1081B00000F0FEFA00480047A1C30008180F002095
:1081C0000648804706480047FEE7FEE7FEE7FEE771
:1081D000FEE7FEE7FEE7FEE7FEE7FEE72D8E00087E
:1081E000AD81000840EA01039B0703D009E008C9FC
:1081F000121F08C0042AFAD203E011F8013B00F86C
:10820000013B521EF9D27047D2B201E000F8012BB7
:10821000491EFBD270470022F6E710B513460A4606
:1082200004461946FFF7F0FF204610BD421E12F823
:10823000013F002BFBD111F8013B02F8013B002B61
:10824000F9D17047421C10F8011B0029FBD1801A9C
:10825000704710B5002200E0521C835C8C5CA34286
:1082600001D1002BF8D1D8B2E1B2401A10BD2DE9EE
:10827000FE4F804681EA0300C00F0C46009021F0BB
:10828000004123F00045B8EB0200A94105D2404669
:10829000214690461C460B46024623F00040104300
:1082A00047D0270DC7F30A00C3F30A510290401AC2
:1082B000019040286BDAC3F3130040F4801B009850
:1082C000924620B10023D2EB030A63EB0B0B01981B
:1082D0005946C0F14002504600F0ABF906460D4643
:1082E00050465946019A00F0C3F910EB080061416D
:1082F000002487EA115284EAE7731A4340D0009AB7
:1083000062B3019A012A4FEA075215DC001B61EBA8
:1083100002014FF0004202EA0752CDE90042001C80
:1083200041F5801132462B4600F0C3F903B0BDE899
:10833000F08F40462146F9E7001B61EB0201001C6B
:1083400041F5801300185B412018A2F5001747EB98
:10835000030140EAD570B6196D4111E06D084FEA8E
:10836000360645EAC0754FEA0752001B61EB020171
:10837000001C41F5801149084FEA300000195141B5
:1083800032462B4603B0BDE8F04F00F083B90098A9
:10839000012240000023D0EB020263EBE07300985F
:1083A00021464FEAE074B8EB000061EB0401E9E715
:1083B00083F000435BE781F0004158E72DE9FE4F71
:1083C00081EA030404F0004421F0004100944FF0DE
:1083D000000B23F0004350EA01045ED052EA03048C
:1083E0005BD0C3F30A54C1F30A552C44A4F2F3340E
:1083F0000194A0FB0254C1F3130141F48011C3F3B3
:10840000130343F4801301FB024400FB034E840A70
:10841000970A44EA815447EA8357A4FB0768029508
:108420008D0A05FB07854FEA932C04FB0C542705A6
:10843000029D4FEA065847EA1637B5EB08056EEB82
:10844000070C870E920E47EA811742EA8312A7FBB8
:108450000201B6EB0B0164EB00042B0D43EA0C3375
:108460005E1844EB1C50DA465146E7FB0201C5F3A7
:1084700013044FEA0B3343EA14534FEA0432019CCE
:1084800043EA0603A4F10C040294009CCDE900B475
:1084900000F00FF903B0BDE8F08F00200146F9E7C6
:1084A0002DE9F04D81EA030404F0004B21F0004572
:1084B00014464FF0000A23F0004150EA050220D094
:1084C00054EA01021DD0C5F30A570246C5F313034F
:1084D000C1F31300C1F30A5640F4801543F480132E
:1084E000A7EB0608101BD64608F2FD3873EB050013
:1084F00002D308F1010801E092185B41B8F1000FC6
:1085000003DA00200146BDE8F08D00204FF4801111
:10851000064684460EE0171B73EB050705D3121BB6
:1085200063EB050306434CEA010C49084FEA3000AF
:1085300092185B4150EA0107EDD152EA030012D0D4
:1085400082EA040083EA0501084305D0101BAB4111
:1085500006D20122002306E000224FF0004302E091
:108560006FF0010253101AEB06004CEB085110EBB0
:108570000A0041EB0B01BDE8F04D00F08BB800F0B4
:10858000004230F000400AD0C10D01F56071C0F327
:10859000160042EA0151C20840071143704700200B
:1085A0000146704730B50B460146002020220124C9
:1085B00009E021FA02F59D4205D303FA02F5491BB1
:1085C00004FA02F52844151EA2F10102F1DC30BDC7
:1085D0002DE9F05F0546002092469B4688460646F8
:1085E000814640241BE0284641464746224600F08B
:1085F0002FF853465A46C01A914110D311461846D7
:10860000224600F016F82D1A67EB01084F46224665
:108610000120002100F00DF817EB00094E41201E4B
:10862000A4F10104DFDC484631462A464346BDE852
:10863000F09F202A04DB203A00FA02F10020704764
:108640009140C2F1200320FA03F319439040704790
:10865000202A04DB203A21FA02F00021704721FA97
:1086600002F3D040C2F120029140084319467047FE
:10867000202A06DBCB17203A41FA02F043EAE073E6
:1086800006E041FA02F3D040C2F1200291400843D3
:108690001946704710B5141E73F1000408DA401C27
:1086A00041F1000192185B411A4301D120F0010011
:1086B00010BD2DE9F04D92469B4611B1B1FA81F201
:1086C00002E0B0FA80F220329046FFF7B2FF044693
:1086D0000F4640EA0A0041EA0B0153465A46084356
:1086E00013D0114653EA010019D0C8F14002504698
:1086F000FFF7AEFF05460E46504659464246FFF785
:1087000098FF084305D0012004E020463946BDE823
:10871000F08D0020054346EAE0762C4337430A9863
:108720006305E40AA0EB08000022FD0A44EA47546E
:108730000A3002D500200146E9E701051019694118
:10874000DDE9084500196941BDE8F04DA2E7C1F334
:108750000A52C1F3130140F2FF3341F480119A42EF
:1087600002DA00200146704740F233439A42A2F2F7
:10877000334202DC5242FFF76BBFFFF75ABF0000E3
:1087800030B5041E71F1000404DB4FF00044404298
:1087900064EB0101141E73F1000405DB1C464FF06D
:1087A0000043524263EB0403994208BF904230BD3C
:1087B000064C074D06E0E06840F0010394E807002E
:1087C00098471034AC42F6D3FFF7F4FC34F90008B4
:1087D00054F9000810B501F078F90122022113487C
:1087E00001F020FA0021114801F064F9012211463C
:1087F0000E4801F023F903230A2200210B4801F05F
:10880000A9F900220121094801F08CF90122114641
:10881000064801F06DF9054801F061F9012001F009
:1088200067FE024801F0F5F810BD0000002001408D
:1088300010B540F6024004F02DFA41F2081004F0A1
:1088400029FA012300220321064803F09BFB4FF481
:10885000403001F01DF9FFF7BDFF0121024801F092
:10886000CFF910BD000802400020014000BFFEE724
:10887000704700BFFEE7000010B54FF400730122FF
:108880001146124803F07EFB4FF4007302220121CF
:108890000E4803F09EFB4FF400710C4803F02DFBD3
:1088A0004FF48071094803F028FB00F071F84FF491
:1088B0000071064803F01FFB00F06AF84FF4807166
:1088C000024803F018FB00F063F810BD00040240FA
:1088D00010B54FF40073012211460E4803F052FB0D
:1088E0004FF40073022201210A4803F072FB4FF497
:1088F0000071084803F0FFFA4FF48071054803F057
:10890000FCFA00F045F84FF40071024803F0F5FA64
:1089100010BD00000004024010B54FF400711B4868
:1089200003F0EBFA00F034F84FF48071174803F0CD
:10893000E4FA00F02DF84FF40073012200211348EF
:1089400003F020FB05E0601CC4B2FE2C01DDFFF744
:10895000BFFF4FF400710D4803F00CFB0028F2D16B
:108960004FF48071094803F0C6FA00F011F84FF493
:10897000007301221146054803F004FB4FF4007315
:1089800002220121014803F024FB10BD0004024033
:10899000782000BF011EA0F1010290B2FAD1704709
:1089A00002460748805C084040B1012904D00448D1
:1089B000805C8843024B9854012070470020FCE7FC
:1089C00008000020F8B5002439E01E4850F82410B3
:1089D0001D4803F0CFFA05461A4850F824101A48EB
:1089E00003F0C8FA0646B54202D10DB9012000E0F5
:1089F00000200DF804001DF804001449095D8842A8
:108A000009D11348005D022808DA1148005D401CB6
:108A10000F49085502E000200D4908550C48005D3B
:108A2000022806DB1DF804000A49085502200849FF
:108A300008551DF8040005490855601CC4B2042CF3
:108A4000C3DBF8BDF4F80008001002401800002055
:108A50001C0000200400002001460148405C7047D3
:108A60000400002010B540F6044004F013F948F665
:108A7000802301220021024803F084FA10BD000087
:108A80000010024010B5FFF79DFF03F0D1FA10BDB2
:108A900010B540F6014004F0FDF8502300220121FA
:108AA000064803F06FFA502302220021034803F026
:108AB00090FA5021014803F01EFA10BD0004024054
:108AC00000BFFEE77047000010B5002807DA0A076C
:108AD000140E054A00F00F031B1FD45403E00A07CD
:108AE000130E024A135410BD18ED00E000E400E03C
:108AF00070B500240CE0002506E00020074901EBDA
:108B000085010855681CC5B2802DF6DB601CC4B217
:108B1000042CF0DB00F0A8F870BD0000BC000020C1
:108B200010B540F6014004F0B5F84FF4807301220F
:108B300011464C4803F026FA4FF4807302220121BB
:108B4000484803F046FA4FF48071464803F0D5F9DF
:108B50004FF4007301221146424803F013FA4FF418
:108B60000073022201213F4803F033FA4FF40071F1
:108B70003C4803F0C2F94FF4FA7001F0B9FC00214F
:108B8000AE2000F097F80021084600F093F800218D
:108B9000102000F08FF80021402000F08BF8002119
:108BA000812000F087F80021CF2000F083F8002119
:108BB000A12000F07FF80021C82000F07BF8002100
:108BC000A62000F077F80021A82000F073F800211B
:108BD0001F2000F06FF80021D32000F06BF8002177
:108BE000084600F067F80021D52000F063F8002166
:108BF000802000F05FF80021D92000F05BF8002110
:108C0000F12000F057F80021DA2000F053F800219D
:108C1000084600F04FF80021DB2000F04BF800215F
:108C2000402000F047F80021202000F043F8002108
:108C3000022000F03FF800218D2000F03BF80021D9
:108C4000142000F037F80021A42000F033F80021B0
:108C5000A62000F02FF80021AF2000F02BF8FFF73E
:108C600047FF10BD0004024070B500241CE004F171
:108C7000B001C8B2002100F01DF80021084600F044
:108C800019F80021102000F015F8002508E0084927
:108C900001EB8501085D012100F00CF8681CC5B2EC
:108CA000802DF4DB601CC4B2042CE0DB70BD00003E
:108CB000BC00002070B505460C46FFF7DDFD7820AE
:108CC00000F082F8FFF728FE1CB1402000F07CF88D
:108CD00002E0002000F078F8FFF71EFE284600F0C2
:108CE00073F8FFF719FEFFF7F3FD70BD7047000042
:108CF0002DE9FC41002500260027002441F21C003C
:108D000003F0C8FF03F044FC2948006884B24FF424
:108D1000E05003F0FFFE4FF4E05003F00DFFB8B950
:108D20004FF4E85003F0F6FE4FF4E85003F004FF70
:108D300010B90120BDE8FC814FF4007003F0E0FFA2
:108D400040F23F16632547F251001949086009E0D7
:108D50004FF4807003F0D4FFFF267F2547F25000C8
:108D60001349086041F60F4003F094FF04F014F932
:108D700010480068C0F3012747F25000844202D037
:108D8000401C844200D187B90B48058146810020F0
:108D9000094908613220002101231A46CDE900105B
:108DA000194640F2E97004F071F90020C2E70000B2
:108DB0005028004070380240FC02002010B504F03A
:108DC000A3FF10BD7047000070B50446002524E0E5
:108DD0004FF48071124803F08EF804F0800028B13F
:108DE0004FF400710E4803F088F804E04FF400716E
:108DF0000B4803F080F8FFF7CBFD4FF48071084873
:108E000003F07BF8FFF7C4FD4FF48071044803F0D2
:108E100072F86006040E681CC5B2082DD8DB70BD60
:108E20000004024010B501F06DFB10BD08B53048DC
:108E3000006840F470002E4908602E48006840F039
:108E400001002C49086000BF2A48006800F00200B9
:108E50000028F9D000BF27480830006840F08000A3
:108E60002449083108600020009002E00098401C6E
:108E7000009000985028F9D31E480830006840F050
:108E800090001C49083108600020009002E0009822
:108E9000401C009000985028F9D300BF15480830B6
:108EA000006820F003001349083108601148006889
:108EB000114908400F4908600846006820F48020E6
:108EC000086000200B490831086000BF09480830DD
:108ED000006800200028F9D108480649091D0860EB
:108EE000002004490C31086006F0E8F808BD0000D5
:108EF00088ED00E000380240FFFFF6FE103000244D
:108F000010B501210C4806F06AFB012812D10B486C
:108F10000068401C09490860084600680521B0FB4C
:108F2000F1F201FB120008B9FFF7ACFD0121024884
:108F300006F052FB10BD000000140040700000203D
:108F400010B580210448FFF766F900200349088026
:108F50000349087010BD000040030020620000209B
:108F60006400002010B51649164806F069FC30B3BD
:108F7000144806F0BFFB144908701149114806F067
:108F800052FC114800780A280ED0104800887F282B
:108F900015DA0D4801780D4802880088401C0B4BFB
:108FA00018800B4881540AE000210948074A1288BA
:108FB000815401200749087000200349087010BD42
:108FC000050305000044004060000020620000200E
:108FD000400300206400002010B54FF4406003F00F
:108FE00059FE41F2110003F055FE02230022012137
:108FF000284802F0C7FF02231A460021254802F044
:10900000E8FF0221234802F076FF04230122022117
:10901000204802F0B7FF042207211E4802F03CFF5F
:109020000823012202211B4802F0ACFF082207217D
:10903000184802F031FF184806F066FB4FF4E131A2
:10904000154806F0E3FA0021134806F035FC00212C
:10905000114806F021FC00210F4806F00DFC082104
:109060000D4806F021FC04210B4806F00DFC0022FF
:109070000221262003F020FA40F20531064806F0CE
:10908000C5FB054806F0AEFBFFF75AFF0020034979
:10909000087010BD00000240004400406000002045
:1090A00000BFFEE70FB41CB50246002007AC002944
:1090B0000BD0491ECDE90021054B6A462146069892
:1090C00000F000F9009A002111701CBC5DF814FB3F
:1090D000F39900080FB4084B10B504A902AA03982D
:1090E00000F0F0F8044602A9002000F08DFC2046B4
:1090F00010BC5DF814FB0000099A000837B514464F
:109100000846064B6A46214600F0DCF804466946EC
:10911000002000F079FC20463EBD0000099A0008BE
:1091200002E008C8121F08C1002AFAD17047704730
:10913000002001E001C1121F002AFBD1704700008E
:109140002DE9FF5F82B00021DDE90430020DDDF87A
:1091500040B0034318D044F61050A2F2FF3242430D
:109160001514119801281FD0A5EB0B00401C5FEAD5
:10917000000A4FF000064E4FDFF83891B0465046D7
:1091800015D5CAF1000413E0119801244AA301285F
:1091900001D16FEA0B010298119AC0E90031C0E9D0
:1091A000024206B0BDE8F09FCBF10000DFE70446C5
:1091B0000021404A491842EB0450CDE9001012E06A
:1091C000E00707D032463B4640464946FFF7F6F8EF
:1091D0008046894632463B4610461946FFF7EEF870
:1091E00006460F466410002CEAD1DDE90401DDE9F2
:1091F0000023BAF1000F06DAFFF7E0F842464B46CB
:10920000FFF7DCF805E0FFF74BF942464B46FFF766
:1092100047F904460E460022284BFFF7B1FA03D85F
:109220004FF0FF30014607E00022254B2046314633
:10923000FFF71DF8FFF78BFA102409E0002C0ADB7A
:109240000A220023FFF7C4F9039B30321A55641E2B
:1092500050EA0102F2D1641C039AC4F111031444D0
:10926000119A012A03D0012208430DD10AE00843D4
:1092700004D000204FF0110B119072E7A3EB0B0507
:109280006D1E0DE05B4504DD4FF0000205F10105A8
:1092900004E003DA4FF00002A5F10105002AECD04A
:1092A00002981199C0E90231C0E9004579E7000050
:1092B000000014400000F03F300000000000F043C8
:1092C0000000E03F2DE9FF4F95B09B4689460646DA
:1092D00000250FE2252877D100242746F84A0121EE
:1092E000059400E0044316F8013F203B01FA03F027
:1092F0001042F7D130782A2811D06FF02F03307840
:10930000A0F13002092A16D8059A44F0020402EBB3
:10931000820203EB42021044761C0590EFE759F8F5
:10932000042B0592002A03DA504244F400540590BD
:1093300044F00204761C30782E2816D116F8010F5E
:1093400044F004042A280DD06FF02F023078A0F1E9
:109350003003092B09D807EB870302EB4303C71837
:10936000761CF3E759F8047B761C30786C280FD014
:1093700006DC4C2817D068280DD06A2814D104E0E8
:10938000742810D07A280FD10DE044F400140AE0BC
:1093900044F4801401E044F440147278824202D113
:1093A00004F58014761C761C307866280BD013DC0C
:1093B000582877D009DC002875D04528F6D04628F3
:1093C000F4D047281AD19DE118E0632835D06428ED
:1093D00079D0652812D195E1702873D008DC672810
:1093E000F1D069286FD06E280DD06F2806D1B5E076
:1093F00073282CD0752875D0782874D05A461799C0
:1094000090476D1C75E1C4F30250022809D003286F
:109410000DD0D9F8001004280DD00D6009F1040911
:1094200067E1D9F80010EA17C1E90052F6E7D9F868
:1094300000100D80F2E70D70F0E719F8041B8DF8AD
:10944000001000208DF80100EA46012003E059F8E1
:1094500004AB4FF0FF3061074FF0000102D40DE084
:1094600008F101018846B9420FDA8045F8DB1AF8A5
:1094700008100029F4D108E008F101018846814272
:10948000FADB1AF808100029F6D105985B46A0EB24
:10949000080721463846179A00F094FA284400EB52
:1094A000080507E04DE029E10DE01AF8010B5A46E6
:1094B00017999047B8F10108F7D25B462146384624
:1094C000179A13E142E00A220092C4F302524FF0CD
:1094D000000A022A08D059F804CB032A4FEAEC719B
:1094E0000AD00DE029E02AE009F1070121F0070286
:1094F000F2E802C1914609E00FFA8CFC4FEAEC71E8
:10950000042A03D14FFA8CFC4FEAEC71002907DAE8
:109510000A460021DCF1000C61EB02012D2202E081
:10952000220504D52B228DF80420012203E0E20756
:1095300001D02022F7E7904659E00A2102E01022EC
:109540000DE010214FF0000A00910BE010224FF0C7
:10955000000A44F004040827009203E008224FF0B8
:10956000000A0092C4F30252022A05D059F804CB33
:109570000021032A08D009E009F1070121F00702C0
:10958000F2E802C1914605E01FFA8CFC042A01D1E1
:109590000CF0FF0C4FF00008220728D5702806D0E9
:1095A000009B83F0100353EA0A0305D00EE040222B
:1095B0008DF80420012208E05CEA010206D0302286
:1095C0008DF804208DF8050002229046009B83F060
:1095D000080353EA0A030AD15CEA010201D16207D7
:1095E00005D530228DF804204FF001087F1E582841
:1095F00004D034A003900EA802900DE036A0F9E745
:1096000053466046009AFEF7E3FF84460398825C67
:109610000298401E029002705CEA0100F0D10298AC
:1096200006A9081A00F1200A600702D524F4803444
:1096300000E00127574502DDA7EB0A0000E000200B
:1096400000EB0A01009005984144401A0590E003A0
:1096500006D45B462146179A059800F0B3F90544F5
:10966000002706E001A85A46C05D179990476D1C77
:109670007F1C4745F6DBE0030CD55B462146179A75
:10968000059800F09FF9054404E030205A461799E8
:1096900090476D1C0099481E00900029F5DC08E0F9
:1096A000029802995A460078491C029117999047EE
:1096B0006D1CBAF10001AAF1010AF1DC65E10000BC
:1096C0000928010030313233343536373839616298
:1096D000636465660000000030313233343536375C
:1096E00038394142434445460000000000F058F933
:1096F0000544761C307800287FF4ECAD19B028467C
:10970000BDE8F08F620700D4062709F1070222F0B6
:10971000070CFCE80223E14603F000485FEA080C6E
:1097200002D00FF2702C0DE05FEA045C02D50FF25C
:10973000682C07E05FEAC47C02D00FF2602C01E0E5
:10974000AFF2700C4FF0FF3823F00043CDF850C05B
:1097500065280CD006DC452809D046281DD04728AE
:109760003DD13DE0662818D067287ED138E0002141
:10977000112F01DB112000E0781CCDE9000106A9C2
:109780000EA8FFF7DDFCDDE90F010E9A0391002121
:10979000009207F1010A04914DE04FF0004000975C
:1097A000CDE9011006A90EA8FFF7CAFCDDE90F02FA
:1097B00003920E9B11990022DDF80CA000930492F5
:1097C00011B9791C00EB010AB7EB0A0004D4C0F10F
:1097D000FF3007F1010A0490AAEB0700019044E072
:1097E000012F00DA01270021112F01DD112000E0F7
:1097F0003846CDE9000106A90EA8FFF7A1FCDDE976
:109800000F010E9A0391002104910092BA4621079C
:109810000CD40399514500DA8A46BAF1010F05DDEF
:10982000009AAAF10101515C302908D0B84202DA4D
:1098300010F1040F06DA0121CDE9011015E0AAF1BB
:109840000101E9E7002805DC049901440491AAEB31
:10985000000102E0411C514500DD8A460499401A8E
:10986000401C01904FF000400290200704D4019862
:10987000504501DBCDF8048000208DF84F000298A0
:109880000DF14F07B0F1004F25D02B200E9002981C
:109890004FF0020800280CDA404202902D200E9072
:1098A00007E00A210298FEF77DFE3031029007F8AA
:1098B000011DB8F10001A8F10108F2DC02980028AE
:1098C000EFD1791E0E980870307800F0200040F03B
:1098D000450007F8020D12A8C01B00F107081498F4
:1098E000007800B1012000EB0A01019801EBE07162
:1098F00005984144401A401E0590E00306D45B469B
:109900002146179A059800F05DF8054414980078F0
:1099100018B15A46179990476D1CE00324D55B4651
:109920002146179A059800F04DF805441CE004986C
:10993000002807DBDDE90301884203DD0098405C75
:10994000179901E0179930205A469047049805F17D
:109950000105401C04900198401E019004D12E2066
:109960005A46179990476D1CBAF10001AAF1010AF5
:10997000DDDC05E017F8010B5A46179990476D1C7E
:10998000B8F10001A8F10108F4DC5B462146179A02
:109990000598ABE62D0000002B0000002000000021
:1099A0002DE9F041044600251E461746880404D4DC
:1099B00005E039462020B0476D1C641EF9D52846C5
:1099C000BDE8F0812DE9F041044600251E46904691
:1099D000C80301D5302700E02027880404D505E01E
:1099E00041463846B0476D1C641EF9D52846BDE88F
:1099F000F0814A68002A06D00A68531C0B60107078
:109A00004868401E486070470A68531C0B6010701D
:109A10007047816841F00801816000BF816801F0F2
:109A200008010029FAD1816841F00401816000BF7A
:109A3000816801F004010029FAD1704730B501298D
:109A400002D0022920D10FE06AB1102A0BD8C36AD4
:109A500023F47003C362C36A541E4FF4700505EA11
:109A600004542343C36210E06AB1042A0BD8836B09
:109A700023F440138363836B541E4FF4401505EAAF
:109A800004542343836300E000BF00BF30BD0000E7
:109A90000649096821F4E021054AC2F80413114679
:109AA000D1F804130143C2F80413704704230140A2
:109AB0000020014021B1826842F40062826003E02C
:109AC000826822F400628260704710B540F6081088
:109AD00003F004F940F6081003F0EEF810BD8168B9
:109AE00001F0010119B9816841F0010181607047FD
:109AF000012902D0022912D108E0836823F04053E3
:109B00008360836843EA0273836009E0836823F417
:109B100040138360836843EA0253836000E000BF20
:109B200000BF7047012902D0022910D107E08368E5
:109B300023F07063836083681343836008E0836865
:109B400023F47023836083681343836000E000BFC5
:109B500000BF7047F0B51D4606290CDA436B01EBD8
:109B600081071F26BE40B34301EB810602FA06F6C9
:109B70003343436322E00C290EDA036B8E1F06EB9E
:109B800086071F26BE40B3438E1F06EB860602FAE9
:109B900006F63343036311E010290FDAC36AA1F11B
:109BA0000C0606EB86071F26BE40B343A1F10C0648
:109BB00006EB860602FA06F63343C3620A2A0CDA7B
:109BC000046902EB42070726BE40B44302EB42069B
:109BD00005FA06F63443046111E0122A0FDCC4686A
:109BE000A2F10A0606EB46070726BE40B443A2F1DF
:109BF0000A0606EB460605FA06F63443C460F0BDD5
:109C0000012902D002290AD104E0826842F0804290
:109C1000826005E0826842F48002826000E000BF5A
:109C200000BF7047AAB101F480731BB1436843F4CD
:109C30008073436001F480631BB1436843F4806325
:109C4000436001F00203CBB1836843F002038360F9
:109C500014E001F480731BB1436823F48073436004
:109C600001F480631BB1436823F48063436001F017
:109C700002031BB1836823F002038360704710B5B1
:109C800002F032FB72B600204FF0E02108614FF085
:109C90000061086880F3088800BF08464468A04750
:109CA00010BD000070B504460D46607801232A46B9
:109CB00004F1300100F087FE08B1032070BD94F874
:109CC0002E1294F82F0241EA00204AF655218842CC
:109CD00001D00220F2E794F86900010694F86800C8
:109CE00041EA004194F8670041EA002094F86610C8
:109CF000084320F07F400E49884201D10020DDE773
:109D000094F88500010694F8840041EA004194F833
:109D1000830041EA002094F88210084320F07F403D
:109D20000349884201D10020C8E70120C6E70000AE
:109D300046415400024600E0521C107810B11078E1
:109D40008842F9D1107870472DE9F74F88B008980C
:109D5000006801900198007830380790079809282A
:109D60000AD8019840783A2806D10198801C0190C1
:109D700008990198086001E000200790079818B141
:109D80000B200BB0BDE8F08FD049079851F8204068
:109D9000099804600CB90C20F3E7207878B160785A
:109DA00000F039FE804608F0010040B90A9820B161
:109DB00008F0040008B10A20E3E70020E1E70020F2
:109DC000207007986070607800F0B7FD804608F05A
:109DD000010008B10320D4E70A9820B108F004007C
:109DE00008B10A20CDE74FF0000B59462046FFF797
:109DF00059FF054600BF012D21D14FF0000ABAF1ED
:109E0000000F03D0AAF1010000F0FF0A4FF4DF7049
:109E100000EB0A1104F130000F18387978B1F87AA4
:109E20000106B87A41EA0041787A41EA0020397A9D
:109E300040EA010B59462046FFF734FF0546032D43
:109E400001D101209DE70DB10D209AE73B20015D76
:109E500094F83C0041EA0020B0F5007F01D00D20CD
:109E60008FE74620015D94F8470041EA0029B9F1E7
:109E7000000F0ED194F85700010694F8560041EAFD
:109E8000004194F8550041EA002094F8541040EA4B
:109E90000109C4F81C904020065DE670012E03D035
:109EA000022E01D00D206CE709FB06F93D20005D74
:109EB0000646A07016B1701E304008B10D2060E754
:109EC0004120015D94F8420041EA00202081207A7F
:109ED00000F00F0008B10D2053E74320015D94F816
:109EE000440041EA00200690069870B994F85300A7
:109EF000010694F8520041EA004194F8510041EA09
:109F0000002094F85010084306903E20015D94F81C
:109F10003F0041EA00200290029808B90D2030E786
:109F200002984844218900EB11100590DDE90501F4
:109F3000814201D20D2024E7DDE90510401AA17805
:109F4000B0FBF1F00490049808B90D2019E7012541
:109F500040F6F6710498884200D302254FF6F67158
:109F60000498884200D303250498801CA0610598BA
:109F70005844A062029858442062032D16D12089CB
:109F800008B10D20FDE694F85F00010694F85E002C
:109F900041EA004194F85D0041EA002094F85C1029
:109FA00008436062A0698000039014E0208908B92A
:109FB0000D20E6E6206A48446062022D02D1A069C5
:109FC000400007E0207E00F00100A16901EB4101A3
:109FD00000EB51000390E169039800F2FF10B1EB30
:109FE000502F01D20D20CCE64FF0FF302061002031
:109FF000E060032D5CD1607194F8601094F861000A
:10A0000041EA0020584460616078012304F1300186
:10A01000626900F0D8FCE8BB94F82E1294F82F0285
:10A0200041EA00204AF65521884241D13320005DA3
:10A0300001063220005D41EA00413120005D41EA25
:10A04000002094F8301008432149884230D194F818
:10A050001702010694F8160241EA004194F815022D
:10A0600041EA002094F8141208431A4988421FD18B
:10A0700094F81F02010694F81E0241EA004194F888
:10A080001D0241EA002094F81C120843E06094F895
:10A090001B0200E00CE0010694F81A0241EA0041BC
:10A0A00094F8190241EA002094F81812084320613C
:10A0B000257009480088401C80B207490880E0806C
:10A0C0000020E062207100BF5BE600006800002015
:10A0D00052526141727241616C0000200246891E39
:10A0E0009069801E884201D8002070479378906A5A
:10A0F00001FB0300F9E7000070B51D25084C00E0E6
:10A10000641E802004F0E2FB08B9002CF8D114B9D9
:10A110001325284670BD034804F0D2FB2846F9E712
:10A12000A0860100FF07C000F0B503460A4610787C
:10A1300020F04000401E00EB800101EBC00500262E
:10A14000012400BF1748805D105C1649895D1144E9
:10A15000497840EA01277CB1384601F0B7FA044655
:10A16000FF2D07D229466D1C33F8110001F0AEFA1D
:10A17000A04207D00020F0BD4FF6FF70874201D00B
:10A180000020F8E7701C06460D28DBD3107800F09D
:10A19000400028B124B133F8150008B10020EAE7E7
:10A1A0000120E8E704F900082DE9F0470446894654
:10A1B000B9F1000F06D1E76817B1A069B84211D80C
:10A1C00001270FE04946204601F0F2FD0646022E27
:10A1D00002D20120BDE8F087A069B04201D9304623
:10A1E000F8E74F463D4600BF6D1CA069A84204D861
:10A1F0000225BD4201D90020ECE72946204601F0A6
:10A20000D7FD064606B909E0701C08B1012E01D140
:10A210003046DFE7BD42E7D10020DBE700BF6FF04B
:10A2200070422946204602F0BDF98046B8F1000F81
:10A2300008D1B9F1000F05D02A464946204602F060
:10A24000B1F98046B8F1000F09D1E5602069401CE2
:10A2500068B12069401E20610120607107E0B8F1FB
:10A26000010F02D14FF0FF3000E0012005462846E3
:10A27000B0E700002DE9F34F83B0814604980068F1
:10A28000019002E00198401C0190019800782F286D
:10A29000F8D0019800785C28F4D0D9F81CA00025EB
:10A2A0002F4600BF38467F1C01990C5C202C03DB35
:10A2B0002F2C01D05C2C00D138E0FF2D03D30620D9
:10A2C00005B0BDE8F08FE4B2812C02DBE0B29F283C
:10A2D00005DDE0B2E02813DBE0B2FC2810DC3846F4
:10A2E0007F1C01990E5C402E01DB7E2E05DD802E49
:10A2F00001DBFC2E01DD0620E2E706EB042084B240
:10A300000121204601F0E1F904460CB90620D7E707
:10A31000802C06DA214671A0FFF70CFD08B106205B
:10A32000CEE728466D1C2AF81040BBE700BF019815
:10A33000C11904980160202C01DA042000E00020FB
:10A34000804608E0681E3AF81040202C02D02E2CDF
:10A3500000D002E06D1E002DF4D100BF0DB9062023
:10A36000AEE700202AF815000B222021D9F81800AA
:10A3700002F054F8002700E07F1C3AF8170020286C
:10A38000FAD03AF817002E28F6D00FB148F003089B
:10A3900000E06D1E25B1681E3AF810002E28F8D195
:10A3A0000020064602904FF0080B00BF38467F1C85
:10A3B0003AF8104004B963E0202C03D02E2C04D1CD
:10A3C000AF4202D048F00308F0E70298584501D2A6
:10A3D000AF4214D1BBF10B0F02D148F003084FE09C
:10A3E000AF4201D048F00308AF4200D948E02F4601
:10A3F000082002904FF00B0BB006060ED6E7802C1B
:10A4000009DB204601F062F90246002101F05DF906
:10A41000044648F00208FF2C11DDABF1010002995F
:10A42000884204D848F00308CDF808B0BEE72212ED
:10A43000D9F818300298411C02911A5419E024B13D
:10A44000214629A0FFF776FC18B15F2448F00308E5
:10A450000FE0412C04DB5A2C02DC46F0020608E037
:10A46000612C06DB7A2C04DC46F00106A4F1200006
:10A4700084B2D9F818300298411C02911C5495E717
:10A4800000BFD9F818000078E52803D10520D9F8D5
:10A4900018100870BBF1080F01D1B006060E06F0C7
:10A4A0000C000C2803D006F00300032801D148F06B
:10A4B000020808F0020058B906F00300012801D193
:10A4C00048F0100806F00C00042801D148F00808F4
:10A4D000D9F8180080F80B800020F1E6222A3A3CD7
:10A4E0003E3F7C7F000000002B2C3B3D5B5D00006D
:10A4F0000349086000BF024909680029FBD1704781
:10A50000000000200448006820B103480068401E95
:10A510000149086070470000000000202DE9F04765
:10A5200004460021204600F0BAF9074617B1384624
:10A53000BDE8F0874FF0FF09CA4600BF21692068D7
:10A5400001F076FF074607B154E065692E780EB931
:10A5500004274FE0E87A00F03F08E52E05D008F028
:10A56000080028B1B8F10F0F02D04FF0FF093AE010
:10A57000B8F10F0F1CD1E069A0B306F0400030B174
:10A5800095F80DA026F04006B146E08820844E459F
:10A590000AD1687B504507D12946E069FFF7C4FD21
:10A5A00010B1A9F1010000E0FF2000F0FF091AE05E
:10A5B000B9F1000F05D1284604F0FAFB504500D14F
:10A5C00018E04FF0FF094FF6FF702084A069C07AB1
:10A5D00000F0010030B90B222846A16901F0FEFE0F
:10A5E00000B907E0FFE70021204600F006F8074623
:10A5F000002FA3D000BF38469AE72DE9F04104466A
:10A60000884600BFE088401C86B20EB1206910B9B0
:10A610000420BDE8F08106F00F0000286FD120690A
:10A62000401C2061E06828B920680089B04266DCDF
:10A630000420EEE720688078401E00EA161000280B
:10A640005DD1E168206801F0B3FB0546012D01D81A
:10A650000220DEE7681C08B90120DAE7206880697B
:10A66000A84246D8B8F1000F01D10420D1E7E16833
:10A670002068FFF799FD05460DB90720C9E7012DB0
:10A6800001D10220C5E7681C08B90120C1E70021FB
:10A69000206801F0CDFE08B10120BAE7216801F180
:10A6A00030004FF40072002101F0B8FE2946206806
:10A6B000FFF714FD2168C862002710E0012021681F
:10A6C00008710021206801F0B3FE08B10120A0E765
:10A6D0002068C06A401C2168C862781CC7B2206824
:10A6E0008078B842EADC2068C06AC01B2168C86272
:10A6F00000BFE56029462068FFF7F0FC2061E68096
:10A700002068303006F00F0100EB4110606100203E
:10A710007FE72DE9F04F85B00446D4F81880D4F8CF
:10A720001CB00C22414601A801F06BFE00BF9DF851
:10A730000F0000F0010030B3002088F80B00E0614A
:10A7400001270DE03B465A4601A9404601F0CBFAED
:10A750002046FFF7E3FE054605B103E0781C87B20B
:10A76000642FEFDB00BF642F03D1072005B0BDE8E5
:10A77000F08F042D01D02846F8E79DF80F0088F8E7
:10A780000B00C4F81CB09DF80F0000F0020070B17F
:10A79000002601E0701C86B23BF816000028F9D1B3
:10A7A00006F119000D2190FBF1F086B200E00126C0
:10A7B0000021204600F073F805460DB12846D5E784
:10A7C00000200746049000BF2169206801F030FE98
:10A7D000054605B119E0606990F80090B9F1E50F00
:10A7E00002D0B9F1000F08D10FB9E0880490781CAD
:10A7F00080B20746B04201D107E000270121204680
:10A80000FFF7FBFE0546002DDED000BF4DBB012E3D
:10A8100027DD2046049900F042F805460DBBA069EB
:10A8200004F0C6FA0090701E86B200BF216920684D
:10A8300001F0FEFD054605B112E0F2B26169E06982
:10A84000009B01F0C1F90120216808710021204618
:10A85000FFF7D3FE05461DB9701E80B2061EE5D176
:10A8600000BFD5B92169206801F0E2FD0546A5B910
:10A87000D4F814A020220021504601F0CFFD0B2275
:10A880005046A16901F0BDFDA069C07A00F0180032
:10A890008AF80C00012021680871284666E72DE936
:10A8A000F04104460E46E680A568012D03D02068DD
:10A8B0008069A84202D80220BDE8F0812DB9206845
:10A8C0000078032801D12068456A65B9E5602068F1
:10A8D0000089B04201DC0220EEE72068406A00EB0C
:10A8E0001610206120E020688078070112E02946D8
:10A8F000206801F05DFA0546681C08B90120DBE715
:10A90000022D03D320688069A84201D80220D3E732
:10A91000F01B86B2BE42EADAE56029462068FFF7FE
:10A92000DDFB00EB161020612068303006F00F01CF
:10A9300000EB411060610020BEE730B593B00546E2
:10A9400000200090002D39D103F0BAF904461D2CE7
:10A9500004D101A802F026FF044602E0012013B052
:10A9600030BD1D2C05D1BDF8480003F009F904469F
:10A9700001E00120F3E7684603F072F9044600980D
:10A9800000F0007008B100BFFEE71D2C05D14FF4A8
:10A99000006002F03FFE044601E00120DFE71D2CCD
:10A9A00004D1002003F0A6FE044601E00120D6E712
:10A9B0001D2C01D10020D2E70120D0E70120CEE7F5
:10A9C0000346002070472DE9F04107460C46154626
:10A9D0001E464FF01C0814B90420BDE8F0810EB9E2
:10A9E0000420FAE787B9012E06D1690272022046D7
:10A9F00002F074FB804607E0690233464FF40072B0
:10AA0000204603F019FA8046B8F11D0F01D100204D
:10AA1000E3E70120E1E7014609B900207047012082
:10AA2000FCE72DE9F04107460C4615461E464FF05F
:10AA30001C0814B90420BDE8F0810EB90420FAE71F
:10AA400087B9012E06D169027202204602F052FC3B
:10AA5000804607E0690233464FF40072204603F057
:10AA600039FB8046B8F11D0F01D10020E3E701203A
:10AA7000E1E710B501EB4102D30000F11002D2581A
:10AA800022F0010301EB4102D40000F11002135146
:10AA900010BD10B501EB4102D30000F11002D258F5
:10AAA00042F0010301EB4102D40000F11002135106
:10AAB00010BD30B5134601EB4104E50000F1100470
:10AAC000625922F0606242EA436201EB4104E50010
:10AAD00000F11004625130BD10B501EB4102D3000A
:10AAE00000F11002D25822F0010301EB4102D40020
:10AAF00000F110021351002301EB4102D40000F1D8
:10AB00001002135101EB4102D40000F11402135161
:10AB100001EB4102D40000F11802135101EB410294
:10AB2000D40000F11C02135101EB4102D40000F1EA
:10AB300020021351212301EB4102D40000F1240231
:10AB4000135104290CDA01EB41025300C1F3400216
:10AB500003EB82033D229A4083681A4382600DE032
:10AB60000A1FD1B201EB41025300C1F3400203EBD3
:10AB700082033D229A40C3681A43C26010BD10B5DB
:10AB800004290CDA01EB41035C00C1F3400304EB40
:10AB9000830302FA03F38468234383600DE00B1FF1
:10ABA000D9B201EB41035C00C1F3400304EB830322
:10ABB00002FA03F3C4682343C36010BD10B5034613
:10ABC00004290FDA01EB41004400C1F3400004EB1B
:10ABD000800402FA04F01C68204008B1012010BD76
:10ABE0000020FCE7081FC1B201EB41004400C1F3A3
:10ABF000400004EB800402FA04F05C68204008B1D5
:10AC00000120ECE70020EAE730B572B901EB41031F
:10AC1000DC0000F110031B5923F0200401EB410379
:10AC2000DD0000F110035C510DE001EB4103DC009D
:10AC300000F110031B5943F0200401EB4103DD0038
:10AC400000F110035C5130BD70B501EB4104E5002B
:10AC500000F124046459156A45F004052C4301EB06
:10AC60004105EE0000F12405AC5101EB4104E60082
:10AC700000F118041568A55101EB4104E60000F14C
:10AC80001C04D568A55101EB4104E60000F1140451
:10AC9000D56AA55101EB4104E50000F110046359A8
:10ACA000414C2340156954682C43156B2C43956A1D
:10ACB0002C4395692C43D5692C43234301EB410474
:10ACC000E50000F110046351946874B901EB41048C
:10ACD000E50000F11004645944F4007501EB4104EF
:10ACE000E60000F11004A5511FE09468012C0ED17C
:10ACF00001EB4104E50000F11004645924F40075EF
:10AD000001EB4104E60000F11004A5510DE001EB58
:10AD10004104E50000F11004645944F4004501EBDE
:10AD20004104E60000F11004A551546974B901EB27
:10AD30004104E50000F11004645944F4806501EB1E
:10AD40004104E60000F11004A5510DE001EB4104BF
:10AD5000E50000F11004645924F4806501EB41041E
:10AD6000E60000F11004A551546A74B901EB4104E6
:10AD7000E50000F11004645944F4807501EB4104CE
:10AD8000E60000F11004A5510DE001EB4104E500DF
:10AD900000F11004645924F4807501EB4104E600CD
:10ADA00000F11004A55170BD3F871CFE30B58DB079
:10ADB00004460D46012203212748FFF7E0FE042246
:10ADC00003212548FFF7DBFE082203212248FFF775
:10ADD000D6FE102203212048FFF7D1FE20220321B6
:10ADE0001D48FFF7CCFE03211B48FFF742FE03215D
:10ADF0001948FFF771FE19480090039400200A904B
:10AE00000B9001200290002005904FF4805001909B
:10AE1000800004904FF440300C904FF400100790E5
:10AE20008000069003200890012009906A460321C3
:10AE30000948FFF709FF012203210748FFF7E4FE55
:10AE4000042203210448FFF734FE03210248FFF7E0
:10AE500020FE0DB030BD000000640240802C014097
:10AE600030B58DB004460D46012203212748FFF777
:10AE700086FE042203212548FFF781FE08220321D4
:10AE80002248FFF77CFE102203212048FFF777FEBF
:10AE9000202203211D48FFF772FE03211B48FFF704
:10AEA000E8FD03211948FFF717FE194800900394A5
:10AEB00040200A9000200B90012002900020059075
:10AEC0004FF480500190800004904FF440300C907B
:10AED0004FF4001007908000069001200990032095
:10AEE00008906A4603210948FFF7AEFE01220321BC
:10AEF0000648FFF789FE042203210448FFF7D9FD25
:10AF000003210248FFF7C5FD0DB030BD00640240CB
:10AF1000802C014070B50446204600F073FA0546C7
:10AF20000DB900202060284670BD2DE9F047044689
:10AF30000E46A188206804F0C7FC8246BAF1000FD3
:10AF400002D05046BDE8F087A07900F0800008B13B
:10AF50000220F7E7E068B04204D2A07900F00200D6
:10AF600000B9E668D4F808904FF00008C4F80880EB
:10AF7000002E77D0206880784702B9F1000F11D0F9
:10AF8000701EB0FBF7F1A9F10100B0FBF7F08142B0
:10AF900008D3A9F10100791E8843A060A068361A81
:10AFA000656918E02569ADB900212068FFF7FCF854
:10AFB0000546012D05D1A07940F08000A071022046
:10AFC000C0E7681C28B9A07940F08000A07101207A
:10AFD000B8E725616561002D44D029E0A07900F033
:10AFE000020038B129462068FFF7DEF8054635B97A
:10AFF0003E461FE02946206800F0DAFE0546681C40
:10B0000028B9A07940F08000A07101209AE7012DB5
:10B0100003D920688069A84205D8A07940F0800053
:10B02000A07102208EE76561A0683844A060F61B1D
:10B03000BE42D3D800BFA0683044A060C6F3080069
:10B0400068B129462068FFF749F88046B8F1000F3B
:10B0500006D1A07940F08000A071022072E701E0E3
:10B0600008EB56282089C0F3080050B3A06940457A
:10B0700027D0A07900F0400090B1216848780123E2
:10B0800004F12401A269FFF7CCFC28B1A07940F0BB
:10B090008000A071012055E7A07920F04000A07148
:10B0A000216848780123424604F12401FFF78BFC14
:10B0B00028B1A07940F08000A071012042E7C4F8D7
:10B0C0001880D4E90201884205D9A068E060A0791F
:10B0D00040F02000A071504634E700002DE9F14710
:10B0E0008DB000F0D7FE0746012204A90DA8FEF797
:10B0F0002BFE0646002E6ED101A80A9058480B90F0
:10B1000004A80D9900F0A0FD064606B9082600BF68
:10B11000042EF0D100210498FFF746F805460026DA
:10B1200005B90726012D00D10226681C00B90126A9
:10B1300026B90021049801F07BF90646002E68D15B
:10B1400029460498FEF7CAFF8246049800F13004AD
:10B150004FF400720021204601F060F90B222021FB
:10B16000204601F05BF92E2020701020E072A775B8
:10B17000390AE175390C2176390E6176A576290AEE
:10B18000E176280C2075290E61752022214604F1F4
:10B19000200001F036F92E2084F82100DDF8188017
:10B1A00004980078032804D10498406A404500D1EF
:10B1B000B04684F83A804FEA182184F83B10C8F36F
:10B1C0000741342001554FEA186184F8351004987E
:10B1D00090F8029019E03FE00498C0F82CA00AF122
:10B1E000010A0120049908710021049801F020F956
:10B1F000064606B10CE04FF400720021204601F033
:10B200000DF9A9F1010000F0FF09B9F1000FE3D138
:10B2100000BF1EB904A8FFF77CFA064626B12946EE
:10B22000049801F079FD17E0099C1020E072A775E1
:10B23000390AE175390C2176390E6176A576290A2D
:10B24000E176280C2075290E61750120049908719A
:10B25000049803F0BDFD064630460EB0BDE8F08709
:10B26000C00300200246012A01DB0B20704707487B
:10B2700050F822300BB10020187009B1002008707E
:10B28000024840F822100020F0E70000680000208B
:10B290002DE9F7438CB0054616460020286006F0DD
:10B2A0001F0626F0010203A90DA8FEF74DFD074673
:10B2B000CDF824D052480A9027B903A80D9900F080
:10B2C000C3FC0746089C0FB904B9062706F01C000A
:10B2D000002858D04FB1042F03D103A8FFF719FA63
:10B2E000074646F00806089C09E0E07A00F01100E5
:10B2F00008B1072703E006F0040000B10827002F7B
:10B3000040D106F0080000283CD000F0C3FD804684
:10B3100084F80E804FEA1821E1734FEA1841217436
:10B320004FEA186161740020E07220770021617794
:10B33000A177E177A17EE07E41EA0021227D607D58
:10B3400042EA002041EA00490020A0760021E1768F
:10B3500020756175012003990871B9F1000F11D0B2
:10B360000398D0F82C804946039801F0D5FC074695
:10B3700047B9A9F101000399C8604146039801F05B
:10B3800057F807460EE06FB9E07A00F0100008B1F8
:10B39000042707E006F0020020B1E07A00F0010087
:10B3A00000B1072747B906F0080008B146F02006AB
:10B3B0000398C06AE8612C62F7B9AE71A17EE07EA5
:10B3C00041EA0021227D607D42EA002041EA0040FE
:10B3D0002861E07F0106A07F41EA0041607F41EAE9
:10B3E0000020217F0843E8600020A860A86103983E
:10B3F00028600398C088A88038460FB0BDE8F08365
:10B40000C00300202DE9F0410446A188206804F023
:10B410005BFA0746002F4FD1A07900F020000028EA
:10B420004AD0A07900F0400078B121684878012323
:10B4300004F12401A269FFF7F4FA10B10120BDE87C
:10B44000F081A07920F04000A071E169206800F04F
:10B45000EFFF0746002F2FD1256AE87A40F0200041
:10B46000E872207B2877A089010A6977E068010CDF
:10B47000A977E068010EE977207CA876208A010A86
:10B48000E9762069000C28752069010E697500F0C5
:10B4900001FD0646AE75310AE975310C2976310E8B
:10B4A0006976A07920F02000A07101202168087140
:10B4B000206803F08DFC07463846C0E72DE9FF4FB2
:10B4C00083B0044615469B46049801900020CBF8B3
:10B4D0000000A188206804F0F7F90290029818B1E2
:10B4E000029807B0BDE8F08FA07900F0800008B1A5
:10B4F0000220F6E7A07900F0020008B90720F0E783
:10B50000E0682844E168884200D20025CDE0208927
:10B51000C0F30800002877D120688078401EA16819
:10B5200000EA512000F0FF0ABAF1000F2AD1A0680A
:10B5300058B9D4F81080B8F1000F0BD10021206861
:10B54000FEF732FE8046206104E061692068FEF764
:10B550002BFE8046B8F1000F00D1A9E0B8F1010F31
:10B5600005D1A07940F08000A0710220B9E708F170
:10B57000010028B9A07940F08000A0710120B0E757
:10B58000C4F81480A07900F0400090B12168487898
:10B59000012304F12401A269FFF743FA28B1A0793D
:10B5A00040F08000A07101209BE7A07920F04000CE
:10B5B000A07161692068FEF791FD06462EB9A07959
:10B5C00040F08000A07102208BE756444FEA5529D5
:10B5D000B9F1000F2FD00AEB090021688978884261
:10B5E00003D920688078A0EB0A0909F0FF032168DD
:10B5F000487832460199FFF714FA30B1A07940F04B
:10B600008000A07101206CE72CE0A069801B4845F8
:10B610000ED2A069801B019A02EB40214FF4007208
:10B6200004F1240000F0EDFEA07920F04000A071AC
:10B630004FEA49272DE0A069B04212D0D4E90201B7
:10B6400088420ED2216848780123324604F1240151
:10B65000FFF7B9F928B1A07940F08000A07101206E
:10B660003FE7A6612089C0F30800C0F50077AF422C
:10B6700000D92F462189C1F3080204F12401501892
:10B680003A46019900F0BDFEA07940F04000A0715B
:10B6900000BF019838440190A0683844A060DBF8EE
:10B6A00000003844CBF80000ED1B002D7FF42FAFD5
:10B6B00000BFD4E90201884201D9A068E060A07906
:10B6C00040F02000A07100200BE77047014661297F
:10B6D00005DB7A2903DCA1F1200080B2704708461F
:10B6E000FCE7014601F00F000A0902EB820200EBC1
:10B6F0004200C0B2704700002DE9F04F87B0044609
:10B700000D46174801F06CFB15490878FFF7E9FF73
:10B71000064613494878FFF7E4FF07461049887842
:10B72000FFF7DFFF80460E490879FFF7DAFF814611
:10B730000B494879FFF7D5FF824609498879FFF719
:10B74000D0FF834606F5FA6006908DE8800F05A2CB
:10B7500029462046069BFDF7A5FC07B0BDE8F08F03
:10B76000FC020020253034752D253032752D253012
:10B77000327520253032753A253032753A2530320F
:10B780007500000000B5A9B0002010490860A02293
:10B790004FF4104101A803F00BF90A220CA1104844
:10B7A000FFF776FD0FA000F0E5F8002201A908A040
:10B7B00000F0B0F80EA000F0DDF813A000F0DAF809
:10B7C0000748FFF7A7FB29B000BD0000B800002024
:10B7D000303A2F6C6F672F6C6F67302E747874005F
:10B7E0008006002073797374656D20696E6974003A
:10B7F00073797374656D2068617264776172652016
:10B80000746573740000000074657374206572724F
:10B810006F723A2074662063617264206E6F7420C8
:10B82000666F756E6400000000B591B0084809A20B
:10B830004021036801A8FDF735FC0A2201A90A4846
:10B84000FFF726FD0848FFF765FB11B000BD0000BB
:10B85000B8000020303A2F6C6F672F6C6F67256C33
:10B86000752E7478740000008006002030B591B009
:10B870000525002400BF0020FFF75FF804461CB137
:10B88000681E80B2051EF6D10E490020FFF7EAFCC3
:10B89000B4B901200C4908700CA0FFF71FFC0EA0E2
:10B8A000FFF71CFC10A0FFF719FC12A0FFF716FC15
:10B8B000124813A24021036801A8FDF7F3FB00BF63
:10B8C00011B030BDA4080020B4000020303A2F731E
:10B8D000616D706C65000000303A2F6F7665724CB8
:10B8E000696D697400000000303A2F68696465442E
:10B8F00061746100303A2F6C6F670000B80000205F
:10B90000303A2F6C6F672F6C6F67256C752E7478CB
:10B91000740000002DE9F84306460F46154635B180
:10B920000A2231461248FFF7B3FC044605E0122212
:10B9300031460F48FFF7ACFC044614B12046BDE881
:10B94000F8831DB90A48C168FFF7EFFA002000909C
:10B950003846FCF777FC80466B4642463946044839
:10B96000FFF7ACFD04460248FFF7D4FA2046E6E7AD
:10B970008006002030B52DED028BC5B004461CB901
:10B9800045B0BDEC028B30BD20213DA8FFF7B4FED1
:10B99000464847A24021036805A8FDF783FB49A15B
:10B9A0002046FCF756FC38B93DAB4CA2A02115A8A7
:10B9B0000094FDF777FB6EE04AA12046FCF749FCB6
:10B9C00078B94E480068FCF7DAFD41EC180B8DEDB4
:10B9D000028B3DAB4AA2A02115A80094FDF762FBA3
:10B9E00059E04BA12046FCF734FC78B94E4800687A
:10B9F000FCF7C5FD41EC180B8DED028B3DAB40A271
:10BA0000A02115A80094FDF74DFB44E047A1204676
:10BA1000FCF71FFC78B94A4800684FF47A71B0FB14
:10BA2000F1F548A03DAB4DA2A021CDE9000515A838
:10BA3000FDF738FB2FE04FA12046FCF70AFC78B950
:10BA40003F4800684FF47A71B0FBF1F53DA03DAB83
:10BA50004DA2A021CDE9000515A8FDF723FB1AE0B2
:10BA600050A12046FCF7F5FB70B9354800684FF44B
:10BA70007A71B0FBF1F53DAB4EA2A02115A8CDE93E
:10BA80000045FDF70FFB06E03DAB14A2A02115A871
:10BA90000094FDF707FB002215A905A8FFF73AFF60
:10BAA0004848FFF737FA00BF6AE70000B8000020F7
:10BAB000303A2F6C6F672F6C6F67256C752E74781A
:10BAC0007400000073797374656D20686172647727
:10BAD0006172652074657374000000002573202571
:10BAE000730D0A00726174696F20636F6E66696717
:10BAF000207375636365737320746F009C0000206E
:10BB0000257320257320252E32660D0A00000000C3
:10BB10006C696D697420636F6E6669672073756305
:10BB20006365737320746F00A000002073616D70F3
:10BB30006C65207374617274202D20630000000016
:10BB40007800002073616D706C652073746172748D
:10BB5000202D206379636C6500000000257320258B
:10BB60007320256C75732028636F6D6D616E642979
:10BB70000D0A000073616D706C65207374617274DE
:10BB8000202D207000000000257320257320256CD7
:10BB9000757320286B6579207072657373290D0A9F
:10BBA000000000006379636C6520737769746368D3
:10BBB00020746F00257320257320256C75730D0A82
:10BBC0000000000080060020F0B504461D464D73BD
:10BBD0000F27CF7200270F738F76BC4681F81BC0EA
:10BBE000571E07EB870C0CEBC706002738463B4671
:10BBF00000BF4FF6FF77B84203D03746761C34F8C3
:10BC00001700DFF840C01CF803C001F80C00071251
:10BC1000DFF830C01CF803C08C448CF8017008B900
:10BC20004FF6FF705F1C3B460D2FE2D34FF6FF77B8
:10BC3000B84202D034F816700FB942F040020A70D0
:10BC4000F0BD000004F900082DE9F3410446019815
:10BC500000782F2803D0019800785C2802D1019841
:10BC6000401C01900020A06001980078202807D295
:10BC700000212046FEF713FE0646002060612FE0FB
:10BC800000BF01A92046FEF7F5FA064606B126E0F8
:10BC90002046FEF743FC0646A069C77A46B1042E4B
:10BCA00000D01CE000BF07F0040000B9052616E034
:10BCB00007F0040000B112E06569E87A00F01000B6
:10BCC00008B905260BE0A97EE87E41EA00212A7D1D
:10BCD000687D42EA002041EA0040A060D1E700BF51
:10BCE0003046BDE8FC812DE9FC4706468A46904671
:10BCF0001C460B225146304600F083FB052C0BDD21
:10BD000000BF601000EBC43138F8022B881884B2F1
:10BD1000B8F800000028F4D1072700BF2046E1173B
:10BD200004EB11710911A4EB0111303101F0FF098D
:10BD3000B9F1390F03DD09F1070000F0FF093846BA
:10BD40007F1E0DF800902046E11704EB1171C1F33E
:10BD50000F14002CE2D17E200DF80700002511E021
:10BD6000705D812802DB705D9F2805DD705DE02835
:10BD700007DB705DFC2804DC781EA84200D106E0D9
:10BD80006D1C6D1CBD4202D2705D2028E8D100BF41
:10BD900000BF082F04D238467F1C1DF8000000E0C9
:10BDA000202029466D1C7054082DF2D3BDE8FC8775
:10BDB0002DE9F04105460C46022C02D3A869A042A9
:10BDC00002D80120BDE8F0812878012804D002289B
:10BDD0002CD003285AD13DE0274607EB5707286AA5
:10BDE00000EB5721284600F023FB00B14EE0C7F3DB
:10BDF000080105F1300010F801807F1C286A00EB73
:10BE00005721284600F014FB00B13FE0C7F30801BA
:10BE100005F13000405C48EA002804F0010010B150
:10BE20004FEA1810CEE7C8F30B00CBE7286A00EB07
:10BE30001421284600F0FCFA00B127E040F2FF1080
:10BE400000EA440105F130000E183078717840EABC
:10BE50000120B7E7286A00EBD411284600F0E8FA81
:10BE600000B113E040F2FF1000EA840105F1300058
:10BE70000E18F0780006B17840EA0140717840EA87
:10BE800001203178084320F070409BE700BF4FF05D
:10BE9000FF3097E700207047F0B503461C6A5D6AE3
:10BEA00000200DE00126864016403EB187000F2697
:10BEB000BE40B443860001FA06F63443461CB0B2D5
:10BEC0000828EFD3082011E00126864016405EB115
:10BED000A0F10806B7000F26BE40B543A0F1080642
:10BEE000B60001FA06F63543461CB0B21028EBD373
:10BEF0001C625D62F0BD8162704781617047000025
:10BF000010B54FF4F8520C211848FFF7C5FF042272
:10BF10000C211748FFF7C0FF4FF470630122022184
:10BF2000124800F02FF84FF47063012200210F48EF
:10BF300000F04FF84FF48053002202210B4800F02C
:10BF400021F84FF4805301220021084800F041F805
:10BF5000042301220221064800F014F804230122E0
:10BF60000021034800F035F810BD00000008024031
:10BF7000000C024002461069084008B101207047D9
:10BF80000020FCE7F0B504460D4616462168E2683D
:10BF9000002019E0012787401F409FB14FEA400C65
:10BFA000032707FA0CF7B943470005FA07F73943A7
:10BFB0004FEA400C032707FA0CF7BA43470006FA8A
:10BFC00007F73A43471CB8B21028E3D32160E26078
:10BFD000F0BDF0B50C461546012C03D146681E4352
:10BFE000466002E046689E434660826800210DE09C
:10BFF00001268E401E403EB14F000326BE40B24394
:10C000004E0005FA06F632434E1CB1B21029EFD3AA
:10C010008260F0BD10B541F61B5000F069FD0128AB
:10C0200000D100E00020044600F0B4FC204610BD22
:10C0300000B5A5480078401CA34908700020A3491A
:10C04000087016E0A248A149097830F811000028CC
:10C050000ADD9F489D49097830F81100401E9C492F
:10C060009A4A127821F8120098480078401C9749A3
:10C070000870964800780428E4DB934800781E286E
:10C080007EDB0020904908709049087016E19148C5
:10C090008E490978405C20F006008E498B4A127860
:10C0A00088548D4889490978415C8C48874A1278C0
:10C0B000815486480078FCF7CFFC8949834A12787E
:10C0C0008854084681490978415C83487F4A127840
:10C0D000815483487D490978405C01280AD17D4814
:10C0E0007A490978405C40F001007A49774A127831
:10C0F000885409E0774875490978405C20F00101CF
:10C100007448724A12788154754870490978405CC5
:10C1100001280ED171486D490978405C48B96D48D5
:10C120006A490978405C40F002006A49674A12781F
:10C1300088546B4865490978405C78B96748634919
:10C140000978405C012809D1624860490978405C5F
:10C1500040F004015F485D4A1278815461485B49B0
:10C160000978405C052818D2DFE800F00318457113
:10C170007C005B4855490978405C01280DD100E0FE
:10C18000A1E04FF47A705249504A127821F8120017
:10C19000012154484D4A1278815489E050484B4956
:10C1A0000978405C58B900214948484A127820F87B
:10C1B000121002214B48454A127881541AE0444833
:10C1C0004249097830F81100A0B9642040493F4A3B
:10C1D000127821F81200042142483C4A1278815416
:10C1E0003C483A490978405C40F020003949374AD8
:10C1F000127888545CE03A4834490978405C012858
:10C200000FD103203749314A1278885431482F49D9
:10C210000978405C40F010012E482C4A1278815475
:10C2200014E02B482949097830F8110070B9002131
:10C230002C48264A12788154264824490978405CC3
:10C2400040F008012348214A1278815430E0244804
:10C250001E490978405C20B9002022491B4A127807
:10C26000885425E01E4819490978405C28B9002007
:10C270001C49164A127888541AE01548134909785F
:10C2800030F81100A0B964211148104A127820F842
:10C29000121010480D490978405C40F040000D49EB
:10C2A0000A4A1278885404200E49084A12788854A1
:10C2B00000BF06480078401C044908700348007815
:10C2C0000428FFF6E4AE00BD20000020210000207D
:10C2D0002E0000200800002036000020260000204C
:10C2E000220000202A00002010B510210148FFF78D
:10C2F00002FE10BD0004024010B510210148FFF7F6
:10C30000FCFD10BD0004024010B540210148FFF7BC
:10C31000F2FD10BD00040240F0B591B006460C4697
:10C32000154642223146684602F042FB9DF8000065
:10C330009DF8011040EA01274FF6FF70874203D1B4
:10C340000020208011B0F0BD278040220DF10201B5
:10C350002846FBF747FF002085F83F000120F1E762
:10C3600010B5094A09494FF48040FFF7D5FF084A44
:10C3700008494FF4A040FFF7CFFF074A07494FF4A1
:10C38000C040FFF7C9FF10BDC0050020A400002079
:10C3900000060020A600002040060020A800002083
:10C3A0000C480D49086062B602F078FDFFF7A4FF63
:10C3B0000EE0FFF7A1FFFFF7A7FF6420FEF798F854
:10C3C00002210020FCF7ECFA012801D1FDF757FC0F
:10C3D000EFE700000080000808ED00E0F0B503463C
:10C3E0001C460D46002000BF161EA2F1010207D018
:10C3F00014F8017B15F801CBA7EB0C06301EF3D027
:10C40000F0BD70B503460C4603E014F8015B03F879
:10C41000015B151EA2F10102F7D170BD30B50346D4
:10C4200001E003F8011B141EA2F10102F9D130BD95
:10C430002DE9F04104460D46E66AAE422FD0207940
:10C4400008B360780123324604F13001FEF7E9FABF
:10C4500010B10120BDE8F08100202071D4E907105F
:10C460000844B0420FD9E7780AE0E06906446078F2
:10C470000123324604F13001FEF7D3FA781EC7B229
:10C48000012FF2DC00BF55B1607801232A4604F188
:10C490003001FEF798FA08B10120DBE7E5620020E1
:10C4A000D8E710B54FF4C06000F068F800221146DC
:10C4B000312000F001F810BD2DE9F04103460D4692
:10C4C000164600240027A0462A48006800F4E060D1
:10C4D000B0F5E06F03D100BF4FF0040830E025480D
:10C4E000006800F4E060B0F5C06F03D101274FF0A1
:10C4F000030825E01F48006800F4E060B0F5A06F75
:10C5000002D10227B8461BE01A48006800F4E06038
:10C51000B0F5806F03D103274FF0010810E01548F4
:10C52000006800F4E060B0F5407F03D104274FF0CD
:10C53000000805E04FF4A06000F020F80227B8469C
:10C54000C7F1040005FA00F4C8F104010F20C84047
:10C550003040044324010848C45403F01F01012063
:10C5600088405911890001F1E021C1F80001BDE8BE
:10C57000F08100000CED00E000E400E0024901431E
:10C58000024A1160704700000000FA050CED00E05F
:10C590000348006840F4807001490860704700005B
:10C5A000007000402DE9F04705460E461746022E62
:10C5B00002D3A869B04202D84FF002088AE0287876
:10C5C000012804D0022841D003287DD154E0B1468F
:10C5D00009EB5909286A00EB59212846FFF728FF83
:10C5E0008046B8F1000F00D071E0C9F3080105F1F1
:10C5F00030000C1806F0010020B1F9B2207861F388
:10C600001F1000E03846207009F10109012028714F
:10C61000286A00EB59212846FFF70AFF8046B8F147
:10C62000000F00D053E0C9F3080105F130000C18E9
:10C6300006F0010010B1C7F3071005E0207800F004
:10C64000F000C7F303210843207040E0286A00EBA4
:10C6500016212846FFF7ECFE8046B8F1000F00D007
:10C6600035E040F2FF1000EA460105F130000C18F9
:10C670002770380A60702AE0286A00EBD611284635
:10C68000FFF7D6FE8046B8F1000F00D01FE040F261
:10C69000FF1000EA860105F130000C18E078000672
:10C6A000A17840EA0140617840EA012021780843FE
:10C6B00000F0704007432770380A6070380CA07093
:10C6C000380EE07003E0FFE74FF0020800BF00BF44
:10C6D000012028714046BDE8F08700002DE9F041B7
:10C6E00005461D27002400261A48046801E0194861
:10C6F000046804F045000028F9D004F0010030B1CE
:10C700001127012002F0DCF83846BDE8F08104F082
:10C71000040028B11327042002F0D2F83846F4E7C9
:10C7200002F038F8A84202D008273846EDE70A4858
:10C7300002F0C6F8002002F009F90646074830402A
:10C7400010B91D273846E0E7304600F009F80746E3
:10C750003846DAE7342C0140FF07C00008E0F9FD55
:10C7600001461C2001F000420AB100204EE001F019
:10C7700080420AB1012049E001F000520AB10220D2
:10C7800044E001F080520AB103203FE001F0006272
:10C790000AB104203AE001F080620AB1052035E0D8
:10C7A00001F080720AB1062030E001F400020AB103
:10C7B00007202BE001F480020AB1082026E001F4F2
:10C7C00000120AB1092021E001F480120AB10A2006
:10C7D0001CE001F400220AB10B2017E001F48032C2
:10C7E0000AB10C2012E001F400420AB10D200DE064
:10C7F00001F480420AB10E2008E001F400520AB1AF
:10C800000F2003E001F0080202B110207047000081
:10C8100070B51D2500241048046801E00E48046826
:10C8200004F045000028F9D004F0010028B11125DA
:10C83000012002F045F8284670BD04F0040028B13C
:10C840001325042002F03CF82846F5E7034802F0DF
:10C8500037F82846F0E70000342C0140FF07C000FD
:10C8600070B51D2500240B48046801E009480468E0
:10C8700004F045000028F9D004F0040028B1132585
:10C88000042002F01DF8284670BD034802F018F895
:10C890002846F9E7342C0140FF07C0002DE9F0419C
:10C8A00007460E464FF01D08002500242348056862
:10C8B00001E02248056805F045000028F9D005F0A0
:10C8C000010038B14FF01108012001F0F9FF404696
:10C8D000BDE8F08105F0040030B14FF013080420EA
:10C8E00001F0EEFF4046F3E701F054FFB84203D0F9
:10C8F0004FF008084046EBE7114801F0E1FF002047
:10C9000002F024F8044604F4604018B9200C30808A
:10C910004046DDE704F4004010B14FF007080AE09C
:10C9200004F4804010B14FF0080804E004F4005013
:10C9300008B14FF00B084046CAE70000342C014014
:10C94000FF07C00070B51C26002442F21075104885
:10C95000046802E00E4804686D1E04F0450008B942
:10C96000002DF7D104F0040000B92DB913260420DE
:10C9700001F0A6FF304670BD04F0400028B11D262E
:10C98000402001F09DFF3046F5E73046F3E7000018
:10C99000342C01400348006840F080700149086071
:10C9A00070470000743802402DE9F04F8CB0064605
:10C9B00000200A903EA090E8004CC068CDE905BE7A
:10C9C000CDF810A007900FF2EC0ADAE9000ACDE9E1
:10C9D000020A0FF2E00ADAE9000ACDE9000A384853
:10C9E0000068C0F381000B900B9820B1012804D09F
:10C9F000022828D103E0334927E0334925E03048B5
:10CA0000001F006800F03F072D48001F0068C0F3BA
:10CA1000881C2B48001F0068C0F30140401C4FEAEF
:10CA200040092748001F006800F48008B8F5800F0F
:10CA300001D1254B00E0234BB3FBF7F000FB0CF0DA
:10CA4000B0FBF9F101E01F4900BF00BF1C480068BE
:10CA5000C0F3031404A8055D21FA05F21848006824
:10CA6000C0F3822402A8055D22FA05F0099014485B
:10CA70000068C0F342341DF8045022FA05F0089013
:10CA800036B1012E06D0022E06D0032E0AD106E0C2
:10CA90000A9108E00A9206E009980A9003E00898D3
:10CAA0000A9000E000BF00BF0A980CB0BDE8F08F0C
:10CAB000000000000000000001020304060708094E
:10CAC000083802400024F40040787D0110B540F69B
:10CAD000024000F0DFF840F6034000F0DBF841F2DE
:10CAE0000B1000F0D7F840F6164000F0D3F810BD58
:10CAF0000146074A02EB9110D0F8000801F01F032D
:10CB000001229A40104008B1012070470020FCE744
:10CB100000300240074A02EB9011D1F8001800F0F3
:10CB20001F0301229A401143024B03EB9012C2F8FB
:10CB30000018704700300240F0B506460024002778
:10CB400000251C2E7DD007DCB6B3102E10D0182E79
:10CB500067D01A2E76D176E0B6F5E05F19D0B6F53B
:10CB6000E85F4CD0A6F5405010380028F2D134E0F0
:10CB700004E01120FFF7BCFF0546641C1DB94FF609
:10CB8000FF708442F5D11120FFF7B2FF00B10127F9
:10CB90007AE005E041F60140FFF7AAFF0546641C74
:10CBA0001DB96FF070408442F4D141F60140FFF7A7
:10CBB0009FFF00B1012767E0FFE704E00120FFF7D6
:10CBC00097FF0546641C15B9B4F5A06FF6D1012096
:10CBD000FFF78EFF00B1012756E005E043F2110098
:10CBE000FFF786FF0546641C15B929488442F5D134
:10CBF00043F21100FFF77CFF00B1012744E005E09C
:10CC000041F60150FFF774FF0546641C15B9204832
:10CC10008442F5D141F60150FFF76AFF00B10127C8
:10CC200032E004E01920FFF763FF0546641C15B9E4
:10CC300017488442F6D11920FFF75AFF00B10127A7
:10CC400022E010E01FE004E01B20FFF751FF054643
:10CC5000641C15B90E488442F6D11B20FFF748FF2B
:10CC600000B1012710E004E01D20FFF741FF054659
:10CC7000641C15B906488442F6D11D20FFF738FF21
:10CC800000B1012700E000BF00BF3846F0BD000042
:10CC9000FFFF0F00074A02EB9011D1F8001800F0D7
:10CCA0001F0301229A401143024B03EB9012C2F87A
:10CCB0000018704700300240074A02EB9011D1F88B
:10CCC000001800F01F0301229A409143024B03EB2E
:10CCD0009012C2F80018704700300240074A02EB79
:10CCE0009011D1F8001800F01F0301229A4011435F
:10CCF000024B03EB9012C2F800187047003002405C
:10CD0000044A116821F4407141EA0002014B1A60A3
:10CD100070470000703802402DE9F04104460E468D
:10CD2000022E02D3A069B04201D8022725E00027D5
:10CD30001FE031462046FFF73BF8054605B91BE0EA
:10CD4000012D01D1022717E0681C08B9012713E063
:10CD5000002231462046FFF725FC074607B10BE0CD
:10CD60002069401C20B12069401C206101206071B5
:10CD70002E46A069B042DCD800BF3846BDE8F0813D
:10CD80000FB410B5C2B045A8019002A8019A449909
:10CD9000FCF7B4F90020019002210F48FFF7ADF82D
:10CDA00000240CE002A8015D0C4802F0A8FC00BFC2
:10CDB00006210A4802F01BFD0028F9D0641C02A8D5
:10CDC000005D0028EED102210348FFF794F842B03D
:10CDD00010BC5DF814FB000000000240004400405D
:10CDE00030B50021002200230024154D29682D1D97
:10CDF0002A68134D10352B68114D08352C68150C19
:10CE00000570C2F30425457002F03F058570C2F33A
:10CE10004235C570C1F305450571C1F3062545715D
:10CE200001F07F058571C3F306450581C3F30E0547
:10CE3000458101F48005C56004F04005056130BD01
:10CE4000002800400146002204E0501CC2B2A1F1BB
:10CE50000A00C1B20A29F8DA100741EA10607047E7
:10CE6000F0B5044600250026002720784FF47F0106
:10CE700001EA0040E1784FF4604202EA41310843A0
:10CE800061784FF4F85202EA01210843A17801F0D9
:10CE90003F0140EA010721794FF47C1202EA014187
:10CEA000E068084361794FF4FE4202EA0121084339
:10CEB000A17901F07F0140EA0106CA201E490860FD
:10CEC000532008604FF6FF701B4908390860091DA0
:10CED00008602220184920310860091D086000F010
:10CEE0002DF805461DB320894FF4FE0101EA0040EC
:10CEF0006189C1F30E0108430F49143908600E48D7
:10CF000024380660001D0760001D006820F0400006
:10CF100009491C3908600846006821690843064928
:10CF20001C39086000F02EF800F036F80546FF20A6
:10CF3000014908602846F0BD2428004008B54FF498
:10CF400080420092002100200D4A126802F0400247
:10CF50009AB90B4A126842F08002094B1A6000BF6E
:10CF6000074A126802F04001009A521E00920AB16C
:10CF70000029F5D011B1012000E0012008BD00001A
:10CF80000C2800400348006820F080000149086038
:10CF9000704700000C28004008B54FF40042009292
:10CFA00000210020134A126802F0200202BBCA22AC
:10CFB000104B1C331A6053221A600E4A121D12685D
:10CFC00022F020020B4B1B1D1A6000BF094A121DE4
:10CFD000126802F02001009A521E00920AB1002944
:10CFE000F4D001B10120FF22024B1C331A6000E093
:10CFF000012008BD082800402DE9F04106460C46F6
:10D00000154600273046FFF71DFF0B4908702046E4
:10D01000FFF718FF084948702846FFF713FF064935
:10D0200088700846FFF71CFF074617B90120BDE8C6
:10D03000F0810020FBE70000FC0200202DE9F04118
:10D0400007460C4615461E464FF000083846FFF7C7
:10D05000F9FE0D4908712046FFF7F4FE0A494871B0
:10D060002846FFF7EFFE0849887106F00100C86006
:10D070000846FFF7F5FE8046B8F1000F02D1012007
:10D08000BDE8F0810020FBE7FC0200202DE9FC4711
:10D090000446884691461D46DDE90A672B464A4606
:10D0A00041462046CDE9006702F066F808B1BDE8C8
:10D0B000FC8700233A4631462846FFF7BFFFA4F518
:10D0C000FA61C8B24A464146FFF796FF02A0FFF751
:10D0D00057FE00BFEBE700000D0A00002DE9F84FF6
:10D0E0000646894614461D274FF000084FF0000AF7
:10D0F0004FF0000B3546002000901EB91927384626
:10D10000BDE8F88F1D207249087000207149086041
:10D110007149086000221146104601F067FB0021AA
:10D12000084601F087FB01F0B7FB01F0A1FB0020EE
:10D1300001F00CFC00F0007010B106273846DFE764
:10D1400066480078022802D104024FEA5929601E7D
:10D1500000EA040A002C1BDDB4F5006F18DCBAF1FC
:10D16000000F15D1204600F09FFD83464022214646
:10D17000102001F015FB002001F006FC01F02CFB53
:10D180001020FFF7ABFA07461D2F04D03846B7E74B
:10D1900019273846B4E70020514908604E4804601A
:10D1A0005A4601684FF0FF3001F020FB00210220B9
:10D1B00001F040FB01F07AFB40224946112001F0CA
:10D1C000EFFA002001F0E0FB01F006FB1120FFF771
:10D1D00085FA07461D2F01D0384691E7414800687F
:10D1E000012851D111E04FF4004001F06FFB60B114
:10D1F0004FF0000805E001F017FB45F8280008F1A2
:10D200000108B8F1080FF6D3203540F22A6001F08A
:10D210005DFB0028E7D0022001F058FB28B112275F
:10D22000022001F04DFB38466AE7082001F04EFB72
:10D2300028B11427082001F043FB384660E720207E
:10D2400001F044FB28B11627202001F039FB3846B5
:10D2500056E74FF4007001F039FB30B117274FF457
:10D26000007001F02DFB38464AE703E001F0DCFADC
:10D2700028602D1D4FF4001001F028FB0028F5D187
:10D28000194801F01DFB21E016480068E8B940F29A
:10D29000293001F037FB01F0F5FA21463046FDF761
:10D2A00085FD1248009006E00098401E009000980E
:10D2B00008B91C2024E7202203210D48FDF77EFC3D
:10D2C00020B900980028EFD100E01927384617E769
:10D2D00054000020580000204C0000204400002092
:10D2E0005000002048000020FF07C000A086010079
:10D2F000006402402DE9F04F85B081468A4614460D
:10D300001D25002004900026834603904F4680464A
:10D31000029001900090B9F1000F04D11925284620
:10D3200005B0BDE8F08F1D20B04908700020B0495D
:10D330000860B049086000221146104601F056FA14
:10D340000021084601F076FA01F0A6FA01F090FA01
:10D35000002001F0FBFA00F0007010B1062528460D
:10D36000DEE7A5480078022802D104024FEA5A2AD3
:10D37000601E00EA040B002C1BDDB4F5006F18DC06
:10D38000BBF1000F15D1204600F08EFC0390402227
:10D390002146102001F004FA002001F0F5FA01F016
:10D3A0001BFA1020FFF79AF905461D2D04D02846D8
:10D3B000B6E719252846B3E79048008801044022C3
:10D3C0000D2001F0EDF9002001F0DEFA01F004FA81
:10D3D0000D20FFF783F905461D2D01D028469FE754
:10D3E000002001F0B3FA0190854800901AE00098FF
:10D3F000401E009081480088010440220D2001F069
:10D40000CFF9002001F0C0FA01F0E6F90D20FFF796
:10D4100065F905461D2D01D0284681E7002001F061
:10D4200095FA0190019800F4807010B900980028D6
:10D43000DDD1009808B91C2072E74022514618201F
:10D4400001F0AEF9002001F09FFA01F0C5F91820B3
:10D45000FFF744F905461D2D01D0284660E700205E
:10D460006849086063480460039A01684FF0FF3020
:10D4700001F0BCF90021084601F0DCF901F016FAD0
:10D4800061480068012865D134E04FF4804001F024
:10D490001DFA78B357480068A0EB080020281DD279
:10D4A00054480078A0EB080000F0030008B1012008
:10D4B00000E000204F490968A1EB080100EB910052
:10D4C0000290002606E0386801F0C2F93F1D08F11D
:10D4D0000408761C029886420CD2F4E7002604E089
:10D4E00057F8260001F0B4F9761C082EF8D320373F
:10D4F00008F1200840F21A6001F0E8F90028C4D0D1
:10D50000022001F0E3F928B11225022001F0D8F938
:10D51000284605E7082001F0D9F928B1142508208C
:10D5200001F0CEF92846FBE6102001F0CFF928B132
:10D530001525102001F0C4F92846F1E64FF40070DB
:10D5400001F0C4F9A8B317254FF4007001F0B8F941
:10D550002846E5E62C48006860BB40F21A3001F02E
:10D56000D1F921464846FDF77BFC01F08BF92448B0
:10D57000009006E00098401E0090009808B91C201A
:10D58000CEE6202203212148FDF718FB10B90098B0
:10D590000028EFD100BF1648006818B9134800787A
:10D5A0001D28F8D0114800781D2807D00F480078B2
:10D5B000B6E603E0FFE719252846B1E6144801F076
:10D5C0007FF904A800F0F0FA054603E004A800F093
:10D5D000EBFA05461D2D07D19DF810000728F5D060
:10D5E0009DF810000628F1D0284699E65400002046
:10D5F000580000204C00002044000020460000207D
:10D60000A086010050000020480000200064024075
:10D61000FF07C00070B504461D2522480078052884
:10D6200002D11B25284670BD1E48007838B11D4820
:10D630000078012803D01B480078022830D1B4F5C7
:10D64000805F02D11B252846EDE7B4F5006F12D1AB
:10D650004FF4802000F028F805461D2D20D100232E
:10D660001A461946184601F071F8204601F060F894
:10D6700001F036F914E094B94FF4803000F014F85A
:10D6800005461D2D0CD100231A461946184601F0F7
:10D690005DF8204601F04CF801F022F900E0192570
:10D6A0002846C0E74400002070B505461D24002030
:10D6B00001F04CF900F0007010B10624204670BD56
:10D6C00036493748008800F067FF04461D2C01D01A
:10D6D0002046F4E7B5F5803F2CD13048406828401B
:10D6E00028B32F48008801044022372001F058F861
:10D6F000002001F049F901F06FF83720FEF7EEFF46
:10D7000004461D2C01D02046D9E7402200210620E6
:10D7100001F046F8002001F037F901F05DF806202D
:10D72000FEF7DCFF04461D2C02D02046C7E71A2472
:10D730002046C4E7B5F5802F2CD118484068284012
:10D7400028B31748008801044022372001F028F848
:10D75000002001F019F901F03FF83720FEF7BEFF75
:10D7600004461D2C01D02046A9E7402202210620B4
:10D7700001F016F8002001F007F901F02DF806205D
:10D78000FEF7ACFF04461D2C02D0204697E71A2472
:10D79000204694E71924204691E700003C00002031
:10D7A0004600002030B501461D20002209B919208D
:10D7B00030BDA84B1B7881F83830A74B1B88A1F8E7
:10D7C0004430A64B1B681A0E0A70A44B1B68C3F3A7
:10D7D000074213024B80A14B1B88C3F307224B88DF
:10D7E00013434B809D4B1A7813064B609B4B5B6831
:10D7F0001A0E4B6843EA02434B60984B5B68C3F3D5
:10D8000007424B6843EA02234B60944B9B88C3F367
:10D8100007224B6813434B60904B1A790A729B683E
:10D820001A0E4A728D4B9B68C3F307421306CB60F6
:10D830008A4B1B89C3F30722CB6843EA0243CB60C0
:10D84000864B1A7ACB681343CB60844BDB681A0E85
:10D85000CB681343CB60814BDB68C3F3074202F014
:10D860000F034FF6FF7404EA03230B827B4B9B8963
:10D87000C3F307220B8A13430B82784B1A7B53089E
:10D880008B74774B1B681A0E93090B75744B1B68CE
:10D89000C3F307424A75724B1B88C3F307228A758C
:10D8A0006F4B1A78CA755B681A0E14010C836C4BA7
:10D8B0005B68C3F307420B8B43EA12140C8302F03C
:10D8C0000F048C76664B9B88C3F30722D409CC7671
:10D8D000C2F380140C77C2F340144C77C2F30014E7
:10D8E0008C775C4B1B781BB15A4B1B78012B44D1B6
:10D8F00093071C0D0C625A4B1A790B6A43EA820497
:10D900000C62574B9B681A0E0B6A43EA92140C6226
:10D91000C2F3C20424235C5402F0070425235C54A0
:10D920004F4B9B68C3F30742540926235C54C2F350
:10D93000820427235C5493075C0F28235C54484BD4
:10D940001B89C3F3072228235B5C43EAD2142823F4
:10D950005C548C7E0123A3400B640B6A5B1CCB637D
:10D960002824645CA41C0125A540CB6B6B43CB63CE
:10D97000D1E90F346343CB631DE0364B1B78022B98
:10D9800019D1374B1A7993069C0A0C62344B9B6869
:10D990001A0E0B6A43EA02240C62314B9B68C3F3F4
:10D9A00007420B6A13430B624FF400730B640B6A5C
:10D9B0005B1CDB04CB63C2F3801429235C54930605
:10D9C0005C0E2A235C54264B1A7A2A235B5C43EABA
:10D9D000D2142A235C5402F07F042B235C54204B86
:10D9E000DB681A0ED4092C235C54C2F382042D2365
:10D9F0005C5493071C0F2E235C54194BDB68C3F354
:10DA000007422E235B5C43EA92142E235C54C2F33C
:10DA100040142F235C54124B9B89C3F30722D40973
:10DA200030235C54C2F3801431235C54C2F340149D
:10DA300032235C54C2F3001433235C54C2F38104D8
:10DA400081F83440064B1A7B540881F8354000BFFA
:10DA5000AEE6000044000020460000203003002015
:10DA60002003002038B51D240120009000F062FF43
:10DA700010B91A24204638BD3D480078032824D028
:10DA8000C0220021022000F08BFE002000F07CFF6D
:10DA900000F0A2FEFEF7BCFE04461D2C01D020467D
:10DAA000E9E7002000F052FF32490860012000F051
:10DAB0004DFF30494860022000F048FF2D49886042
:10DAC000032000F043FF2B49C8602948007858B173
:10DAD00027480078012807D025480078022803D07D
