:020000040800F2
:10000000184B0020C1010008F118000889160008EB
:10001000ED18000801150008652200080000000026
:10002000000000000000000000000000A51E000805
:1000300079160008000000002B1D0008051F0008AD
:10004000DB010008DB010008DB0100086D1E000871
:10005000DB010008DB010008DB010008DB01000810
:10006000DB010008DB010008DB010008DB01000800
:10007000DB010008DB010008DB010008DB010008F0
:10008000DB010008DB010008DB010008DB010008E0
:10009000DB010008DB010008DB010008DB010008D0
:1000A000DB010008DB010008DB010008DB010008C0
:1000B000DB010008DB010008DB010008DB010008B0
:1000C000DB010008DB010008DB010008DB010008A0
:1000D000DB010008DB010008E1200008DB0100086B
:1000E000DB010008DB010008DB010008DB01000880
:1000F000DB010008DB010008DB010008DB01000870
:10010000DB0100089D1E0008DB010008DB01000880
:10011000DB010008DB010008DB010008E11F00082B
:10012000DB010008DB010008DB010008DB0100083F
:10013000DB010008DB010008DB010008DB0100082F
:10014000DB010008DB010008DB010008DB0100081F
:10015000DB010008DB010008DB010008DB0100080F
:10016000DB010008DB010008DB010008DB010008FF
:10017000DB010008DB010008DB01000800000000D3
:10018000DB010008DB010008DB010008DB010008DF
:10019000DB010008DB010008DB01000800000000B3
:1001A000DB010008DB010008DB010008DFF80CD0F0
:1001B00000F086FF0048004789780008184B0020AF
:1001C0000648804706480047FEE7FEE7FEE7FEE7F1
:1001D000FEE7FEE7FEE7FEE7FEE7FEE70D1F00088D
:1001E000AD01000800487047ECD9000810B504467E
:1001F000FFF7F8FF0068005D00F0010010BD00008F
:1002000038B5D0E90221491E01EB410102EBC101E1
:100210004268C1EB011102EB81010268C1EB0111DF
:1002200002EB8102D0E9043101EB410103EB8101D2
:100230003023A1F5527191FBF3F4174D6C4302EB9F
:10024000C41291FBF3F403FB141100921A2902DB90
:10025000124B1A4400920C2291FBF2F3104C6343B0
:10026000009C04EBC313009391FBF2F302FB131108
:100270000C4A08E0491E40F2A324535C6343009CEF
:1002800004EBC31300930029F4DC0146684600F038
:1002900037FD009838BD00003F0C0F008051010071
:1002A00067C20300F0D9000840EA01039B0703D0AE
:1002B00009E008C9121F08C0042AFAD203E011F8A5
:1002C000013B00F8013B521EF9D27047D2B201E067
:1002D00000F8012B491EFBD270470022F6E710B54B
:1002E00013460A4604461946FFF7F0FF204610BDA4
:1002F00030B505462A460B4612F8010B13F8014BA0
:1003000008B1A042F8D01CB1002802D06D1CF1E762
:10031000284630BD10B5044604E00B7800F8013BD8
:1003200003B1491C521EF8D2204610BD421C10F8E1
:10033000011B0029FBD1801A704710B5002200E094
:10034000521C835C8C5CA34201D1002BF8D1D8B243
:10035000E1B2401A10BD30B505460020034600E06A
:100360005B1C934205D2EC5CC85C201A01D1002CC6
:10037000F6D130BD0FB400B58DB010A909900B9027
:1003800000914FF0FF300A9000200C900548069035
:10039000054807906A4609A80F9900F00BFD0DB0BB
:1003A0005DF814FBD10D0008EF0D00082DE9FF5F8B
:1003B0001D464FF0FF3BD5E9014691465F464FF0A1
:1003C0000008A9697F1C01988847296A82468847E6
:1003D0000028F6D1BAF1FF3F0CD024F4C064002EFF
:1003E00019DD600614D5BAF12B0F09D0BAF12D0F23
:1003F0000ED103E0584604B0BDE8F09F44F4806499
:10040000A9697F1C01988847761E8246002E02DD6E
:10041000BAF1300F03D0B9F1000F26D032E0A9694C
:10042000761E44F400747F1C019888478246002E93
:1004300005DDBAF1780F06D0BAF1580F03D0B9F143
:10044000000F10D01EE0B9F1000F02D0B9F1100F6B
:1004500018D1A969761E24F400747F1C019888477E
:100460008246102002E0082000E00A20814609E0D0
:1004700008FB0908A969761E44F400747F1C0198E2
:1004800088478246002E05DD4946504600F07EFC36
:100490000028EDDAE96901988847A00502D46FF0D9
:1004A0000100A8E7E00725D1600613D5600502D555
:1004B000C8F1000000E0404629680A1D2A6009686A
:1004C000220501D5087015E0220701D5088011E04A
:1004D00008600FE02868011D29600068210502D529
:1004E00080F8008006E0210702D5A0F8008001E036
:1004F000C0F8008038467EE72DE9FF4F087883B0CA
:100500009946FF2805D0491C2D2804D0002400203E
:1005100008E000200BE00124F9E700EB800003EB8A
:100520004000491C0B78FF2BF7D104B14042002357
:100530000293147819461D462D2C01D02B2C04D182
:10054000521C2D2C13D000240294AA461478FF2CA0
:100550000FD00A25A3FB057801FB05814FF0000CA5
:1005600003FB0C11521CE3194AEB0101EEE70124D5
:10057000EAE7814453EA010002D019F5C87F06DAA0
:1005800003980021C0E9001107B0BDE8F08F0025F5
:10059000AE4E2F46DFF8B882184600F02FFDCDE9A9
:1005A0000001B9F1000002DAC9F1000400E00446DC
:1005B0000023A74A1AEB030B42EB045A12E0E007B0
:1005C00007D02A4633463846414600F0ECF9074644
:1005D00088462A4633461046194600F0E4F9054697
:1005E0000E466410002CEAD1DDE90001B9F1000FDC
:1005F0005A46534606DA00F048FA3A46434600F0B7
:1006000044FA05E000F0CFF93A46434600F0CBF952
:10061000029A0AB181F00041039AC2E90001B3E7EE
:100620002DE9FF4F1F468DB0D7E901464FF0FF3847
:100630002E2045464FF000090B90B9696D1C0E98AD
:100640008847396A824688470028F6D1BAF1FF3FC9
:100650000AD024F4D064002E11DDBAF12B0F08D09B
:10066000BAF12D0F0BD102E0404611B08DE744F4F2
:100670008064B9696D1C0E9888478246761E69466B
:10068000600501D52D2000E02B208DF8000001F140
:10069000010B0DF1200809E0B9696D1C0E9888471F
:1006A00082460F9844F40074761E0560002E02DD29
:1006B000BAF1300FF0D00B998A453ED144F0800456
:1006C00006E00F99681CA9F1010944F40074086060
:1006D000B9696D1C761E0E98884782463028F0D086
:1006E0002BE00B998A4505D1200603D444F0800401
:1006F000761E18E0504602F04FFB08B30DF11301CF
:10070000761E44F400748B4508D2AAF130000BF831
:10071000010B200607D5A9F1010003E0200602D451
:1007200009F101008146A00502D50F99681C0860F7
:10073000B9696D1C0E9888478246002ED1DC53E0C3
:10074000002E51DDBAF1650F02D0BAF1450F4BD141
:10075000A00549D5B9696D1C24F44074761E0E9825
:1007600088478246002E0CDD2B2804D0BAF12D0FCD
:1007700007D144F48074B9696D1C0E98884782468D
:10078000761EE00501D52D2100E02B2108F8011B84
:10079000CDF82C8021E00DF12901761E44F400747F
:1007A00088450CD2AAF1300010F0FF0088F8000054
:1007B00002D10B99884509D908F1010806E0E00546
:1007C00001D5244801E042F20F708146B9696D1CE1
:1007D0000E98884782460F980560002E04DD50462B
:1007E00002F0DAFA0028D6D1F9690E988847FF207E
:1007F0008BF8000088F800000020069007904B4618
:100800006A4608A906A8FFF777FEA00502D46FF094
:1008100001002AE714F0240F0AD0E00714D1DDE923
:1008200006123868031D3B600068C0E900120BE047
:10083000DDE9060100F0D0F90146E00704D138688F
:10084000021D3A600068016028460EE7000014406F
:100850000000F03FF1D8FFFF2DE9FE4F804681EA0E
:100860000300C00F0C46009021F0004123F000452A
:10087000B8EB0200A94105D24046214690461C46ED
:100880000B46024623F00040104347D0270DC7F324
:100890000A00C3F30A510290401A019040286BDA13
:1008A000C3F3130040F4801B0098924620B100234C
:1008B000D2EB030A63EB0B0B01985946C0F14002DF
:1008C000504600F0ECF906460D4650465946019A4E
:1008D00000F004FA10EB08006141002487EA11528D
:1008E00084EAE7731A4340D0009A62B3019A012A5E
:1008F0004FEA075215DC001B61EB02014FF000428A
:1009000002EA0752CDE90042001C41F5801132464F
:100910002B4600F0E1FA03B0BDE8F08F40462146D7
:10092000F9E7001B61EB0201001C41F58013001880
:100930005B412018A2F5001747EB030140EAD57090
:10094000B6196D4111E06D084FEA360645EAC075EB
:100950004FEA0752001B61EB0201001C41F58011B8
:1009600049084FEA30000019514132462B4603B086
:10097000BDE8F04F00F0A1BA00980122400000232A
:10098000D0EB020263EBE073009821464FEAE0747B
:10099000B8EB000061EB0401E9E783F000435BE79B
:1009A00081F0004158E72DE9FE4F81EA030404F08D
:1009B000004421F0004100944FF0000B23F000436D
:1009C00050EA01045ED052EA03045BD0C3F30A5438
:1009D000C1F30A552C44A4F2F3340194A0FB025451
:1009E000C1F3130141F48011C3F3130343F48013E3
:1009F00001FB024400FB034E840A970A44EA815437
:100A000047EA8357A4FB076802958D0A05FB078513
:100A10004FEA932C04FB0C542705029D4FEA06581D
:100A200047EA1637B5EB08056EEB070C870E920EFA
:100A300047EA811742EA8312A7FB0201B6EB0B01DA
:100A400064EB00042B0D43EA0C335E1844EB1C509E
:100A5000DA465146E7FB0201C5F313044FEA0B33B4
:100A600043EA14534FEA0432019C43EA0603A4F11B
:100A70000C040294009CCDE900B400F02DFA03B000
:100A8000BDE8F08F00200146F9E72DE9F04D81EA3D
:100A9000030404F0004B21F0004514464FF0000A17
:100AA00023F0004150EA050220D054EA01021DD093
:100AB000C5F30A570246C5F31303C1F31300C1F38C
:100AC0000A5640F4801543F48013A7EB0608101B68
:100AD000D64608F2FD3873EB050002D308F1010891
:100AE00001E092185B41B8F1000F03DA00200146E3
:100AF000BDE8F08D00204FF48011064684460EE0DC
:100B0000171B73EB050705D3121B63EB05030643A5
:100B10004CEA010C49084FEA300092185B4150EA58
:100B20000107EDD152EA030012D082EA040083EA01
:100B30000501084305D0101BAB4106D2012200235A
:100B400006E000224FF0004302E06FF00102531074
:100B50001AEB06004CEB085110EB0A0041EB0B01BD
:100B6000BDE8F04D00F0A9B90EB540F23341029155
:100B70000021CDE900110A460B4600F0ADF903B0A3
:100B800000BD00F0004230F000400AD0C10D01F578
:100B90006071C0F3160042EA0151C20840071143D8
:100BA000704700200146704730B5041E71F1000403
:100BB00004DB4FF00044404264EB0101141E73F16A
:100BC000000405DB1C464FF00043524263EB040374
:100BD0008B4208BF824230BD01F0004330B421F0A7
:100BE000004150EA010206D00A0DA2F56072C1F37D
:100BF0001301002A02DC30BC00207047440F44EA95
:100C0000C104C100E01830BC00EBC25000F000B9D4
:100C100030B50B46014600202022012409E021FACC
:100C200002F59D4205D303FA02F5491B04FA02F5C9
:100C30002844151EA2F10102F1DC30BD2DE9F05F60
:100C40000546002092469B4688460646814640243B
:100C50001BE0284641464746224600F02FF85346FF
:100C60005A46C01A914110D311461846224600F048
:100C700016F82D1A67EB01084F4622460120002185
:100C800000F00DF817EB00094E41201EA4F10104FD
:100C9000DFDC484631462A464346BDE8F09F202A1D
:100CA00004DB203A00FA02F1002070479140C2F1C3
:100CB000200320FA03F3194390407047202A04DBF5
:100CC000203A21FA02F00021704721FA02F3D040C5
:100CD000C2F120029140084319467047202A06DBE2
:100CE000CB17203A41FA02F043EAE07306E041FAFA
:100CF00002F3D040C2F120029140084319467047E8
:100D000010B500683C22B0FBF2F302FB1303B0FB0A
:100D1000F2F00B60B0FBF2F302FB1303B0FBF2F056
:100D200018224B60B0FBF2F302FB1303B0FBF2F0AE
:100D3000021D8B600723B2FBF3F403FB1422800037
:100D400040F2B55300F66C308A61B0FBF3F2B0FBB1
:100D5000F3F403FB1400443280084A61C8613B2865
:100D600002D3920700D0401C0022074C13460A61B0
:100D7000E25C824203D8801A5B1C0B61F8E7401CDE
:100D8000C860084610BD0000FCD900083A2800D20F
:100D9000303820F02002412A01D3A2F137008842E6
:100DA00001D34FF0FF30704702681144137801609F
:100DB00018467047D160044951610449116200210D
:100DC0001161114600F08EB9A90D0008ED0100086F
:100DD000426842B1016811F8013B23B1521EC0E9DB
:100DE0000012184670470121C160881E7047426892
:100DF0005AB1C368016843B983688B4205D0491E64
:100E0000521CC0E90012002070474FF0FF307047BD
:100E10000029A8BF7047401C490008BF20F001000E
:100E2000704710B4B0FA80FC00FA0CF050EA0104EC
:100E300004BF10BC704749B1CCF1200421FA04F47E
:100E400011FA0CF118BF012121430843A3EB0C0157
:100E5000CB1D4FEA00614FEA102042BF002010BCBA
:100E6000704700EBC35010440029A4BF10BC70476A
:100E7000401C490008BF20F0010010BC704710B5AD
:100E800041000CD0C0F3C751962908DC7E2909DC4B
:100E900006DB410204D000F0004040F07E5010BD5F
:100EA000002010BDC1F19604C4F1200100FA01F147
:100EB000E040FFF7ADFFA04010BD10B5141E73F168
:100EC000000408DA401C41F1000192185B411A430A
:100ED00001D120F0010010BD2DE9F04D92469B4656
:100EE00011B1B1FA81F202E0B0FA80F220329046FC
:100EF000FFF7D5FE04460F4640EA0A0041EA0B011F
:100F000053465A46084313D0114653EA010019D0FC
:100F1000C8F140025046FFF7D1FE05460E46504646
:100F200059464246FFF7BBFE084305D0012004E0C6
:100F300020463946BDE8F08D0020054346EAE076BC
:100F40002C4337430A986305E40AA0EB080000220B
:100F5000FD0A44EA47540A3002D500200146E9E779
:100F6000010510196941DDE9084500196941BDE82D
:100F7000F04DA2E72DE9F041054621F000400C4676
:100F8000284309D0C4F30A5040F23341884205DDBA
:100F900028462146BDE8F0812846FBE740F2FE31B5
:100FA000884210DC0CDB4FEA043040EA155050EA6E
:100FB000053105D0104804F0004101430020E9E765
:100FC00000200146E6E7A0F233404642C6F1400267
:100FD00028462146FFF763FE0746884628462146F5
:100FE0003246FFF76BFE43463A46FFF766FF32464E
:100FF000BDE8F041FFF753BE0000F03F0EB540F2F0
:10100000334202920022CDE900221346FFF764FF2B
:1010100003B000BDC1F30A52C1F3130140F2FF3324
:1010200041F480119A4202DA00200146704740F2F2
:1010300033439A42A2F2334202DC5242FFF73EBEF1
:10104000FFF72DBE10B500F0004420F00040C20DA7
:10105000C0F3160040F400007F2A07DA7D2A00DA88
:101060007D22763A00FA02F1002008E0962A09DC97
:10107000A2F1760100FA01F1C2F19602D040FFF729
:10108000C7FE01E0963A9040002C00D0404210BDCF
:1010900030B5041E71F1000404DB4FF000444042FF
:1010A00064EB0101141E73F1000405DB1C464FF0D4
:1010B0000043524263EB0403994208BF904230BDA3
:1010C000064C074D06E0E06840F0010394E8070095
:1010D00098471034AC42F6D3FFF76CF8E0DE000816
:1010E00000DF00082DE9F34F8BB04FF0000801F14D
:1010F0000C000C464FF0010B46460DF1080A01901A
:101100006269012101989047051E2DD0252D2CD014
:10111000216A8847C0B16269012101989047216A1C
:1011200088470028F7D1411E62690198904700E086
:10113000761CA1690B988847216A88470028F7D157
:10114000E1690B988847DBE7A1690B988847074658
:10115000A84201D1761CD3E7E1690B9888477F1C30
:1011600002D1B8F1000F6FD046E1002762693D4619
:101170003946019890472A2804D1626901210198D3
:1011800090470125DFF88492626901210198904718
:10119000A0F130010A290AD24F45E5DC07EB8701AF
:1011A00000EB4107303FDFD445F01005ECE7E906DE
:1011B00001D46FF000476C280AD04C2814D068285E
:1011C00015D06A280DD074281CD07A281AD01DE0BA
:1011D00062690121019890476C2802D045F004050E
:1011E00014E045F002050DE045F020050AE06269D3
:1011F000012101989047682802D045F0080505E0D4
:1012000045F400656269012101989047C4E90157DE
:1012100065283DD019DC58287AD00CDC452837D019
:1012200004DC252826D0412831D131E046282FD0B2
:1012300047282CD12CE05B2877D0612828D0632860
:101240007CD0642823D15AE0D0E06F2848D008DC55
:1012500066281DD067281BD0692821D06E2816D19A
:1012600027E0702845D0732868D0752847D07828A3
:101270000DD14DE0A1690B988847054625283FF41C
:1012800069AFE1690B9888476D1C3FF46AAFB3E022
:1012900023466A466FF001000B99FFF7C1F99EE003
:1012A00045F040006060A80723464FF0000236D4A6
:1012B0003EE0E8077FF447AF2068011D2160006829
:1012C000290501D506701BE7290701D5068017E718
:1012D000A90703D5F117C0E9006111E706600FE720
:1012E00045F040006060A80723464FF0080216D47E
:1012F0001EE040F60E0125EA0100606016E045F0B0
:1013000040006060A80723464FF00A0207D40FE0B0
:1013100045F040006060A80708D5234610226FF012
:1013200001000B99AFF3008059E007E0234610223B
:101330006FF001000B99FFF739F850E04FF000090A
:101340004F464B46632802D05B2806D040E0E806B3
:1013500001D40120A06001273AE0626901210198CF
:1013600090475E2805D14FF001096269494601980E
:101370009047216939B900210A46534643F8212094
:10138000491C0829FADBB0B3216969B9C11700EB20
:10139000D16253110AEB830122F01F02821A01204D
:1013A0000B68904003430B606269012101989047EC
:1013B0005D28E8D1B9F1000F09D00020514651F85D
:1013C0002020D24341F82020401C0828F7DB02AB44
:1013D000224600976FF001000B99AFF300800028C0
:1013E0000CDA401C08D1BBF1000F05D04FF0FF30E4
:1013F0000DB0BDE8F08FFFE74046F9E7E90701D1FE
:1014000008F1010806444FF0000B79E6CCCCCC0C77
:1014100010B502F0CCF8012202211B4802F08AF933
:101420000021194802F0B8F802220121164802F002
:1014300077F803230A220021134802F013F903234B
:101440000C220121104802F00DF91423C0220021C2
:101450000D4802F0E3F80C4802F0FDF80A4802F0EB
:10146000B0F8094802F0B2F800220121064802F063
:10147000BBF8054802F0AFF8012003F09DFF0248D9
:1014800002F039F810BD0000002001400CB500202A
:1014900001900090694601A800F004F8BDF804002E
:1014A0000CBD000000B101B97047044A12880280E7
:1014B000024A52880A8000BFF6E700008C00002034
:1014C00010B540F6024007F0D5F841F2081007F0D9
:1014D000D1F8052300220321074805F01CFF4FF433
:1014E000403002F047F8FFF793FF00F093F8012136
:1014F000024802F00DF910BD000802400020014032
:1015000000BFFEE710B504462146024803F0E0FCA8
:1015100010BD00000074004010B541F21D0007F03E
:10152000A9F84FF4406007F0A5F83023002203210A
:10153000114805F0F0FE114803F09CFC00210F4813
:1015400003F0B9FC01210D4803F0B5FC00210B4864
:1015500003F0A4FC0121094803F0A0FC00231A4673
:101560001946064803F066FC00231A460121034889
:1015700003F060FC10BD0000000002400074004059
:1015800070B505460C46B4F5805F01D340F6FF7494
:10159000234600222946024803F04CFC70BD00009F
:1015A0000074004070B52DED028B0446B0EE408A09
:1015B000B0EE480A00F008F8054629462046FFF735
:1015C000DFFFBDEC028B70BDB5EEC00AF1EE10FA84
:1015D00001D800207047DFED0D0AB4EEE00AF1EE0D
:1015E00010FA02DB40F6FF70F4E7DFED080A80EE48
:1015F000201ADFED071AF6EE000A41EE210AFCEE92
:10160000E00A10EE900A80B2E4E700006666E63F6A
:1016100000F07F4500B589B040F6164007F02AF883
:101620000021124803F011FF1148009001200190A1
:1016300010480290002003904FF4006004900020B6
:101640000590069002200790000408906A46002149
:10165000064803F0A9FF00221146044803F0E2FE09
:101660000021024803F0CEFE09B000BD0064024034
:101670004C2001408C0000207047000001480068A9
:10168000704700007C00002000BFFEE710B54FF45B
:10169000007301221146124805F03DFE4FF400731D
:1016A000022201210E4805F05DFE4FF400710C4846
:1016B00005F027FE4FF48071094805F022FE00F086
:1016C00075F84FF40071064805F019FE00F06EF849
:1016D0004FF48071024805F012FE00F067F810BD6B
:1016E0000004024010B54FF40073012211460E4869
:1016F00005F011FE4FF40073022201210A4805F0A3
:1017000031FE4FF40071084805F0F9FD4FF4807187
:10171000054805F0F6FD00F049F84FF40071024865
:1017200005F0EFFD10BD00000004024010B50024DC
:101730004FF400711C4805F0E4FD00F037F84FF459
:101740008071194805F0DDFD00F030F84FF40073AA
:1017500001220021144805F0DEFD06E0601CC4B241
:10176000FE2C02DDFFF7BEFF10BD4FF400710E48E6
:1017700005F0C9FD0028F1D14FF480710A4805F049
:10178000BEFD00F013F84FF4007301221146064825
:1017900005F0C1FD4FF4007302220121024805F05B
:1017A000E1FD00BFE0E700000004024008B578203A
:1017B000009000BFBDF80000411E89B200910028D2
:1017C000F8D108BD02460748805C084040B10129B5
:1017D00004D00448805C8843024B98540120704731
:1017E0000020FCE708000020F8B5002439E01E487E
:1017F00050F824101D4805F086FD05461A4850F89B
:1018000024101A4805F07FFD0646B54202D10DB9F5
:10181000012000E000200DF804001DF80400144928
:10182000095D884209D11348005D022808DA114891
:10183000005D401C0F49085502E000200D49085585
:101840000C48005D022806DB1DF804000A49085513
:101850000220084908551DF8040005490855601C78
:10186000C4B2042CC3DBF8BD1CB400080010024055
:101870001A0000201E00002004000020014601483C
:10188000405C70470400002010B540F6044006F0AC
:10189000F1FE4FF42A4301220021024805F03BFDEE
:1018A00010BD00000010024010B5FFF79DFF05F0CD
:1018B0008DFD10BD10B540F6014006F0DBFE4FF483
:1018C000A04300220121084805F025FD4FF4A04364
:1018D00002220021044805F045FD4FF4A0410248D2
:1018E00005F00DFD10BD00000004024000BFFEE742
:1018F0007047000010B5002807DA0A07140E054AE1
:1019000000F00F031B1FD45403E00A07130E024A12
:10191000135410BD18ED00E000E400E070B50024A1
:101920000CE0002506E00020074901EB8501085581
:10193000681CC5B2802DF6DB601CC4B2042CF0DB41
:1019400000F012F970BD0000E400002070B50B46F5
:10195000CE1701EB5676C6F3C702CE1701EB5676CB
:10196000F610A1EBC606F4B20123A340DDB20E4B84
:1019700003EB80039B5CDB430B4E06EB8006B3540A
:10198000094B03EB80039B5C2B43074E06EB800661
:10199000B354054B03EB80039B5CDB43024E06EB29
:1019A0008006B35470BD0000E400002070B50A4604
:1019B000CE1701EB5676C6F3C703CE1701EB56766A
:1019C000F610A1EBC606F4B20122A240D5B2054A38
:1019D00002EB8002D25C2A43024E06EB8006F254F0
:1019E00070BD0000E400002010B5C82003F0E4FC46
:1019F00040F6014006F03EFE4FF48073012211468E
:101A00004B4805F088FC4FF48073022201214848BE
:101A100005F0A8FC4FF48071454805F072FC4FF4C6
:101A2000007301221146424805F075FC4FF4007323
:101A3000022201213E4805F095FC4FF400713C481C
:101A400005F05FFCC82003F0B7FC0021AE2000F0D9
:101A500050F90021084600F04CF90021102000F058
:101A600048F90021402000F044F90021812000F0D5
:101A700040F90021CF2000F03CF90021A12000F026
:101A800038F90021C82000F034F90021A62000F028
:101A900030F90021A82000F02CF900211F2000F0CF
:101AA00028F90021D32000F024F90021084600F095
:101AB00020F90021D52000F01CF90021802000F041
:101AC00018F90021D92000F014F90021F12000F0CC
:101AD00010F90021DA2000F00CF90021022000F0BA
:101AE00008F90021DB2000F004F90021402000F07B
:101AF00000F90021202000F0FCF80021022000F075
:101B0000F8F800218D2000F0F4F80021142000F0F6
:101B1000F0F80021A42000F0ECF80021A62000F04D
:101B2000E8F80021AF2000F0E4F8FFF7F7FE10BD61
:101B3000000402400FB470B5C2B004460D4616460C
:101B40004AA8019002A8019A499900F0BBFB002025
:101B50000190E9B2E0B2334602AA00F0A9F842B01F
:101B600070BC5DF814FB000070B500241CE004F1AB
:101B7000B001C8B2002100F0BCF80021084600F016
:101B8000B8F80021102000F0B4F8002508E008495A
:101B900001EB8501085D012100F0ABF8681CC5B2BE
:101BA000802DF4DB601CC4B2042CE0DB70BD0000AF
:101BB000E40000202DE9FF4F81B080460E461C4610
:101BC00000962046E31704EB5373DB1021464FEADF
:101BD000E47C04EB5C7C4FEAEC0CA4EBCC0CBCF199
:101BE000000F02D04FF0010C01E04FF0000C6344F5
:101BF000224604EBD27C4FEA6C0C03FB0CF303F09F
:101C0000FF0B03982038C7B2002547E00C2C07D102
:101C100007EB4700234901EB800010F805A014E012
:101C2000102C05D1204800EB071010F805A00CE09F
:101C3000182C07D107EBC7001C4901EB800010F8F6
:101C400005A002E005B0BDE8F08F4FF000091FE0ED
:101C50000AF0800020B131464046FFF7A7FE03E0BE
:101C600031464046FFF772FE4FEA4A604FEA106A7B
:101C7000701CC6B20098301AA04205D1009E08F12F
:101C8000010000F0FF0806E009F1010000F0FF0983
:101C9000B9F1080FDCDB00BF681CC5B25D45B5DBE0
:101CA00000BFCFE744BC0008B8C00008A8C60008C1
:101CB000F0B506460F4614461D4613E022782B4623
:101CC00039463046FFF776FF284605EBD07106EB24
:101CD0006101CEB2C5F18000B04202DA0026B81C24
:101CE000C7B2641C2078202802DB20787E28E5DD3E
:101CF000F0BD70B505460C46FFF7C8FC782000F033
:101D0000D3F8FFF713FD1CB1402000F0CDF802E03E
:101D1000002000F0C9F8FFF709FD284600F0C4F8DC
:101D2000FFF704FDFFF7DEFC70BD704710B541F210
:101D30001C0006F09FFC05F08DFF2048006845F26E
:101D40005001884233D04FF4E05006F0D3FB00BF7F
:101D50004FF4E05006F0E0FB0128F9D1000206F054
:101D6000BFFC41F60F4006F085FC07F0ABF91421EB
:101D70001348FEF7B2FA7F2011490881FF204881FD
:101D80002420087003204870052088700220C87045
:101D9000122008710020487188710861C8600846E7
:101DA00007F0D6F845F250000449086005E041F616
:101DB0000F4006F05FFC07F085F910BD5028004089
:101DC0002403002070B5044605F044FFCA202049D2
:101DD00008605320086007F087FA1E4D00BF0420FA
:101DE00007F0ACF818B9281EA5F10105F7D11DB907
:101DF00019A006F0F9FF70BD042007F047FA24B1DE
:101E0000611E88B207F0AEFA02E0002007F0AAFADD
:101E1000002211464FF4800003F082FD4FF48060F1
:101E200007F084F84FF4800003F0E0FD4FF48040A9
:101E300007F02AF94FF4800003F0D0FD002211468C
:101E4000032005F073FE07F079FA00BFD3E7000026
:101E500024280040FFFF0F005B4552525D2057547D
:101E6000572074696D656F75740D0A0010B54FF4D5
:101E7000806007F063F848B105F0ECFECA2006491F
:101E8000086053200860081507F050F84FF48000F0
:101E900003F0ACFD10BD00002428004010B507F091
:101EA000C3FB10BD7047000070B50446002524E058
:101EB0004FF48071124805F022FA04F0800028B136
:101EC0004FF400710E4805F01CFA04E04FF4007165
:101ED0000B4805F014FAFFF769FC4FF480710848CD
:101EE00005F00FFAFFF762FC4FF48071044805F02B
:101EF00006FA6006040E681CC5B2082DD8DB70BD5A
:101F00000004024010B503F061FA10BD08B5304876
:101F1000006840F470002E4908602E48006840F0C8
:101F200001002C49086000BF2A48006800F0020048
:101F30000028F9D000BF27480830006840F0800032
:101F40002449083108600020009002E00098401CFD
:101F5000009000985028F9D31E480830006840F0DF
:101F600090001C49083108600020009002E00098B1
:101F7000401C009000985028F9D300BF1548083045
:101F8000006820F003001349083108601148006818
:101F9000114908400F4908600846006820F4802075
:101FA000086000200B490831086000BF094808306C
:101FB000006800200028F9D108480649091D08607A
:101FC000002004490C31086008F09CF908BD0000AD
:101FD00088ED00E000380240FFFFF6FE10300024DC
:101FE00010B50121244808F01AFB012842D12348EA
:101FF0000068401C21490860084600680521B0FBC4
:10200000F1F201FB120008B9FFF74EFC1C480088F2
:1020100000281CDD1A480088401E1949088008461F
:10202000008841F27071884202D101201549087080
:102030001348008840F6B831884202D10120124985
:1020400008700F48008810B9012010490870104826
:10205000008800280ADD0E480088012801D10D49BA
:1020600008700B480088401E094908800121024879
:1020700008F0D2FA10BD0000001400407C000020DF
:10208000C2000020C4000020C5000020C6000020BF
:10209000960000209400002010B54FF48071044891
:1020A000FEF71BF90020034908800349087010BDA2
:1020B000DD230020660000206800002010B5054BDD
:1020C000054A0621054803F05BFB03F029FBFFF7F7
:1020D000A1FA10BDDD24002004440040006002404D
:1020E00010B51E491E4809F05EF8002835D01C487E
:1020F00008F0B0FF1B49087005F0C6F81A490880BF
:1021000008460088FF2801DDFF2008801648048863
:1021100000200EE01549095C0A2903D01349095C27
:102120000D2904D10021114A1154044605E0411C37
:1021300088B20D4909888842ECDB00BF0A48008854
:10214000844204D100210948074A128881540120A1
:102150000749087006F030FE00BF10BD04030400FC
:10216000004400406400002066000020DD230020C1
:102170006800002010B540F6034006F07BFA40F6F8
:10218000044006F077FA41F2110006F073FA4FF4BA
:102190008073002201212F4805F0BDF84FF48073B1
:1021A000022200212B4805F0DDF84FF48071294808
:1021B00005F0A5F8202301220221274805F0ABF8FD
:1021C00020220721244805F06BF840230122022138
:1021D000214805F0A0F8402207211F4805F060F8CB
:1021E000FFF76CFF1D4808F03BFF4FF4E1311B483F
:1021F00008F0BCFE0021194809F011F80021174829
:1022000008F0FDFF0021154808F0E9FF08211348F8
:1022100008F0FDFF0421114808F0E9FF80210F4874
:1022200008F096FF40210D4808F088FF00220221A7
:10223000262005F07BFC4FF44171084808F0A6FF0A
:10224000064808F08FFFFFF727FF002004490870B9
:1022500010BD000000100240000C0240004400408D
:102260006400002000BFFEE70FB41CB5024600204A
:1022700007AC00290BD0491ECDE90021054B6A4669
:102280002146069800F090FD009A002111701CBCB8
:102290005DF814FBD73400087CB5044600201D46C9
:1022A000164600290BD0491ECDE90041044B6A4671
:1022B0002946304600F078FD009A002111707CBD5F
:1022C000D734000837B514460846064B6A462146FF
:1022D00000F06AFD04466946002001F007F9204637
:1022E0003EBD0000ED34000810B52DED028BF0EE80
:1022F000408A18EE900AFEF7C2FD08EE100A18EEAA
:10230000900AB7EE000A78EEC80A10F0004F4FF0BE
:102310007F4010EE901A12D0B1F13F4F24BF10EE63
:10232000901AB0EB410F12D210EE901AB1F17C5F0F
:102330001CDD10EE901AB0EB410F17D314E0B1F191
:102340003F4F07D910EE901AB0EB410F02D338EE91
:10235000408A0BE010EE901AB1F17C5F06DB10EEC4
:10236000901AB0EB410F01D338EE008A18EE101A24
:10237000B1F19E4F04DD18EE101AB0EB410F09D2F7
:1023800018EE101AB1F14F4F07D918EE101AB0EB32
:10239000410F02D3012000F08BF818EE100ABDECBB
:1023A000028BBDE81040FEF74DBE000000000000AB
:1023B00010B52DED020B2DED088B84B09DED0C0BAF
:1023C00051EC100BFEF7D6FD41EC180B9DED0C0BFC
:1023D00053EC182B51EC100BFEF7DFFA41EC190B04
:1023E0000D989FED290B10F0004F53EC102B51EC82
:1023F000190B9FED21AB9FED22BB0ED0FEF7D4FB56
:102400000ED953EC1B2B51EC190BFEF741FE1CD2DD
:1024100014E000BF41EC180B17E0FEF7C5FB06D235
:1024200053EC1A2B51EC180BFEF7B7FAF2E753EC0A
:102430001B2B51EC190BFEF72BFE06D853EC1A2B75
:1024400051EC180BFEF708FAE4E78DED028B9DEDD9
:102450000C0B18EE901A10EE900A8DED000B61F344
:102460001E0003909DED020B04B0BDEC088B02B082
:1024700010BD000000000000000000000000F03F60
:10248000000000000000E03F000000000000E0BF8E
:1024900002E008C8121F08C1002AFAD1704770472D
:1024A000002001E001C1121F002AFBD1704700008B
:1024B0000149086070470000E00000202DE9F04766
:1024C00088B081460C4615460027A2461EE004F15E
:1024D0002000A84202D24FF0200801E0A5EB04083A
:1024E00043466A462146484600F037F800260AE08F
:1024F000FF2F05D01DF80600FF2801D104EB060AC6
:102500001DF80670761C4645F2D32034AC42DED36B
:10251000FF2F03D1504608B0BDE8F0872846FAE700
:102520000146487E08B1002070478868001DFBE71F
:102530002DE9F04104460D4616460027607E10B195
:102540000120BDE8F08132462946A06803F098FAE0
:10255000002800DA01273846F3E72DE9F041044668
:102560000D4616461F464FF00008607E10B102204F
:10257000BDE8F0813B4632462946A06803F056FB91
:10258000002801DA4FF002084046F1E72DE9F04754
:1025900004460D4616461F46DDF820904FF0000811
:1025A000607E10B10320BDE8F0873B4632462946E5
:1025B000A06803F0D3FB002801DA4FF0030840467F
:1025C000F1E72DE9FC4782460E4617461C464FF0C0
:1025D00000084FF00109FF22494601A8FDF776FEE9
:1025E00044B1002023463A46314600905046FFF75A
:1025F000CDFF8046251BB8F1000F0ED16DB1E1195A
:102600002A4601A8FDF750FE0020A1194B4601AA59
:1026100000905046FFF7BAFF80464046BDE8FC8771
:1026200030B502460023481E0146044606E0C800B5
:1026300002EBD000007800B904E05B1C081EA1F199
:102640000101F4D100BFE01A30BD00002DE9F047D0
:1026500004460F4615469846DDF8209064B953A00D
:1026600006F0C2FB54A006F0BFFB544A54A155A08B
:1026700006F0BAFB00BFFEE767B94CA006F0B4FB5A
:102680004DA006F0B1FB4D4A56A14EA006F0ACFBA2
:1026900000BFFEE765B945A006F0A6FB46A006F020
:1026A000A3FB464A51A147A006F09EFB00BFFEE7F0
:1026B000207E10B10020BDE8F087276084F80480F8
:1026C000C4F82490607E002833D103F0CBF928466B
:1026D00003F06AFAA06058B934A006F085FB36A072
:1026E00006F082FB294643A006F07EFB0420E2E7C9
:1026F000A16801F11C0003F07FF9066AE06808B9DF
:10270000E66012E0E068B0FBF6F106FB110060B194
:1027100026A006F069FB28A006F066FB32463EA024
:10272000E16806F061FB0820C5E7A068806B2061C6
:1027300000BFE068411E084060B11CA006F054FBD9
:102740001DA006F051FB1D4A43A11EA006F04CFB44
:1027500000BFFEE7D4E90310B0FBF1F201FB120069
:1027600060B112A006F040FB13A006F03DFB45A0AF
:10277000D4E9032106F038FB08209CE7D4E90310D4
:10278000B0FBF1F002280FD208A006F02DFB0AA042
:1027900006F02AFBD4E90310B0FBF1F631464948B4
:1027A00006F022FB082086E7002084E75B466C6188
:1027B000736844425D0000002000000097D40008C8
:1027C0006462000028257329206861732061737397
:1027D000657274206661696C65642061742025737C
:1027E0002E0A00006E616D65000000007061746863
:1027F000000000004572726F723A20506172746975
:1028000074696F6E2028257329206E6F7420666F9F
:10281000756E642E0A0000004572726F723A206471
:102820006220736563746F722073697A652028254E
:102830007529204D55535420616C69676E20776966
:10284000746820626C6F636B2073697A6520282539
:102850007A75292E0A0000002864622D3E73656394
:102860005F73697A652026202864622D3E73656354
:102870005F73697A65202D20312929203D3D203064
:10288000000000004572726F723A20646220746F1B
:1028900074616C2073697A652028257529204D554F
:1028A000535420616C69676E207769746820736582
:1028B00063746F722073697A6520282575292E0A42
:1028C000000000003CDB0008F8B504460D464DB999
:1028D000012020761048007800281BD101200E49E5
:1028E000087017E0A07EA8B90CA006F07DFA0EA033
:1028F00006F07AFA2046FFF713FE06460095207987
:10290000226808B909A000E00AA0014633460BA0DE
:1029100006F06AFAF8BD0000780000205B466C61A2
:10292000736844425D000000200000004B564442A2
:102930000000000054534442000000004572726FD2
:10294000723A202573202825734025732920697346
:1029500020696E697469616C697A65206661696C69
:1029600020282564292E0A0070B5A0B00446002551
:1029700000200390012084F831000020244903AB9B
:102980000246CDE90041029004A9204606F06CFF02
:10299000A07E20B1039810B1022020B070BDD4E910
:1029A0000310B0FBF1F00399884211D119A006F091
:1029B0001BFA2046FFF7B4FD0646324619A02168EF
:1029C00006F012FA1AA006F00FFA204603F02EFCC9
:1029D00000202449CDE900012346024604A90290C3
:1029E000204606F041FF00BF1F48002322460AA9E7
:1029F0000090204604F0C4FE94F8300018B1204640
:102A000004F0F7F9F0E7002084F831002846C4E725
:102A1000EF3A00085B466C61736844425D5B6B761D
:102A20005D0000005B25735D5B25735D2000000089
:102A3000416C6C20736563746F72206865616465B6
:102A40007220697320696E636F72726563742E20E1
:102A500053657420697420746F2064656661756CB9
:102A6000742E0A00653900088D3900082DE9F041FF
:102A700006460F4614461D4664B90EA006F0B4F98A
:102A800011A006F0B1F9114A11A115A006F0ACF998
:102A900000BFFEE7681E072101EBC000C308224605
:102AA00039463046FFF759FD29462046FFF7B8FD65
:102AB000BDE8F0815B466C61736844425D5B757490
:102AC000696C735D00000000200000001AD9000846
:102AD0007374617475735F7461626C6500000000EB
:102AE00028257329206861732061737365727420CF
:102AF0006661696C65642061742025732E0A00008C
:102B00002DE9F04105460E4614464FF0FF37701E82
:102B1000072202EBC000C108FF222846FDF7D6FBC2
:102B200014B1671E0020E8553846BDE8F08100006A
:102B30002DE9F84F81460F4615461E46DDE90A8A03
:102B40004FF0000BB0450CD318A006F04DF91CA0B7
:102B500006F04AF91B4A1CA122A006F045F900BF65
:102B6000FEE765B911A006F03FF915A006F03CF9A3
:102B7000144A24A11BA006F037F900BFFEE7424625
:102B800031462846FFF7BCFF0446601C10B9002000
:102B9000BDE8F88F2A19391901234846CDF800A05D
:102BA000FFF7F4FC83465846F2E700005B466C6191
:102BB000736844425D5B7574696C735D000000006E
:102BC0002000000008D900087374617475735F6990
:102BD0006E646578203C207374617475735F6E75E4
:102BE0006D000000282573292068617320617373CC
:102BF000657274206661696C656420617420257358
:102C00002E0A00007374617475735F7461626C6581
:102C1000000000002DE9FF5F82B00021DDE90430F3
:102C2000020DDDF840B0034318D044F61050A2F274
:102C3000FF3242431514119801281FD0A5EB0B0059
:102C4000401C5FEA000A4FF000064E4FDFF8389153
:102C5000B046504615D5CAF1000413E0119801247E
:102C60004AA3012801D16FEA0B010298119AC0E929
:102C70000031C0E9024206B0BDE8F09FCBF1000090
:102C8000DFE704460021404A491842EB0450CDE9F1
:102C9000001012E0E00707D032463B464046494666
:102CA000FDF781FE8046894632463B46104619466E
:102CB000FDF779FE06460F466410002CEAD1DDE9E7
:102CC0000401DDE90023BAF1000F06DAFDF76BFE1F
:102CD00042464B46FDF767FE05E0FDF7D6FE42464D
:102CE0004B46FDF7D2FE04460E460022284BFEF767
:102CF000CFF903D84FF0FF30014607E00022254B03
:102D000020463146FDF7A8FDFEF784F9102409E0BE
:102D1000002C0ADB0A220023FDF790FF039B3032D0
:102D20001A55641E50EA0102F2D1641C039AC4F1E0
:102D300011031444119A012A03D0012208430DD132
:102D40000AE0084304D000204FF0110B119072E705
:102D5000A3EB0B056D1E0DE05B4504DD4FF000029B
:102D600005F1010504E003DA4FF00002A5F10105C9
:102D7000002AECD002981199C0E90231C0E900455F
:102D800079E70000000014400000F03F3000000030
:102D90000000F0430000E03F30380A2801D2012053
:102DA00070470020704700002DE9FF4F95B09B460B
:102DB0008946064600250FE2252877D100242746BC
:102DC000F84A0121059400E0044316F8013F203B36
:102DD00001FA03F01042F7D130782A2811D06FF0B1
:102DE0002F033078A0F13002092A16D8059A44F052
:102DF000020402EB820203EB42021044761C0590AF
:102E0000EFE759F8042B0592002A03DA504244F404
:102E10000054059044F00204761C30782E2816D118
:102E200016F8010F44F004042A280DD06FF02F0289
:102E30003078A0F13003092B09D807EB870302EBA8
:102E40004303C718761CF3E759F8047B761C3078E7
:102E50006C280FD006DC4C2817D068280DD06A28C3
:102E600014D104E0742810D07A280FD10DE044F476
:102E700000140AE044F4801401E044F44014727831
:102E8000824202D104F58014761C761C30786628C4
:102E90000BD013DC582877D009DC002875D04528E2
:102EA000F6D04628F4D047281AD19DE118E06328CF
:102EB00035D0642879D0652812D195E1702873D077
:102EC00008DC6728F1D069286FD06E280DD06F28F4
:102ED00006D1B5E073282CD0752875D0782874D029
:102EE0005A46179990476D1C75E1C4F302500228A9
:102EF00009D003280DD0D9F8001004280DD00D609A
:102F000009F1040967E1D9F80010EA17C1E9005294
:102F1000F6E7D9F800100D80F2E70D70F0E719F828
:102F2000041B8DF8001000208DF80100EA460120F6
:102F300003E059F804AB4FF0FF3061074FF0000198
:102F400002D40DE008F101018846B9420FDA80454C
:102F5000F8DB1AF808100029F4D108E008F10101A3
:102F600088468142FADB1AF808100029F6D1059844
:102F70005B46A0EB080721463846179A00F094FA02
:102F8000284400EB080507E04DE029E10DE01AF8C0
:102F9000010B5A4617999047B8F10108F7D25B46E2
:102FA00021463846179A13E142E00A220092C4F300
:102FB00002524FF0000A022A08D059F804CB032A23
:102FC0004FEAEC710AD00DE029E02AE009F107018F
:102FD00021F00702F2E802C1914609E00FFA8CFCE9
:102FE0004FEAEC71042A03D14FFA8CFC4FEAEC71E2
:102FF000002907DA0A460021DCF1000C61EB02012E
:103000002D2202E0220504D52B228DF80420012276
:1030100003E0E20701D02022F7E7904659E00A21B9
:1030200002E010220DE010214FF0000A00910BE0A9
:1030300010224FF0000A44F004040827009203E035
:1030400008224FF0000A0092C4F30252022A05D06F
:1030500059F804CB0021032A08D009E009F107013F
:1030600021F00702F2E802C1914605E01FFA8CFC4C
:10307000042A01D10CF0FF0C4FF00008220728D5DC
:10308000702806D0009B83F0100353EA0A0305D092
:103090000EE040228DF80420012208E05CEA0102E3
:1030A00006D030228DF804208DF8050002229046CB
:1030B000009B83F0080353EA0A030AD15CEA010289
:1030C00001D1620705D530228DF804204FF00108A8
:1030D0007F1E582804D034A003900EA802900DE063
:1030E00036A0F9E753466046009AFDF7A7FD8446EF
:1030F0000398825C0298401E029002705CEA010014
:10310000F0D1029806A9081A00F1200A600702D53A
:1031100024F4803400E00127574502DDA7EB0A00C4
:1031200000E0002000EB0A01009005984144401A9D
:103130000590E00306D45B462146179A059800F0F7
:10314000B3F90544002706E001A85A46C05D179967
:1031500090476D1C7F1C4745F6DBE0030CD55B46B2
:103160002146179A059800F09FF9054404E03020A5
:103170005A46179990476D1C0099481E00900029E7
:10318000F5DC08E0029802995A460078491C029141
:10319000179990476D1CBAF10001AAF1010AF1DC00
:1031A00065E100000928010030313233343536370B
:1031B0003839616263646566000000003031323383
:1031C0003435363738394142434445460000000023
:1031D00000F058F90544761C307800287FF4ECADF7
:1031E00019B02846BDE8F08F620700D4062709F120
:1031F000070222F0070CFCE80223E14603F0004836
:103200005FEA080C02D00FF2702C0DE05FEA045C5C
:1032100002D50FF2682C07E05FEAC47C02D00FF2FF
:10322000602C01E0AFF2700C4FF0FF3823F0004348
:10323000CDF850C065280CD006DC452809D04628BA
:103240001DD047283DD13DE0662818D067287ED1A3
:1032500038E00021112F01DB112000E0781CCDE9BE
:10326000000106A90EA8FFF7D5FCDDE90F010E9AB3
:1032700003910021009207F1010A04914DE04FF003
:1032800000400097CDE9011006A90EA8FFF7C2FC87
:10329000DDE90F0203920E9B11990022DDF80CA0CC
:1032A0000093049211B9791C00EB010AB7EB0A00F4
:1032B00004D4C0F1FF3007F1010A0490AAEB070023
:1032C000019044E0012F00DA01270021112F01DDD8
:1032D000112000E03846CDE9000106A90EA8FFF74D
:1032E00099FCDDE90F010E9A0391002104910092EF
:1032F000BA4621070CD40399514500DA8A46BAF13F
:10330000010F05DD009AAAF10101515C302908D0B6
:10331000B84202DA10F1040F06DA0121CDE90110FA
:1033200015E0AAF10101E9E7002805DC0499014450
:103330000491AAEB000102E0411C514500DD8A46E0
:103340000499401A401C01904FF000400290200761
:1033500004D40198504501DBCDF8048000208DF89D
:103360004F0002980DF14F07B0F1004F25D02B20F0
:103370000E9002984FF0020800280CDA40420290AA
:103380002D200E9007E00A210298FDF741FC303114
:10339000029007F8011DB8F10001A8F10108F2DC64
:1033A00002980028EFD1791E0E980870307800F04E
:1033B000200040F0450007F8020D12A8C01B00F1E4
:1033C00007081498007800B1012000EB0A01019869
:1033D00001EBE07105984144401A401E0590E0035E
:1033E00006D45B462146179A059800F05DF805441F
:1033F0001498007818B15A46179990476D1CE0034D
:1034000024D55B462146179A059800F04DF80544EF
:103410001CE00498002807DBDDE90301884203DD96
:103420000098405C179901E0179930205A46904760
:10343000049805F10105401C04900198401E01907C
:1034400004D12E205A46179990476D1CBAF10001FD
:10345000AAF1010ADDDC05E017F8010B5A461799BD
:1034600090476D1CB8F10001A8F10108F4DC5B463F
:103470002146179A0598ABE62D0000002B000000AE
:10348000200000002DE9F041044600251E461746A5
:10349000880404D405E039462020B0476D1C641E22
:1034A000F9D52846BDE8F0812DE9F0410446002514
:1034B0001E469046C80301D5302700E02027880427
:1034C00004D505E041463846B0476D1C641EF9D569
:1034D0002846BDE8F0814A68002A06D00A68531CD5
:1034E0000B6010704868401E486070470A68531CA3
:1034F0000B6010707047816841F00801816000BF67
:10350000816801F008010029FAD1816841F00401C5
:10351000816000BF816801F004010029FAD1704781
:1035200030B5012902D0022920D10FE06AB1102A5A
:103530000BD8C36A23F47003C362C36A541E4FF4EA
:10354000700505EA04542343C36210E06AB1042AFB
:103550000BD8836B23F440138363836B541E4FF4A7
:10356000401505EA04542343836300E000BF00BF15
:1035700030BD00000649096821F4E021054AC2F87F
:1035800004131146D1F804130143C2F80413704721
:10359000042301400020014021B1826842F400620E
:1035A000826003E0826822F400628260704710B596
:1035B00040F6081005F082F840F6081005F06CF8A7
:1035C00010BD816841F4807181607047816841F469
:1035D000007181607047816801F0010119B981684B
:1035E00041F0010181607047012902D0022912D106
:1035F00008E0836823F040538360836843EA0273E2
:10360000836009E0836823F440138360836843EA9E
:103610000253836000E000BF00BF704730B5B1F5D2
:10362000007F06D1D0F8804044F40074C0F8804098
:1036300005E0D0F8804024F40074C0F8804050F8D1
:10364000804F24F4FE740460046842EA03052C43AE
:1036500040F8804930BDD0F8801041F00101C0F839
:1036600080107047F0B51D4606290CDA436B01EB5C
:1036700081071F26BE40B34301EB810602FA06F61E
:103680003343436322E00C290EDA036B8E1F06EBF3
:1036900086071F26BE40B3438E1F06EB860602FA3E
:1036A00006F63343036311E010290FDAC36AA1F170
:1036B0000C0606EB86071F26BE40B343A1F10C069D
:1036C00006EB860602FA06F63343C3620A2A0CDAD0
:1036D000046902EB42070726BE40B44302EB4206F0
:1036E00005FA06F63443046111E0122A0FDCC468BF
:1036F000A2F10A0606EB46070726BE40B443A2F134
:103700000A0606EB460605FA06F63443C460F0BD29
:10371000012902D002290AD104E0826842F08042E5
:10372000826005E0826842F48002826000E000BFAF
:1037300000BF7047AAB101F480731BB1436843F422
:103740008073436001F480631BB1436843F480637A
:10375000436001F00203CBB1836843F0020383604E
:1037600014E001F480731BB1436823F48073436059
:1037700001F480631BB1436823F48063436001F06C
:1037800002031BB1836823F00203836070470000CB
:1037900070B58AB004460E4615464FF0FF300990CA
:1037A0000020089007900494059509A80690002031
:1037B0001B4907AA08ABCDE9002102900246314619
:1037C000204606F051F8079858B10120154900220B
:1037D00004ABCDE90021029002223146204606F0DA
:1037E00043F80898C0B10998401CA8B90898012866
:1037F00002D894F8300060B101200A49002204ABDD
:10380000CDE90021029002463146204606F02CF810
:1038100002E0012084F8300009980AB070BD000071
:103820004D9900082938000830B503460C4621465A
:10383000187898B11D6948685C3085420ED998782F
:10384000012806D09878022808D1086890F830003E
:1038500020B958698D682860012030BD0020FCE740
:1038600010B52DED028B8CB0B0EE408A04468DED84
:10387000018A1122214602A8FCF74CFD00218DF897
:103880001910182201A907A802F002FB07A9034892
:1038900002F0EEFE0CB0BDEC028B10BD502A0020F1
:1038A0000FB410B596B0104805F000FB19A80090B1
:1038B000402106A8009B189AFEF7EEFC002000901D
:1038C0008DF8570006A8FCF731FD441C224606A9D6
:1038D00001A802F0DDFA01A9044802F0C9FE16B001
:1038E00010BC5DF814FB000024030020B42A002063
:1038F00000B52DED028B87B0F0EE408AB0EE608A05
:10390000CDED008A8DED018A0822694602A802F0F9
:10391000BFFA02A9034802F0ABFE07B0BDEC028B70
:1039200000BD0000EC29002010B52DED028B88B001
:10393000B0EE408AF0EE608A04468DED008ACDED4F
:10394000018AADF808400C22694603A802F0A0FAEB
:1039500003A9034802F08CFE08B0BDEC028B10BD39
:10396000882900202DE9F04104460D4617462E46D1
:10397000207840B1A078032805D1012086F83000D6
:10398000304603F036FA0020BDE8F0812DE9FF4112
:1039900004460D4617462E466078E8B12078032885
:1039A0001AD11BA005F020FA3046FEF7B9FD80467B
:1039B00042461BA0316805F017FAA17804F1100205
:1039C0001A4805F011FA2146304603F09BFFE8B192
:1039D000012004B0BDE8F081207801280AD105213A
:1039E000CDE90010062302AA3046216DFFF7A0F8AA
:1039F0000120EEE7607848B12078022806D1A2784D
:103A000004F110013046236D07F024F80020E0E7B0
:103A10005B466C61736844425D5B6B765D000000E1
:103A20005B25735D5B25735D20000000D4DB00081F
:103A30002DE9F04105460F46002600242BE005EB5A
:103A4000841101F11C0001F0D7FF064606B921E000
:103A500005EB8410406BF169884217DB9222104914
:103A600010A005F0C1F905EB8410F369426B05EB7A
:103A70008410011D104805F0B7F910A005F0B4F945
:103A800000200F490860401EBDE8F0810D4840F855
:103A9000246000BF641CBC42D1D30020F4E70000C6
:103AA00040D400085B452F46414C5D202825733AE1
:103AB000256429200000000008DA00080A00000040
:103AC000740000204823002030B503460D461446FC
:103AD0002078012807D15878032802D05878022886
:103AE00001D15868286058782070002030BD2DE939
:103AF000F04105460C461646287888B92746B04658
:103B00003868401C386098F81A0010B10120BDE8F0
:103B1000F0814FF0FF324046696803F01DF800BFA6
:103B20000020F4E72DE9F04704460F4690463D4655
:103B30002E68207898B924A005F056F93046FEF793
:103B4000EFFC81464A4624A0316805F04DF925A0D6
:103B5000616805F049F901202871BDE8F0876078B7
:103B600002281BD1F06A401C30B92822214606F1F8
:103B70002800FCF799FB25E013A005F035F9304645
:103B8000FEF7CEFC81464A4613A0316805F02CF9B9
:103B90001F4805F029F901202871DEE76078012827
:103BA00010D1A868401CA8606068E860A868012877
:103BB00008D1F06A401C28B92822214606F12800C5
:103BC000FCF772FB0020C8E75B466C6173684442F7
:103BD0005D5B74736C5D00005B25735D5B25735DDD
:103BE00020000000536563746F7220283078253000
:103BF0003858292068656164657220696E666F2097
:103C0000697320696E636F72726563742E0A0000B7
:103C10003CDD000870B58348007801286FD1824CE4
:103C200000E0641C20780D28FBD020780A28F8D00A
:103C300020782028F5D020780928F2D02046FCF7FB
:103C400075FB85B204E00021681E80B20546215450
:103C5000002D0FDD681E205C0D28F4D0681E205C4E
:103C60000A28F0D0681E205C2028ECD0681E205C5A
:103C70000928E8D06DA12046FCF73AFB10B100F00E
:103C800017FDCBE06CA12046FCF732FB38B36CA3E8
:103C9000102200210846FDF74DFFFDF765FF0A20C1
:103CA000FEF790F8002003F0DFFF00224FF44021E0
:103CB000012003F0F1FFFEF729F9FEF75BFA64A09B
:103CC00005F092F866A3102200210846FDF732FFA6
:103CD000FDF74AFF4FF4FA60654908809EE065A150
:103CE0002046FCF705FB10B100F07AFE96E064A1D7
:103CF0002046FCF7FDFA18B100F0B5FD8EE090E02B
:103D000062A12046FCF7F4FA10B100F0EBFC85E06C
:103D100061A12046FCF7ECFA10B100F09DFD7DE0BA
:103D200043A12046FCF7E4FA28B100F0C3FE5DA0F1
:103D3000FFF7B6FD72E05DA12046FCF7D9FA10B19D
:103D400000F030F96AE05CA12046FCF7D1FA10B12E
:103D500000F06AFA62E05AA12046FCF7C9FA10B1F5
:103D600000F088FD5AE058A12046FCF7C1FA10B1D6
:103D700000F0C4FC52E056A12046FCF7B9FA10B19D
:103D800000F0E8FB4AE053A12046FCF7B1FA30B15D
:103D9000012000F051FB52A0FFF782FD3EE056A14A
:103DA0002046FCF7A5FA10B100F0B4FA36E055A1B0
:103DB0002046FCF79DFA10B100F044FA2EE053A122
:103DC0002046FCF795FA28B100F012FE51A0FFF74B
:103DD00067FD23E057A12046FCF78AFA28B100F0DE
:103DE00041FE56A0FFF75CFD18E05BA12046FCF702
:103DF0007FFA28B100F0EAFE59A0FFF751FD0DE06F
:103E00005BA12046FCF774FA28B100F061FC5AA0CF
:103E1000FFF746FD02E05CA004F0E6FF00F069FC5D
:103E200000BF70BD68000020DD23002064616320B6
:103E30007465737400000000736C656570000000A9
:103E4000536C656570204D6F646520202000000074
:103E50000D0A57616B65205570204F4B0D0A00000D
:103E600077616B65207570206F6B2020202000002B
:103E70009600002073616D706C652072656164004E
:103E80006F76657220726561640000006869646520
:103E900020726561640000006C6F67207265616468
:103EA0000000000074657374204F4B00525443208F
:103EB000436F6E6669670000525443206E6F77004F
:103EC000726174696F0000006C696D6974000000B4
:103ED00064616300636F6E66696720736176650075
:103EE000436F6E66696720736176656420746F2026
:103EF000466C617368000000636F6E6669672072CC
:103F000065616400636F6E66000000007374617227
:103F100074000000506572696F6469632053616DBD
:103F2000706C696E6720535441525428434D4429A4
:103F30000000000073746F7000000000506572692B
:103F40006F6469632053616D706C696E67205354B0
:103F50004F5028434D442900756E68696465000020
:103F6000486964652064697361626C65640000007F
:103F700068696465000000004869646520656E61D9
:103F8000626C6564000000005B4552524F525D2038
:103F9000556E6B6E6F776E20436F6D6D616E640D45
:103FA0000A00000030B59BB066A004F01DFFFEF7CC
:103FB00073F800206E49087000BF6D480078002833
:103FC000FBD03F226B4905A8FCF7A4F900208DF82F
:103FD00053006749087005AC00E0641C2078202875
:103FE000FBD020780D28F8D020780A28F5D020784A
:103FF0000928F2D02046FCF799F9054603E0002194
:10400000681E054621547DB1681E205C2028F6D02C
:10401000681E205C0D28F2D0681E205C0A28EED0B5
:10402000681E205C0928EAD0207830B952A004F03C
:10403000DBFE00F05EFB1BB030BD15A816A917AA69
:1040400018ABCDE90032CDE9021019AB1AAA50A184
:104050002046FCF78FF9062805D055A004F0C4FED1
:1040600000F047FBE7E7BDF86800B0F5FA6F21DB29
:10407000BDF8680040F6330188421BDC9DF86400FF
:10408000012817DB9DF864000C2813DC9DF8600004
:1040900001280FDB9DF860001F280BDC9DF85C00F9
:1040A000172807DC9DF858003B2803DC9DF85400D6
:1040B0003B2805DD49A004F097FE00F01AFBBAE7A3
:1040C0009DF86400022803D19DF860001D2813DCD0
:1040D0009DF8640004280BD09DF86400062807D0E2
:1040E0009DF86400092803D09DF864000B2809D1CD
:1040F0009DF860001E2805DD3FA004F075FE00F06D
:10410000F8FA98E79DF854009DF85810CDE9001092
:104110009DF85C309DF860209DF86410BDF8680043
:1041200005F000F838A004F05FFE05F04DF835A06A
:1041300004F05AFE38A0FFF7B3FB00F0DAFA00BF34
:1041400079E700000D0A496E70757420446174654A
:1041500074696D652028595959592D4D4D2D444488
:104160002048483A4D4D3A5353293A0D0A00000071
:1041700068000020DD2300204572726F723A2065CE
:104180006D70747920696E7075740D0A00000000FE
:104190002568752D256868752D2568687520256842
:1041A00068753A256868753A2568687500000000EA
:1041B000466F726D6174206572726F722120557343
:1041C000653A20595959592D4D4D2D4444204848A0
:1041D0003A4D4D3A53530D0A00000000496E766186
:1041E0006C6964206461746574696D652072616EC8
:1041F00067650D0A00000000496E76616C696420F5
:10420000646174650D0A000052544320436F6E666A
:104210006967204F4B0D0A0052544320436F6E666E
:104220006967204F4B00000010B505A004F0DCFDCD
:1042300004F0CAFF02A004F0D7FD00F05AFA10BD46
:104240000D0A000010B52DED028B19A004F0CCFD75
:104250001C480068FCF795FC41EC180B53EC182B3C
:1042600019A004F0C1FD1C480068FCF78AFC41EC71
:10427000180B53EC182B19A004F0B6FD1B4800686E
:10428000FCF77FFC41EC180B53EC182B18A004F042
:10429000ABFD1A4800684FF47A71B0FBF1F4214687
:1042A00017A004F0A1FD00F024FABDEC028B10BDB4
:1042B0000D0A63757272656E7420636F6E6669674E
:1042C0000D0A0000B8000020726174696F3A252E53
:1042D00031660D0A00000000BC0000206C696D69A9
:1042E000743A252E31660D0A00000000CC00002033
:1042F0006461633A252E3166560D0A008400002061
:1043000073616D706C65206379636C653A256473C5
:104310000D0A000010B52DED028B84B0684602F046
:10432000AFFD9DED010A234880ED000A9DED020AD4
:10433000214880ED000A9DED030A204880ED000A27
:104340001F49009808601FA004F04EFD194800683E
:10435000FCF717FC41EC180B53EC182B21A004F0D0
:1043600043FD15480068FCF70CFC41EC180B53ECBE
:10437000182B20A004F038FD10480068FCF701FC61
:1043800041EC180B53EC182B1EA004F02DFD0C482B
:1043900000684FF47A71B0FBF1F421461CA004F0E0
:1043A00023FD21A0FFF77CFA00F0A3F904B0BDECD7
:1043B000028B10BDB8000020BC000020CC00002003
:1043C000840000200D0A7265616420706172616D65
:1043D00065746572732066726F6D20666C617368B8
:1043E0000D0A0000726174696F3A252E3166200D46
:1043F0000A0000006C696D69743A252E3166200D43
:104400000A0000006461633A252E3166200D0A001F
:1044100073616D706C65206379636C653A20256407
:1044200073200D0A00000000436F6E6669672072FA
:10443000656164206F6B000030B52DED028B85B097
:104440000446002C2DD027A004F0CEFC2C48006898
:10445000FCF797FB41EC180B53EC182B29A004F048
:10446000C3FC2C480068FCF78CFB41EC180B53ECA8
:10447000182B29A004F0B8FC2B480068FCF781FB3E
:1044800041EC180B53EC182B28A004F0ADFC2A4883
:1044900000684FF47A71B0FBF1F5294627A004F0CB
:1044A000A3FC01A802F0ECFC154890ED000A8DED8C
:1044B000020A184890ED000A8DED030A1A4890EDA3
:1044C000000A8DED040A1C480068019001A805F05F
:1044D000E3FA00201E49086000F00BF905B0BDECBE
:1044E000028B30BD7361766520706172616D657499
:1044F00065727320746F20666C6173680D0A00002A
:10450000B80000200D0A726174696F3A252E316679
:10451000200D0A00BC0000206C696D69743A252EDC
:104520003166200D0A000000CC0000206461633A6F
:10453000252E3166200D0A008400002073616D7005
:104540006C65206379636C653A256473200D0A00FD
:104550008800002000B52DED028B81B09FED360A5A
:104560008DED000A35480068FCF70BFB41EC180B99
:1045700053EC182B32A004F037FC35A004F034FCC7
:1045800000F0B7F800BF384800780028FBD06A4632
:1045900036A13748FBF7EEFE9DED000AB5EEC00AE6
:1045A000F1EE10FA27DB9DED000AF0EE080AB4EEFA
:1045B000E00AF1EE10FA1ED89DED000A1F4880EDCA
:1045C000000A2CA004F010FC1C480068FCF7D9FA83
:1045D00041EC180B53EC182B2AA004F005FC1748EB
:1045E0000068FCF7CEFA41EC180B53EC182B28A00E
:1045F000FFF756F90DE02AA004F0F6FB0F4800681B
:10460000FCF7BFFA41EC180B53EC182B1DA004F07B
:10461000EBFB0A4890ED000A0020FCF7C3FF0748B7
:1046200090ED000A0120FCF7BDFF00F062F801B038
:10463000BDEC028B00BD000000000000CC0000209B
:104640000D0A6461633D252E3166560D0A00000097
:10465000496E7075742076616C756528302D332E27
:1046600030293A200D0A000068000020256600006D
:10467000DD2300200D0A64616320736574206F6B75
:104680000D0A00006461633D20252E31660D0A008D
:1046900064616320736574206F6B20252E31660082
:1046A0000D0A64616320696E76616C69640D0A00AD
:1046B00010B501200449087042F2283003490880EF
:1046C00000F017F810BD0000C0000020C20000205C
:1046D00010B501200249087000F00BF810BD000071
:1046E000AA00002010B50A2003F050FB00F001F8EA
:1046F00010BD10B5FDF7D0FC10BD000000B52DEDCC
:10470000028B81B09FED300A8DED000A2F480068C2
:10471000FCF737FA41EC180B53EC182B2CA004F0E3
:1047200063FB30A004F060FBFFF7E3FF00BF3348FA
:1047300000780028FBD06A4631A13248FBF71AFE08
:104740009DED000AB5EEC00AF1EE10FA27DB9DEDF3
:10475000000ADFED2D0AB4EEE00AF1EE10FA1ED8E1
:104760009DED000A194880ED000A28A004F03CFBEA
:1047700016480068FCF705FA41EC180B53EC182BAF
:1047800027A004F031FB11480068FCF7FAF941EC6E
:10479000180B53EC182B26A0FFF782F80DE029A088
:1047A00004F022FB09480068FCF7EBF941EC180B18
:1047B00053EC182B1AA004F017FBFFF79AFF01B077
:1047C000BDEC028B00BD000000000000BC0000201A
:1047D0000D0A4C696D6974203D20252E31660D0A45
:1047E00000000000496E7075742076616C75652854
:1047F000302D353030293A200D0A000068000020A5
:1048000025660000DD2300200000FA430D0A6C69D4
:104810006D697420736574206F6B0D0A00000000D1
:104820006C696D69743D20252E31660D0A0000000B
:104830006C696D697420736574206F6B20252E314F
:10484000660000000D0A6C696D697420696E7661FE
:104850006C69640D0A00000010B5142003F000FB21
:10486000FFF747FF10BD10B50A2003F041FBFFF72B
:1048700040FF10BD00B52DED028B81B09FED300AD9
:104880008DED000A2F480068FCF77BF941EC180B0E
:1048900053EC182B2CA004F0A7FA30A004F0A4FAD3
:1048A000FFF727FF00BF334800780028FBD06A4697
:1048B00031A13248FBF75EFD9DED000AB5EEC00A5E
:1048C000F1EE10FA27DB9DED000ADFED2D0AB4EEC4
:1048D000E00AF1EE10FA1ED89DED000A194880EDAD
:1048E000000A28A004F080FA16480068FCF749F98D
:1048F00041EC180B53EC182B27A004F075FA114863
:104900000068FCF73EF941EC180B53EC182B26A07D
:10491000FEF7C6FF0DE029A004F066FA094800681A
:10492000FCF72FF941EC180B53EC182B28A004F0DE
:104930005BFAFFF7DEFE01B0BDEC028B00BD0000AC
:1049400000000000B80000200D0A726174696F2039
:104950003D20252E31660D0A00000000496E70755D
:10496000742076616C756528302D313030293A20FD
:104970000D0A00006800002025660000DD230020ED
:104980000000C8420D0A726174696F20736574205B
:104990006F6B0D0A00000000726174696F3D252E77
:1049A00031660D0A00000000726174696F20736542
:1049B00074206F6B20252E31660000000D0A726195
:1049C00074696F20696E76616C69640D0A0000007D
:1049D000726174696F3D20252E31660D0A0000005A
:1049E00010B50A2003F0FAFAFFF783FE10BD0000AD
:1049F00010B50DA004F0F8F9114800684FF47A7171
:104A0000B0FBF1F421460FA004F0EEF900201249AA
:104A1000087001201149087004F06EFD0020104953
:104A20000860FFF766FE10BD0D0A506572696F647D
:104A300069632053616D706C696E670D0A00000038
:104A40008400002053616D706C65206379636C6530
:104A50003A202564730D0A00A9000020A800002058
:104A60008800002010B500200749087007A004F056
:104A7000BBF900200C4908700C490870FFF739FE9B
:104A80000A200B49088010BDA80000200D0A5065BF
:104A900072696F6469632053616D706C696E672021
:104AA00053544F500D0A0000AA000020A900002016
:104AB000960000202DE9F04104F088FF044604F040
:104AC000A7FF054604F0CAFF064604F056FF074656
:104AD00004F05EFF80461BA004F086F90CB120A014
:104AE00000E020A0014621A004F07EF90DB11CA039
:104AF00000E01CA0014620A004F076F90EB118A039
:104B000000E018A001461FA004F06EF90FB114A038
:104B100000E014A001461EA004F066F9B8F1000FF1
:104B200001D00FA000E00FA001461CA004F05CF92A
:104B30001DA004F059F91FA004F056F9FFF7D9FDA4
:104B4000BDE8F0810D0A73797374656D2073656C2F
:104B50006620746573742073746172740D0A0000AA
:104B60006F6B00006572726F72000000666C61739B
:104B7000683A25730D0A00006F6C65643A25730D61
:104B80000A0000007274633A25730D0A00000000E9
:104B90006164633A25730D0A000000006461633AA2
:104BA00025730D0A00000000756172743A6F6B0D79
:104BB0000A00000073797374656D2073656C66205C
:104BC0007465737420656E640D0A000010B50020D2
:104BD00002490870FFF78DFD10BD0000AA000020FB
:104BE0002DE9F04F8BB006460F4690469946DDF80A
:104BF00050B00024002003907D694046FBF796FBEF
:104C0000402813D970A004F0EFF83046FDF788FC77
:104C10008246524670A0316804F0E6F8402171A047
:104C200004F0E2F805200BB0BDE8F08FFF221C2154
:104C300004A8FBF74BFB764806904046FBF776FB53
:104C4000C0B28DF82400CDF828B09DF824000146AC
:104C50001C310A98084407900799F068143881427B
:104C600010D959A004F0C0F83046FDF759FC82462F
:104C7000524659A0316804F0B7F866A004F0B4F8C1
:104C80000720D0E7681C40B939463046079A02F041
:104C9000D1FE0546401C00287ED034B903AB39460E
:104CA0003046079A05F094FF0446002C45D1FF20BA
:104CB000029000200890042209A9089801F0FEF84B
:104CC000089004220AA9089801F0F8F808909DF8C5
:104CD00024204146089801F0F1F808909DF824003E
:104CE0009DF82410A0EB010A05E0012202A9089812
:104CF00001F0E4F80890BAF10000AAF1010AF4D139
:104D000049460A9A089801F0D9F808900A990A9831
:104D1000A0EB010A05E0012202A9089801F0CEF8F3
:104D20000890BAF10000AAF1010AF4D104AA2946B8
:104D3000304606F001FB044600BFF4B99DF824306C
:104D4000424605F11C013046FDF73BFC04469DF848
:104D50000C0058B99DF82400034605F11C000344DB
:104D60000A981A183046796806F0DDF89DF8242074
:104D70002B464146304605F06DFE5CB99DF8240097
:104D8000024605F11C0011184A4630460A9BFDF701
:104D900018FC044664B900E012E001200221062359
:104DA00004AACDE9001029463046FDF7C1FE0446AD
:104DB0002CB99DF80C0010B1012086F8300000E0FD
:104DC000072420462FE700005B466C61736844426D
:104DD0005D5B6B765D0000005B25735D5B25735D3D
:104DE000200000004572726F723A20546865204BB3
:104DF00056206E616D65206C656E677468206973FE
:104E0000206D6F7265207468616E2025640A000051
:104E10004B5630304572726F723A20546865204BA1
:104E2000562073697A6520697320746F6F206269F8
:104E3000670A000069B922B1012A04D0022A06D10A
:104E400003E0836004E0C36002E0036100E000BFB0
:104E50000FE001290DD122B1012A04D0022A06D186
:104E600003E0436104E0836102E0C36100E000BF4E
:104E700000BF704710B504460748204440B940F6CB
:104E80001D0003F01BFC40F61D0003F005FC00E0D4
:104E900000BF00BF10BD0000008CFFBF21B9026839
:104EA00042F00102026005E0012903D1026842F4E8
:104EB00080320260704721B9026822F0020202606B
:104EC00005E0012903D1026822F400320260704734
:104ED0000246002011B9D36A98B203E0012901D13A
:104EE000136B98B27047000010B543480078012852
:104EF00023D142A3102200210846FCF71BFE43A346
:104F0000102211460020FCF715FEFCF72DFE42A0F2
:104F100003F06AFF45A003F067FFB7EE000A002028
:104F2000FCF740FBB7EE000A0120FCF73BFB00203A
:104F30003149087042A0FEF7B3FC464800780128CA
:104F400017D145A3102211460020FCF7F3FDFCF712
:104F50000BFE44A003F048FFB7EE080A0020FCF760
:104F600021FBB7EE080A0120FCF71CFB00203949A1
:104F7000087041480078012817D140A3102211463B
:104F80000020FCF7D7FDFCF7EFFD3FA003F02CFF5E
:104F9000B0EE000A0020FCF705FBB0EE000A01208D
:104FA000FCF700FB0020344908703C4800780128D9
:104FB00021D1FCF7B3FC3AA3102200210846FCF7EC
:104FC000B9FDFCF7D1FD00200B49087037A003F0B4
:104FD0000BFF3A4890ED000A0020FCF7E3FA37484F
:104FE00090ED000A0120FCF7DDFA00202B49087043
:104FF00033A0FEF755FC10BDC00000204441432003
:105000005465737420202020200000004441433A5E
:10501000312E3056200000000D0A444143205465D3
:1050200073742053746172740D0A0000444143206C
:105030004F75747075743A312E30560D0A000000A9
:1050400044414320546573742053746172746564E1
:1050500000000000C40000204441433A312E355680
:1050600020000000444143204F75747075743A313C
:105070002E35560D0A000000C50000204441433A79
:10508000322E305620000000444143204F7574708A
:1050900075743A322E30560D0A000000C60000200A
:1050A00073797374656D2069646C650044414320B5
:1050B0005465737420456E640D0A0000CC00002016
:1050C000444143205465737420456E646564000058
:1050D00010B52DED0C8BFCF7D9F90446FBF744FD18
:1050E00041EC1D0B9FED2E0B53EC102BFBF7CDFC71
:1050F00041EC1C0B9FED2C0B53EC102BFBF753FCDE
:1051000041EC1B0B9FED2A0B53EC102BFBF74BFCD8
:1051100041EC1A0BB0EE4A0AF0EE6A0AFDF748F9C4
:10512000B0EE409AF0EE609A9FED210B53EC102BFD
:1051300051EC190BFBF7A9FC41EC180BFBF74CFDEC
:105140001D490860084690ED000A1C48D0ED000A91
:1051500020EE200ADFED1A0A20EE200A10EE101AC7
:105160000846FBF70EFD41EC1A0BB0EE4A0AF0EED2
:105170006A0AFDF71DF9B0EE409AF0EE609A9FEDD5
:105180000C0B53EC102B51EC190BFBF77EFC41EC94
:10519000180BFBF721FD0B490860BDEC0C8B10BD13
:1051A0000000000000FEAF406666666666660A4064
:1051B0000000000000005940C8000020B800002096
:1051C0000000C842D0000020094890ED000A0948BC
:1051D000D0ED000AB4EEE00AF1EE10FA03DD012092
:1051E00005490870704700200349087000BFF9E7BF
:1051F000D0000020BC000020A90000202DE9F041D3
:105200002DED028B82B001F0E3FF8046214890ED46
:10521000000ABCEEC00A10EE100A84B21D48D0EDA0
:10522000000A00EE104AB8EE400A30EEC00AB0EEB6
:10523000408ADFED190A68EE200AB0EE600AFDF739
:1052400053F80646B6F5803F02D3601C84B20026B0
:10525000B7B2434611A218211448CDE90047FDF723
:1052600003F81348007801280DD11048FBF75EF8C9
:105270000546172D06D22A200C49485500210B4A15
:10528000681C115400BF094802B0BDEC028BBDE898
:10529000F0810000D0000020000080472530385801
:1052A000253034582530345800000000F025002007
:1052B000A90000202DE9F04F9BB005460E4614468C
:1052C00098460027582105A8FBF707F85CB905AAFE
:1052D0003146284601F0BDFA08B105AC03E00520CF
:1052E0001BB0BDE8F08FB8F1000F0ED100200321F4
:1052F000CDE90010062303AA2846216DFDF718FC0E
:105300000746012085F8A40027E001200421CDE90B
:105310000010062303AA2846216DFDF709FC074665
:1053200095F8A400B0B9AFB95EB13046FAF7FEFF08
:1053300082464FF0FF3352463146284605F08AFB3D
:1053400008E03CB1A2784FF0FF3304F11001284689
:1053500005F080FB002085F8A400206DE968B0FB13
:10536000F1F0484300F103091FBB042303AA494697
:105370002846FDF77BFB01281BD10221042303AA49
:10538000CDE9001049462846FDF7D2FB0746206DBF
:10539000E968B0FBF1F000FB01FB5946284601F03B
:1053A000D9FE8246BAF1000F02D002218AF802101B
:1053B00000BF384694E700000349086000BF024977
:1053C00009680029FBD170470000002004480068EC
:1053D00020B103480068401E014908607047000082
:1053E0000000002010B501EB4102D30000F11002D3
:1053F000D25822F0010301EB4102D40000F1100267
:10540000135110BD10B501EB4102D30000F11002A1
:10541000D25842F0010301EB4102D40000F1100226
:10542000135110BD30B5134601EB4104E50000F106
:105430001004625922F0606242EA436201EB4104C7
:10544000E50000F11004625130BD10B501EB4102DE
:10545000D30000F11002D25822F0010301EB410207
:10546000D40000F110021351002301EB4102D400DB
:1054700000F11002135101EB4102D40000F11402BB
:10548000135101EB4102D40000F11802135101EB5A
:105490004102D40000F11C02135101EB4102D4007F
:1054A00000F120021351212301EB4102D40000F14D
:1054B0002402135104290CDA01EB41025300C1F319
:1054C000400203EB82033D229A4083681A438260C4
:1054D0000DE00A1FD1B201EB41025300C1F34002BB
:1054E00003EB82033D229A40C3681A43C26010BD99
:1054F00070B504460D46164629462046FFF772FF52
:1055000020222946204600F00AF832462946204645
:1055100000F0F6F829462046FFF774FF70BD10B57D
:1055200004290CDA01EB41035C00C1F3400304EBF6
:10553000830302FA03F38468234383600DE00B1FA7
:10554000D9B201EB41035C00C1F3400304EB8303D8
:1055500002FA03F3C4682343C36010BD10B50346C9
:1055600004290FDA01EB41004400C1F3400004EBD1
:10557000800402FA04F01C68204008B1012010BD2C
:105580000020FCE7081FC1B201EB41004400C1F359
:10559000400004EB800402FA04F05C68204008B18B
:1055A0000120ECE70020EAE770B501EB4104E500DB
:1055B00000F12404645924F0040501EB4104E600E1
:1055C00000F12404A55101EB4104E60000F11804A8
:1055D0001568A55101EB4104E60000F11C04956833
:1055E000A55101EB4104E60000F11404D569A55171
:1055F00001EB4104E50000F1100463593F4C2340E6
:10560000146944EA8404156A2C4395692C432343A6
:1056100001EB4104E50000F110046351546874B9D2
:1056200001EB4104E50000F11004645944F40075F5
:1056300001EB4104E60000F11004A5511FE054689D
:10564000012C0ED101EB4104E50000F11004645976
:1056500024F4007501EB4104E60000F11004A551AB
:105660000DE001EB4104E50000F11004645944F43D
:10567000004501EB4104E60000F11004A551D46897
:1056800074B901EB4104E50000F11004645944F4DD
:10569000806501EB4104E60000F11004A5510DE026
:1056A00001EB4104E50000F11004645924F4806525
:1056B00001EB4104E60000F11004A551546974B9EE
:1056C00001EB4104E50000F11004645944F48075D5
:1056D00001EB4104E60000F11004A5510DE001EBDF
:1056E0004104E50000F11004645924F4807501EBD5
:1056F0004104E60000F11004A55170BD3F87FCFF96
:1057000010B501EB4103DC0000F114031A5110BD88
:10571000024601EB4100C30002F11400C05870477B
:1057200000B589B040F6154002F0A4FF05211148EC
:10573000FFF78BFE10480090012001900F48029067
:10574000002003900490059006904FF4807007901D
:10575000000208906A4605210648FFF725FF04224B
:1057600005210448FFF75EFE05210248FFF74AFEC7
:1057700009B000BD0060024004440040DD23002069
:10578000F0B589B006460F4614461D4640F6154052
:1057900002F070FF40F6164002F06CFF39463046CA
:1057A000FFF753FE00940120019002950020039022
:1057B00004900120059040200690002007904FF4AF
:1057C000803008906A4639463046FFF7EDFE0422E5
:1057D00039463046FFF726FE09B0F0BD2DE9F04707
:1057E000A0B004460E46914635462F684FF000089B
:1057F0002078002863D0A078022802D0A07803285F
:105800005DD101200321CDE900106068C11C042393
:1058100009AA3846FDF78CF9606814301E9000BF65
:105820000AA9384602F074FF9DF8290000281ED00E
:105830009DF82800022803D09DF82800032816D1DF
:105840000AA9384602F05EF888B11EA003F0CCFA2F
:105850003846FCF765FE824652461EA0396803F0C2
:10586000C3FA9DF82A100EAA1DA003F0BDFA0AAAD9
:105870002146384601F0E5FB1E90401C0028CFD1A0
:10588000421E3846616801F067F9D5F80880606803
:10589000A86000222146384601F010FC78610123FF
:1058A00003AA4146384603F03DF838B907986968BD
:1058B000884203D9012020B0BDE8F08700BF002056
:1058C000F9E700005B466C61736844425D5B6B7690
:1058D0005D0000005B25735D5B25735D20000000AB
:1058E0004572726F723A204D6F76656420746865F8
:1058F000204B562028252E2A732920666F722047B8
:1059000043206661696C65642E0A000070B5054627
:105910000C462146284604F07BF9204670BD000065
:1059200010B52D4B1B6883432B4C2360231D1B6834
:105930008343241D2360231D1B688343241D236090
:10594000231D1B688343241D236011B101290ED13F
:1059500005E0214B1B6803431F4C236008E01E4BEE
:105960001B1D1B6803431C4C241D236000E000BF6B
:1059700000BF32B1012A11D0022A1CD0032A27D13C
:1059800027E0154B08331B680343134C083423608E
:10599000231D1B688343241D23601BE00E4B08332B
:1059A0001B6883430C4C08342360231D1B6803438E
:1059B000241D23600EE0084B08331B680343064C8C
:1059C00008342360231D1B680343241D236001E06A
:1059D00000BF00BF00BF10BD003C01400249096884
:1059E0000143014A11607047003C014001490860D1
:1059F00070470000143C014070B5054600240CE0DF
:105A0000084850F8241018222846FAF7A4FC18B9C0
:105A1000044850F8240070BD641C002CF0D0002015
:105A2000F9E7000004D4000810B50C48007808B16C
:105A3000002010BD00240AE0094850F82400406A04
:105A400020B1074951F82410486A8047641C002C93
:105A5000F2D00120014908700020EAE76900002027
:105A600004D4000810B5FFF7DFFF0446002C00DA6D
:105A700003E000F0B7F8044600BF204610BD000068
:105A80002DE9F04104460D4616460027B846A819F0
:105A9000A16B88420ED94FF4F8721F491FA003F082
:105AA000A3F923A003F0A0F92FA003F09DF9781E1D
:105AB000BDE8F081204600F081FF8046B8F1000F7C
:105AC00011D140F2F712144914A003F08DF9221DF0
:105AD00004F11C01254803F087F923A003F084F9A1
