:020000040800F2
:10000000C81C0020C1010008B115000851130008E8
:10001000AD150008D9120008D51D00080000000029
:10002000000000000000000000000000C11A0008ED
:100030004113000800000000EB190008211B000814
:10004000DB010008DB010008DB010008DB01000820
:10005000DB010008DB010008DB010008DB01000810
:10006000DB010008DB010008DB010008DB01000800
:10007000DB010008DB010008DB010008DB010008F0
:10008000DB010008DB010008DB010008DB010008E0
:10009000DB010008DB010008DB010008DB010008D0
:1000A000DB010008DB010008DB010008DB010008C0
:1000B000DB010008DB010008DB010008DB010008B0
:1000C000DB010008DB010008DB010008DB010008A0
:1000D000DB010008DB010008851C0008DB010008CB
:1000E000DB010008DB010008DB010008DB01000880
:1000F000DB010008DB010008DB010008DB01000870
:10010000DB010008B91A0008DB010008DB01000868
:10011000DB010008DB010008DB010008FD1B000813
:10012000DB010008DB010008DB010008DB0100083F
:10013000DB010008DB010008DB010008DB0100082F
:10014000DB010008DB010008DB010008DB0100081F
:10015000DB010008DB010008DB010008DB0100080F
:10016000DB010008DB010008DB010008DB010008FF
:10017000DB010008DB010008DB01000800000000D3
:10018000DB010008DB010008DB010008DB010008DF
:10019000DB010008DB010008DB01000800000000B3
:1001A000DB010008DB010008DB010008DFF80CD0F0
:1001B00000F08CFE00480047796C0008C81C002045
:1001C0000648804706480047FEE7FEE7FEE7FEE7F1
:1001D000FEE7FEE7FEE7FEE7FEE7FEE7291B000875
:1001E000AD0100080048704734CB000810B5044644
:1001F000FFF7F8FF0068005D00F0010010BD40EA65
:1002000001039B0703D009E008C9121F08C0042A94
:10021000FAD203E011F8013B00F8013B521EF9D27B
:100220007047D2B201E000F8012B491EFBD27047A3
:100230000022F6E710B513460A4604461946FFF7B2
:10024000F0FF204610BD421E12F8013F002BFBD1EB
:1002500011F8013B02F8013B002BF9D1704730B592
:1002600005462A460B4612F8010B13F8014B08B15C
:10027000A042F8D01CB1002802D06D1CF1E728463E
:1002800030BD10B5044604E00B7800F8013B03B123
:10029000491C521EF8D2204610BDCAB2401E10F8AA
:1002A000011F8A4202D00029F9D100207047421C68
:1002B00010F8011B0029FBD1801A704710B50022ED
:1002C00000E0521C835C8C5CA34201D1002BF8D16E
:1002D000D8B2E1B2401A10BD0FB400B58DB010A96C
:1002E00009900B9000914FF0FF300A9000200C9085
:1002F00005480690054807906A4609A80F9900F03E
:1003000011FC0DB05DF814FB410B00085F0B0008F9
:100310002DE9FF4F087883B09946FF2805D0491C86
:100320002D2804D00024002008E000200BE0012448
:10033000F9E700EB800003EB4000491C0B78FF2B32
:10034000F7D104B1404200230293147819461D46A8
:100350002D2C01D02B2C04D1521C2D2C13D0002479
:100360000294AA461478FF2C0FD00A25A3FB057827
:1003700001FB05814FF0000C03FB0C11521CE3192B
:100380004AEB0101EEE70124EAE7814453EA010068
:1003900002D019F5C87F06DA03980021C0E90011E0
:1003A00007B0BDE8F08F0025AE4E2F46DFF8B882CB
:1003B000184600F029FDCDE90001B9F1000002DA8C
:1003C000C9F1000400E004460023A74A1AEB030B1E
:1003D00042EB045A12E0E00707D02A46334638467B
:1003E000414600F0ECF9074688462A463346104657
:1003F000194600F0E4F905460E466410002CEAD1D7
:10040000DDE90001B9F1000F5A46534606DA00F063
:1004100048FA3A46434600F044FA05E000F0CFF9C6
:100420003A46434600F0CBF9029A0AB181F0004106
:10043000039AC2E90001B3E72DE9FF4F1F468DB0D3
:10044000D7E901464FF0FF382E2045464FF000090E
:100450000B90B9696D1C0E988847396A82468847A7
:100460000028F6D1BAF1FF3F0AD024F4D064002E60
:1004700011DDBAF12B0F08D0BAF12D0F0BD102E02C
:10048000404611B08DE744F48064B9696D1C0E9844
:1004900088478246761E6946600501D52D2000E01A
:1004A0002B208DF8000001F1010B0DF1200809E06F
:1004B000B9696D1C0E98884782460F9844F4007401
:1004C000761E0560002E02DDBAF1300FF0D00B99D8
:1004D0008A453ED144F0800406E00F99681CA9F1DA
:1004E000010944F400740860B9696D1C761E0E9809
:1004F000884782463028F0D02BE00B998A4505D1F9
:10050000200603D444F08004761E18E0504601F023
:1005100071FE08B30DF11301761E44F400748B458F
:1005200008D2AAF130000BF8010B200607D5A9F17B
:10053000010003E0200602D409F101008146A00574
:1005400002D50F99681C0860B9696D1C0E98884720
:100550008246002ED1DC53E0002E51DDBAF1650F4A
:1005600002D0BAF1450F4BD1A00549D5B9696D1C30
:1005700024F44074761E0E9888478246002E0CDDC7
:100580002B2804D0BAF12D0F07D144F48074B96937
:100590006D1C0E9888478246761EE00501D52D21F8
:1005A00000E02B2108F8011BCDF82C8021E00DF193
:1005B0002901761E44F4007488450CD2AAF130005B
:1005C00010F0FF0088F8000002D10B99884509D986
:1005D00008F1010806E0E00501D5244801E042F2F7
:1005E0000F708146B9696D1C0E98884782460F9836
:1005F0000560002E04DD504601F0FCFD0028D6D138
:10060000F9690E988847FF208BF8000088F80000F1
:100610000020069007904B466A4608A906A8FFF7F7
:1006200077FEA00502D46FF001002AE714F0240F32
:100630000AD0E00714D1DDE906123868031D3B60DB
:100640000068C0E900120BE0DDE9060100F0D0F916
:100650000146E00704D13868021D3A600068016075
:1006600028460EE7000014400000F03FF1D8FFFFDD
:100670002DE9FE4F804681EA0300C00F0C46009032
:1006800021F0004123F00045B8EB0200A94105D25A
:100690004046214690461C460B46024623F0004049
:1006A000104347D0270DC7F30A00C3F30A51029045
:1006B000401A019040286BDAC3F3130040F4801B0A
:1006C0000098924620B10023D2EB030A63EB0B0B98
:1006D00001985946C0F14002504600F0ECF9064638
:1006E0000D4650465946019A00F004FA10EB0800F6
:1006F0006141002487EA115284EAE7731A4340D02B
:10070000009A62B3019A012A4FEA075215DC001BD6
:1007100061EB02014FF0004202EA0752CDE90042CC
:10072000001C41F5801132462B4600F0DBFA03B085
:10073000BDE8F08F40462146F9E7001B61EB02015E
:10074000001C41F5801300185B412018A2F500172A
:1007500047EB030140EAD570B6196D4111E06D0811
:100760004FEA360645EAC0754FEA0752001B61EBB7
:100770000201001C41F5801149084FEA30000019C0
:10078000514132462B4603B0BDE8F04F00F09BBA12
:100790000098012240000023D0EB020263EBE073DB
:1007A000009821464FEAE074B8EB000061EB0401C9
:1007B000E9E783F000435BE781F0004158E72DE96A
:1007C000FE4F81EA030404F0004421F0004100944C
:1007D0004FF0000B23F0004350EA01045ED052EAD0
:1007E00003045BD0C3F30A54C1F30A552C44A4F2AA
:1007F000F3340194A0FB0254C1F3130141F48011BE
:10080000C3F3130343F4801301FB024400FB034EC4
:10081000840A970A44EA815447EA8357A4FB07688D
:1008200002958D0A05FB07854FEA932C04FB0C54B7
:100830002705029D4FEA065847EA1637B5EB08052B
:100840006EEB070C870E920E47EA811742EA83127D
:10085000A7FB0201B6EB0B0164EB00042B0D43EA8E
:100860000C335E1844EB1C50DA465146E7FB02019C
:10087000C5F313044FEA0B3343EA14534FEA04322F
:10088000019C43EA0603A4F10C040294009CCDE908
:1008900000B400F027FA03B0BDE8F08F0020014655
:1008A000F9E72DE9F04D81EA030404F0004B21F053
:1008B000004514464FF0000A23F0004150EA0502BB
:1008C00020D054EA01021DD0C5F30A570246C5F3F1
:1008D0001303C1F31300C1F30A5640F4801543F427
:1008E0008013A7EB0608101BD64608F2FD3873EB01
:1008F000050002D308F1010801E092185B41B8F14C
:10090000000F03DA00200146BDE8F08D00204FF40F
:100910008011064684460EE0171B73EB050705D3CE
:10092000121B63EB050306434CEA010C49084FEA2E
:10093000300092185B4150EA0107EDD152EA030002
:1009400012D082EA040083EA0501084305D0101B97
:10095000AB4106D20122002306E000224FF0004303
:1009600002E06FF0010253101AEB06004CEB085145
:1009700010EB0A0041EB0B01BDE8F04D00F0A3B90C
:100980000EB540F2334102910021CDE900110A4633
:100990000B4600F0A7F903B000BD00F0004230F0B4
:1009A00000400AD0C10D01F56071C0F3160042EAA3
:1009B0000151C208400711437047002001467047AB
:1009C00030B5041E71F1000404DB4FF000444042D6
:1009D00064EB0101141E73F1000405DB1C464FF0AB
:1009E0000043524263EB04038B4208BF824230BD96
:1009F00001F0004330B421F0004150EA010206D07A
:100A00000A0DA2F56072C1F31301002A02DC30BCAA
:100A100000207047440F44EAC104C100E01830BC14
:100A200000EBC25000F0FAB830B50B46014600208A
:100A30002022012409E021FA02F59D4205D303FAA0
:100A400002F5491B04FA02F52844151EA2F1010221
:100A5000F1DC30BD2DE9F05F0546002092469B4653
:100A600088460646814640241BE0284641464746C4
:100A7000224600F02FF853465A46C01A914110D32F
:100A800011461846224600F016F82D1A67EB0108A9
:100A90004F4622460120002100F00DF817EB000917
:100AA0004E41201EA4F10104DFDC484631462A46AF
:100AB0004346BDE8F09F202A04DB203A00FA02F109
:100AC000002070479140C2F1200320FA03F319433C
:100AD00090407047202A04DB203A21FA02F00021DE
:100AE000704721FA02F3D040C2F12002914008433E
:100AF00019467047202A06DBCB17203A41FA02F04C
:100B000043EAE07306E041FA02F3D040C2F120026A
:100B100091400843194670470268114413780160F8
:100B200018467047D160044951610449116200219F
:100B30001161114600F0DCB9190B0008ED01000845
:100B4000426842B1016811F8013B23B1521EC0E96D
:100B50000012184670470121C160881E7047426824
:100B60005AB1C368016843B983688B4205D0491EF6
:100B7000521CC0E90012002070474FF0FF30704750
:100B80000FB4002300B589B00CA900910B996FF048
:100B90000042CB601E4B06931E4B07930423CDE906
:100BA00001321D4A089202466B460020FFF744FCC2
:100BB00009B05DF814FB70B586B006464FF0FF3003
:100BC0000091CDE90101002015460C460490324603
:100BD000694604A8FFF7D4FF02460498211825B1FE
:100BE00008B1084600E020462860049800280DD08F
:100BF000002A02DD0098884208D0081B0094CDE945
:100C000001043246694604A8FFF7BAFF06B070BD7A
:100C1000410B00085F0B0008ED0100080029A8BF88
:100C20007047401C490008BF20F00100704710B415
:100C3000B0FA80FC00FA0CF050EA010404BF10BCCA
:100C4000704749B1CCF1200421FA04F411FA0CF1F7
:100C500018BF012121430843A3EB0C01CB1D4FEA30
:100C600000614FEA102042BF002010BC704700EB2B
:100C7000C35010440029A4BF10BC7047401C490059
:100C800008BF20F0010010BC704710B541000CD027
:100C9000C0F3C751962908DC7E2909DC06DB410236
:100CA00004D000F0004040F07E5010BD002010BD88
:100CB000C1F19604C4F1200100FA01F1E040FFF710
:100CC000ADFFA04010BD10B5141E73F1000408DA8A
:100CD000401C41F1000192185B411A4301D120F000
:100CE000010010BD2DE9F04D92469B4611B1B1FABD
:100CF00081F202E0B0FA80F220329046FFF7DBFE8C
:100D000004460F4640EA0A0041EA0B0153465A46A0
:100D1000084313D0114653EA010019D0C8F140022C
:100D20005046FFF7D7FE05460E4650465946424606
:100D3000FFF7C1FE084305D0012004E020463946F4
:100D4000BDE8F08D0020054346EAE0762C433743AA
:100D50000A986305E40AA0EB08000022FD0A44EAB1
:100D600047540A3002D500200146E9E70105101971
:100D70006941DDE9084500196941BDE8F04DA2E788
:100D80002DE9F041054621F000400C46284309D0EA
:100D9000C4F30A5040F23341884205DD284621461B
:100DA000BDE8F0812846FBE740F2FE31884210DCC6
:100DB0000CDB4FEA043040EA155050EA053105D00B
:100DC000104804F0004101430020E9E700200146FB
:100DD000E6E7A0F233404642C6F1400228462146EB
:100DE000FFF769FE07468846284621463246FFF748
:100DF00071FE43463A46FFF766FF3246BDE8F041D2
:100E0000FFF759BE0000F03F0EB540F233420292A8
:100E10000022CDE900221346FFF764FF03B000BDB6
:100E2000C1F30A52C1F3130140F2FF3341F48011C0
:100E30009A4202DA00200146704740F233439A4258
:100E4000A2F2334202DC5242FFF744BEFFF733BE48
:100E500010B500F0004420F00040C20DC0F31600B1
:100E600040F400007F2A07DA7D2A00DA7D22763AF4
:100E700000FA02F1002008E0962A09DCA2F17601CE
:100E800000FA01F1C2F19602D040FFF7C7FE01E07F
:100E9000963A9040002C00D0404210BD30B5041E60
:100EA00071F1000404DB4FF00044404264EB0101A7
:100EB000141E73F1000405DB1C464FF00043524240
:100EC00063EB0403994208BF904230BD064C074DC6
:100ED00006E0E06840F0010394E80700984710340A
:100EE000AC42F6D3FFF766F958CB000878CB000880
:100EF0002DE9F34F8BB04FF0000801F10C000C46C8
:100F00004FF0010B46460DF1080A0190626901217C
:100F100001989047051E2DD0252D2CD0216A884799
:100F2000C0B16269012101989047216A8847002871
:100F3000F7D1411E62690198904700E0761CA169D3
:100F40000B988847216A88470028F7D1E1690B98F8
:100F50008847DBE7A1690B9888470746A84201D17B
:100F6000761CD3E7E1690B9888477F1C02D1B8F162
:100F7000000F6FD046E1002762693D46394601986F
:100F800090472A2804D162690121019890470125E0
:100F9000DFF884926269012101989047A0F1300145
:100FA0000A290AD24F45E5DC07EB870100EB410730
:100FB000303FDFD445F01005ECE7E90601D46FF0CF
:100FC00000476C280AD04C2814D0682815D06A280D
:100FD0000DD074281CD07A281AD01DE06269012136
:100FE000019890476C2802D045F0040514E045F0C4
:100FF00002050DE045F020050AE062690121019833
:101000009047682802D045F0080505E045F40065E2
:101010006269012101989047C4E9015765283DD0D4
:1010200019DC58287AD00CDC452837D004DC252878
:1010300026D0412831D131E046282FD047282CD165
:101040002CE05B2877D0612828D063287CD06428E6
:1010500023D15AE0D0E06F2848D008DC66281DD0A4
:1010600067281BD0692821D06E2816D127E0702868
:1010700045D0732868D0752847D078280DD14DE029
:10108000A1690B988847054625283FF469AFE169B7
:101090000B9888476D1C3FF46AAFB3E023466A465D
:1010A0006FF001000B99FFF7C7F99EE045F0400093
:1010B0006060A80723464FF0000236D43EE0E80700
:1010C0007FF447AF2068011D21600068290501D524
:1010D00006701BE7290701D5068017E7A90703D586
:1010E000F117C0E9006111E706600FE745F0400025
:1010F0006060A80723464FF0080216D41EE040F6B1
:101100000E0125EA0100606016E045F040006060D5
:10111000A80723464FF00A0207D40FE045F040002D
:101120006060A80708D5234610226FF001000B99D4
:10113000AFF3008059E007E0234610226FF0010072
:101140000B99AFF3008050E04FF000094F464B463B
:10115000632802D05B2806D040E0E80601D40120D5
:10116000A06001273AE062690121019890475E285A
:1011700005D14FF0010962694946019890472169FC
:1011800039B900210A46534643F82120491C082951
:10119000FADBB0B3216969B9C11700EBD162531111
:1011A0000AEB830122F01F02821A01200B68904093
:1011B00003430B6062690121019890475D28E8D1E3
:1011C000B9F1000F09D00020514651F82020D24338
:1011D00041F82020401C0828F7DB02AB224600978C
:1011E0006FF001000B99AFF3008000280CDA401C6F
:1011F00008D1BBF1000F05D04FF0FF300DB0BDE8B6
:10120000F08FFFE74046F9E7E90701D108F101084F
:1012100006444FF0000B79E6CCCCCC0C10B501F0B5
:10122000F4FB01220221134801F0A3FC0021114824
:1012300001F0E0FB012211460E4801F09FFB032361
:101240000A2200210B4801F02CFC00220121094850
:1012500001F008FC01221146064801F0E9FB0548AF
:1012600001F0DDFB012003F005F8024801F071FBFD
:1012700010BD00000020014010B50121064801F01A
:1012800066FC00BF0221044801F004FC0028F9D0EC
:101290000148C06C80B210BD0020014010B540F67E
:1012A000024006F0CBFA41F2081006F0C7FA01231B
:1012B00000220321064805F033FA4FF4403001F0D4
:1012C00087FBFFF7ABFF0121024801F040FC10BD96
:1012D000000802400020014000BFFEE700B589B0D1
:1012E00040F6164006F0AAFA0021124803F0B6FABA
:1012F00011480090012001901048029000200390B6
:101300004FF40060049000200590069004200790A0
:10131000C00308906A460021064803F07BFC0022C7
:101320001146044803F087FA0021024803F073FADB
:1013300009B000BD006402404C2001408000002044
:1013400070470000014800687047000070000020EE
:1013500000BFFEE710B54FF400730122114612489A
:1013600005F0DEF94FF40073022201210E4805F06A
:10137000FEF94FF400710C4805F08DF94FF48071BF
:10138000094805F088F900F075F84FF40071064837
:1013900005F07FF900F06EF84FF48071024805F017
:1013A00078F900F067F810BD0004024010B54FF462
:1013B0000073012211460E4805F0B2F94FF4007394
:1013C000022201210A4805F0D2F94FF400710848C1
:1013D00005F05FF94FF48071054805F05CF900F005
:1013E00049F84FF40071024805F055F910BD0000AE
:1013F0000004024010B500244FF400711C4805F0B1
:101400004AF900F037F84FF48071194805F043F9B4
:1014100000F030F84FF4007301220021144805F069
:101420007FF906E0601CC4B2FE2C02DDFFF7BEFFB0
:1014300010BD4FF400710E4805F06AF90028F1D193
:101440004FF480710A4805F024F900F013F84FF4C6
:10145000007301221146064805F062F94FF400734B
:1014600002220121024805F082F900BFE0E70000F6
:101470000004024008B57820009000BFBDF80000CD
:10148000411E89B200910028F8D108BD02460748E4
:10149000805C084040B1012904D00448805C884346
:1014A000024B9854012070470020FCE70800002000
:1014B000F8B5002439E01E4850F824101D4805F006
:1014C00027F905461A4850F824101A4805F020F963
:1014D0000646B54202D10DB9012000E000200DF80A
:1014E00004001DF804001449095D884209D113481D
:1014F000005D022808DA1148005D401C0F490855BC
:1015000002E000200D4908550C48005D022806DB6A
:101510001DF804000A4908550220084908551DF81D
:10152000040005490855601CC4B2042CC3DBF8BD97
:10153000A4AA000800100240180000201C0000208F
:101540000400002001460148405C70470400002070
:1015500010B540F6044006F071F948F680230122E8
:101560000021024805F0DCF810BD00000010024028
:1015700010B5FFF79DFF05F029F910BD10B540F635
:10158000014006F05BF9502300220121064805F0D6
:10159000C7F8502302220021034805F0E8F8502143
:1015A000014805F076F810BD0004024000BFFEE7D8
:1015B0007047000010B5002807DA0A07140E054A24
:1015C00000F00F031B1FD45403E00A07130E024A56
:1015D000135410BD18ED00E000E400E070B50024E5
:1015E0000CE0002506E00020074901EB85010855C5
:1015F000681CC5B2802DF6DB601CC4B2042CF0DB85
:1016000000F012F970BD0000D400002070B50B4648
:10161000CE1701EB5676C6F3C702CE1701EB56760E
:10162000F610A1EBC606F4B20123A340DDB20E4BC7
:1016300003EB80039B5CDB430B4E06EB8006B3544D
:10164000094B03EB80039B5C2B43074E06EB8006A4
:10165000B354054B03EB80039B5CDB43024E06EB6C
:101660008006B35470BD0000D400002070B50A4657
:10167000CE1701EB5676C6F3C703CE1701EB5676AD
:10168000F610A1EBC606F4B20122A240D5B2054A7B
:1016900002EB8002D25C2A43024E06EB8006F25433
:1016A00070BD0000D400002010B5C82002F0E2FD9B
:1016B00040F6014006F0C2F84FF480730122114653
:1016C0004B4805F02DF84FF4807302220121484861
:1016D00005F04DF84FF48071454804F0DCFF4FF4FD
:1016E000007301221146424805F01AF84FF40073C6
:1016F000022201213E4805F03AF84FF400713C48BF
:1017000004F0C9FFC82002F0B5FD0021AE2000F0B2
:1017100050F90021084600F04CF90021102000F09B
:1017200048F90021402000F044F90021812000F018
:1017300040F90021CF2000F03CF90021A12000F069
:1017400038F90021C82000F034F90021A62000F06B
:1017500030F90021A82000F02CF900211F2000F012
:1017600028F90021D32000F024F90021084600F0D8
:1017700020F90021D52000F01CF90021802000F084
:1017800018F90021D92000F014F90021F12000F00F
:1017900010F90021DA2000F00CF90021022000F0FD
:1017A00008F90021DB2000F004F90021402000F0BE
:1017B00000F90021202000F0FCF80021022000F0B8
:1017C000F8F800218D2000F0F4F80021142000F03A
:1017D000F0F80021A42000F0ECF80021A62000F091
:1017E000E8F80021AF2000F0E4F8FFF7F7FE10BDA5
:1017F000000402400FB470B5C2B004460D46164650
:101800004AA8019002A8019A499900F011FB002012
:101810000190E9B2E0B2334602AA00F0A9F842B062
:1018200070BC5DF814FB000070B500241CE004F1EE
:10183000B001C8B2002100F0BCF80021084600F059
:10184000B8F80021102000F0B4F8002508E008499D
:1018500001EB8501085D012100F0ABF8681CC5B201
:10186000802DF4DB601CC4B2042CE0DB70BD0000F2
:10187000D40000202DE9FF4F81B080460E461C4663
:1018800000962046E31704EB5373DB1021464FEA22
:10189000E47C04EB5C7C4FEAEC0CA4EBCC0CBCF1DC
:1018A000000F02D04FF0010C01E04FF0000C634438
:1018B000224604EBD27C4FEA6C0C03FB0CF303F0E2
:1018C000FF0B03982038C7B2002547E00C2C07D146
:1018D00007EB4700234901EB800010F805A014E056
:1018E000102C05D1204800EB071010F805A00CE0E3
:1018F000182C07D107EBC7001C4901EB800010F83A
:1019000005A002E005B0BDE8F08F4FF000091FE030
:101910000AF0800020B131464046FFF7A7FE03E001
:1019200031464046FFF772FE4FEA4A604FEA106ABE
:10193000701CC6B20098301AA04205D1009E08F172
:10194000010000F0FF0806E009F1010000F0FF09C6
:10195000B9F1080FDCDB00BF681CC5B25D45B5DB23
:1019600000BFCFE7CCB2000840B7000830BD000888
:10197000F0B506460F4614461D4613E022782B4666
:1019800039463046FFF776FF284605EBD07106EB67
:101990006101CEB2C5F18000B04202DA0026B81C67
:1019A000C7B2641C2078202802DB20787E28E5DD81
:1019B000F0BD70B505460C46FFF7CCFC782000F072
:1019C00081F8FFF717FD1CB1402000F07BF802E022
:1019D000002000F077F8FFF70DFD284600F072F8C0
:1019E000FFF708FDFFF7E2FC70BD70472DE9FC41F1
:1019F000002500260027002441F21C0005F01EFFF0
:101A000005F09AFB2948006884B24FF4E05005F0D5
:101A100055FE4FF4E05005F063FEB8B94FF4E850BE
:101A200005F04CFE4FF4E85005F05AFE10B90120C5
:101A3000BDE8FC814FF4007005F036FF40F23F1620
:101A4000632547F251001949086009E04FF480709E
:101A500005F02AFFFF267F2547F250001349086052
:101A600041F60F4005F0EAFE06F090F810480068D5
:101A7000C0F3012747F25000844202D0401C844248
:101A800000D187B90B4805814681002009490861CA
:101A90003220002101231A46CDE90010194640F2F8
:101AA000E97006F0EDF80020C2E700005028004081
:101AB000703802401403002010B507F06BF910BD18
:101AC0007047000070B50446002524E04FF4807193
:101AD000124804F0DEFD04F0800028B14FF40071DC
:101AE0000E4804F0D8FD04E04FF400710B4804F0F8
:101AF000D0FDFFF7BFFC4FF48071084804F0CBFD28
:101B0000FFF7B8FC4FF48071044804F0C2FD600692
:101B1000040E681CC5B2082DD8DB70BD000402405D
:101B200010B502F0B1FB10BD08B53048006840F4B4
:101B300070002E4908602E48006840F001002C49D2
:101B4000086000BF2A48006800F002000028F9D0B1
:101B500000BF27480830006840F080002449083161
:101B600008600020009002E00098401C009000985F
:101B70005028F9D31E480830006840F090001C49F6
:101B8000083108600020009002E00098401C00909E
:101B900000985028F9D300BF15480830006820F09D
:101BA00003001349083108601148006811490840D2
:101BB0000F4908600846006820F480200860002073
:101BC0000B490831086000BF094808300068002050
:101BD0000028F9D108480649091D08600020044979
:101BE0000C31086008F02CFB08BD000088ED00E017
:101BF00000380240FFFFF6FE1030002410B501212E
:101C00000C4808F0C2FD012812D10B480068401CA6
:101C100009490860084600680521B0FBF1F201FBA4
:101C2000120008B9FFF7A4FC0121024808F0AAFD40
:101C300010BD0000001400407000002010B54FF4EB
:101C400080710448FEF7F4FA002003490880034934
:101C5000087010BD580500206200002064000020BC
:101C600010B5054B054A0621054803F019F903F0A4
:101C7000E7F8FFF733FB10BD58060020044400408E
:101C80000060024010B51649164808F0B2FE30B3A5
:101C9000144808F005FE1449087004F0BFFC13490D
:101CA000088000200CE01249095C0A2903D0104981
:101CB000095C0D2903D100210D4A115404E0401C98
:101CC0000A4909888842EEDB00BF00200849074A1C
:101CD0001288885401200749087005F025FE10BDC0
:101CE0000403040000440040600000206200002063
:101CF000580500206400002010B54FF4406005F046
:101D00009DFD41F2110005F099FD02230022012101
:101D10002D4804F005FD02231A4600212A4804F04C
:101D200026FD0221284804F0B4FC042301220221EC
:101D3000254804F0F5FC04220721234804F07AFC2E
:101D4000082301220221204804F0EAFC082207218E
:101D50001D4804F06FFC1D4808F0A8FD4FF4E13168
:101D60001A4808F029FD0021184808F07EFE0021DD
:101D7000164808F06AFE0021144808F056FE0821B3
:101D8000124808F06AFE0421104808F056FE80212F
:101D90000E4808F003FE40210C4808F0F5FD002233
:101DA0000221262004F0DEFF4FF44171074808F0BD
:101DB00013FE064808F0FCFDFFF752FFFFF73EFF59
:101DC00000200349087010BD00000240004400409C
:101DD0006000002000BFFEE70FB41CB502460020E3
:101DE00007AC00290BD0491ECDE90021054B6A46FE
:101DF0002146069800F006FA009A002111701CBCDA
:101E00005DF814FB332900080FB4084B10B504A982
:101E100002AA039800F0F6F9044602A9002000F097
:101E200093FD204610BC5DF814FB00004929000812
:101E300037B514460846064B6A46214600F0E2F9DB
:101E400004466946002000F07FFD20463EBD0000AC
:101E5000492900080000000030B583B0044600F0B6
:101E6000EBF89FED090B05468DED000B0022214696
:101E70006846FEF7A0FE284600F0F4F89DED000B42
:101E800003B030BD000000000000000000000000B2
:101E900010B52DED028BF0EE408A18EE900AFEF799
:101EA000F4FE08EE100A18EE900AB7EE000A78EE7B
:101EB000C80A10F0004F4FF07F4010EE901A12D079
:101EC000B1F13F4F24BF10EE901AB0EB410F12D288
:101ED00010EE901AB1F17C5F1CDD10EE901AB0EBA1
:101EE000410F17D314E0B1F13F4F07D910EE901A0C
:101EF000B0EB410F02D338EE408A0BE010EE901A9F
:101F0000B1F17C5F06DB10EE901AB0EB410F01D30C
:101F100038EE008A18EE101AB1F19E4F04DD18EE6B
:101F2000101AB0EB410F09D218EE101AB1F14F4F51
:101F300007D918EE101AB0EB410F02D3012000F0C0
:101F400091F818EE100ABDEC028BBDE81040FEF7C8
:101F50007FBF00000000000010B52DED020B2DED3D
:101F6000088B84B09DED0C0B51EC100BFEF708FFB5
:101F700041EC180B9DED0C0B53EC182B51EC100B96
:101F8000FEF717FC41EC190B0D989FED290B10F093
:101F9000004F53EC102B51EC190B9FED21AB9FED33
:101FA00022BB0ED0FEF70CFD0ED953EC1B2B51ECCF
:101FB000190BFEF773FF1CD214E000BF41EC180BA5
:101FC00017E0FEF7FDFC06D253EC1A2B51EC180B70
:101FD000FEF7EFFBF2E753EC1B2B51EC190BFEF76E
:101FE0005DFF06D853EC1A2B51EC180BFEF740FBA3
:101FF000E4E78DED028B9DED0C0B18EE901A10EEC0
:10200000900A8DED000B61F31E0003909DED020B15
:1020100004B0BDEC088B02B010BD00000000000051
:10202000000000000000F03F000000000000E03F62
:10203000000000000000E0BF014800687047000099
:10204000D000002002E008C8121F08C1002AFAD1FF
:1020500070477047002001E001C1121F002AFBD128
:10206000704700000149086070470000D000002060
:102070002DE9FF5F82B00021DDE90430020DDDF8BB
:1020800040B0034318D044F61050A2F2FF3242434E
:102090001514119801281FD0A5EB0B00401C5FEA16
:1020A000000A4FF000064E4FDFF83891B046504618
:1020B00015D5CAF1000413E0119801244AA30128A0
:1020C00001D16FEA0B010298119AC0E90031C0E911
:1020D000024206B0BDE8F09FCBF10000DFE7044606
:1020E0000021404A491842EB0450CDE9001012E0AB
:1020F000E00707D032463B4640464946FEF75FFBC5
:102100008046894632463B4610461946FEF757FB45
:1021100006460F466410002CEAD1DDE90401DDE932
:102120000023BAF1000F06DAFEF749FB42464B46A0
:10213000FEF745FB05E0FEF7B4FB42464B46FEF7D3
:10214000B0FB04460E460022284BFEF7A7FE03D83C
:102150004FF0FF30014607E00022254B2046314674
:10216000FEF786FAFEF75CFE102409E0002C0ADB7D
:102170000A220023FEF76EFC039B30321A55641EC0
:1021800050EA0102F2D1641C039AC4F11103144411
:10219000119A012A03D0012208430DD10AE0084315
:1021A00004D000204FF0110B119072E7A3EB0B0548
:1021B0006D1E0DE05B4504DD4FF0000205F10105E9
:1021C00004E003DA4FF00002A5F10105002AECD08B
:1021D00002981199C0E90231C0E9004579E7000091
:1021E000000014400000F03F300000000000F04309
:1021F0000000E03F30380A2801D20120704700205B
:10220000704700002DE9FF4F95B09B468946064672
:1022100000250FE2252877D100242746F84A01211E
:10222000059400E0044316F8013F203B01FA03F057
:102230001042F7D130782A2811D06FF02F03307870
:10224000A0F13002092A16D8059A44F0020402EBE4
:10225000820203EB42021044761C0590EFE759F826
:10226000042B0592002A03DA504244F400540590EE
:1022700044F00204761C30782E2816D116F8010F8F
:1022800044F004042A280DD06FF02F023078A0F11A
:102290003003092B09D807EB870302EB4303C71868
:1022A000761CF3E759F8047B761C30786C280FD045
:1022B00006DC4C2817D068280DD06A2814D104E019
:1022C000742810D07A280FD10DE044F400140AE0ED
:1022D00044F4801401E044F440147278824202D144
:1022E00004F58014761C761C307866280BD013DC3D
:1022F000582877D009DC002875D04528F6D0462824
:10230000F4D047281AD19DE118E0632835D064281D
:1023100079D0652812D195E1702873D008DC672840
:10232000F1D069286FD06E280DD06F2806D1B5E0A6
:1023300073282CD0752875D0782874D05A461799F0
:1023400090476D1C75E1C4F30250022809D00328A0
:102350000DD0D9F8001004280DD00D6009F1040942
:1023600067E1D9F80010EA17C1E90052F6E7D9F899
:1023700000100D80F2E70D70F0E719F8041B8DF8DE
:10238000001000208DF80100EA46012003E059F812
:1023900004AB4FF0FF3061074FF0000102D40DE0B5
:1023A00008F101018846B9420FDA8045F8DB1AF8D6
:1023B00008100029F4D108E008F1010188468142A3
:1023C000FADB1AF808100029F6D105985B46A0EB55
:1023D000080721463846179A00F094FA284400EB83
:1023E000080507E04DE029E10DE01AF8010B5A4617
:1023F00017999047B8F10108F7D25B462146384655
:10240000179A13E142E00A220092C4F302524FF0FD
:10241000000A022A08D059F804CB032A4FEAEC71CB
:102420000AD00DE029E02AE009F1070121F00702B6
:10243000F2E802C1914609E00FFA8CFC4FEAEC7118
:10244000042A03D14FFA8CFC4FEAEC71002907DA19
:102450000A460021DCF1000C61EB02012D2202E0B2
:10246000220504D52B228DF80420012203E0E20787
:1024700001D02022F7E7904659E00A2102E010221D
:102480000DE010214FF0000A00910BE010224FF0F8
:10249000000A44F004040827009203E008224FF0E9
:1024A000000A0092C4F30252022A05D059F804CB64
:1024B0000021032A08D009E009F1070121F00702F1
:1024C000F2E802C1914605E01FFA8CFC042A01D112
:1024D0000CF0FF0C4FF00008220728D5702806D01A
:1024E000009B83F0100353EA0A0305D00EE040225C
:1024F0008DF80420012208E05CEA010206D03022B7
:102500008DF804208DF8050002229046009B83F090
:10251000080353EA0A030AD15CEA010201D1620707
:1025200005D530228DF804204FF001087F1E582871
:1025300004D034A003900EA802900DE036A0F9E775
:1025400053466046009AFEF785FA84460398825CFB
:102550000298401E029002705CEA0100F0D10298DD
:1025600006A9081A00F1200A600702D524F4803475
:1025700000E00127574502DDA7EB0A0000E000203C
:1025800000EB0A01009005984144401A0590E003D1
:1025900006D45B462146179A059800F0B3F9054426
:1025A000002706E001A85A46C05D179990476D1CA8
:1025B0007F1C4745F6DBE0030CD55B462146179AA6
:1025C000059800F09FF9054404E030205A46179919
:1025D00090476D1C0099481E00900029F5DC08E02A
:1025E000029802995A460078491C0291179990471F
:1025F0006D1CBAF10001AAF1010AF1DC65E10000ED
:1026000009280100303132333435363738396162C8
:10261000636465660000000030313233343536378C
:1026200038394142434445460000000000F058F963
:102630000544761C307800287FF4ECAD19B02846AC
:10264000BDE8F08F620700D4062709F1070222F0E7
:10265000070CFCE80223E14603F000485FEA080C9F
:1026600002D00FF2702C0DE05FEA045C02D50FF28D
:10267000682C07E05FEAC47C02D00FF2602C01E016
:10268000AFF2700C4FF0FF3823F00043CDF850C08C
:1026900065280CD006DC452809D046281DD04728DF
:1026A0003DD13DE0662818D067287ED138E0002172
:1026B000112F01DB112000E0781CCDE9000106A9F3
:1026C0000EA8FFF7D5FCDDE90F010E9A039100215A
:1026D000009207F1010A04914DE04FF0004000978D
:1026E000CDE9011006A90EA8FFF7C2FCDDE90F0233
:1026F00003920E9B11990022DDF80CA00093049226
:1027000011B9791C00EB010AB7EB0A0004D4C0F13F
:10271000FF3007F1010A0490AAEB0700019044E0A2
:10272000012F00DA01270021112F01DD112000E027
:102730003846CDE9000106A90EA8FFF799FCDDE9AE
:102740000F010E9A0391002104910092BA462107CD
:102750000CD40399514500DA8A46BAF1010F05DD20
:10276000009AAAF10101515C302908D0B84202DA7E
:1027700010F1040F06DA0121CDE9011015E0AAF1EC
:102780000101E9E7002805DC049901440491AAEB62
:10279000000102E0411C514500DD8A460499401ABF
:1027A000401C01904FF000400290200704D4019893
:1027B000504501DBCDF8048000208DF84F000298D1
:1027C0000DF14F07B0F1004F25D02B200E9002984D
:1027D0004FF0020800280CDA404202902D200E90A3
:1027E00007E00A210298FEF71FF93031029007F83E
:1027F000011DB8F10001A8F10108F2DC02980028DF
:10280000EFD1791E0E980870307800F0200040F06B
:10281000450007F8020D12A8C01B00F10708149824
:10282000007800B1012000EB0A01019801EBE07192
:1028300005984144401A401E0590E00306D45B46CB
:102840002146179A059800F05DF805441498007821
:1028500018B15A46179990476D1CE00324D55B4682
:102860002146179A059800F04DF805441CE004989D
:10287000002807DBDDE90301884203DD0098405CA6
:10288000179901E0179930205A469047049805F1AE
:102890000105401C04900198401E019004D12E2097
:1028A0005A46179990476D1CBAF10001AAF1010A26
:1028B000DDDC05E017F8010B5A46179990476D1CAF
:1028C000B8F10001A8F10108F4DC5B462146179A33
:1028D0000598ABE62D0000002B0000002000000052
:1028E0002DE9F041044600251E461746880404D40D
:1028F00005E039462020B0476D1C641EF9D52846F6
:10290000BDE8F0812DE9F041044600251E469046C1
:10291000C80301D5302700E02027880404D505E04E
:1029200041463846B0476D1C641EF9D52846BDE8BF
:10293000F0814A68002A06D00A68531C0B601070A8
:102940004868401E486070470A68531C0B6010704E
:102950007047816841F00801816000BF816801F023
:1029600008010029FAD1816841F00401816000BFAB
:10297000816801F004010029FAD1704730B50129BE
:1029800002D0022920D10FE06AB1102A0BD8C36A05
:1029900023F47003C362C36A541E4FF4700505EA42
:1029A00004542343C36210E06AB1042A0BD8836B3A
:1029B00023F440138363836B541E4FF4401505EAE0
:1029C00004542343836300E000BF00BF30BD000018
:1029D0000649096821F4E021054AC2F804131146AA
:1029E000D1F804130143C2F80413704704230140D3
:1029F0000020014021B1826842F40062826003E05D
:102A0000826822F400628260704710B540F60810B8
:102A100004F038FF40F6081004F022FF10BD816872
:102A200001F0010119B9816841F00101816070472D
:102A3000012902D0022912D108E0836823F0405313
:102A40008360836843EA0273836009E0836823F448
:102A500040138360836843EA0253836000E000BF51
:102A600000BF7047012902D0022910D107E0836816
:102A700023F07063836083681343836008E0836896
:102A800023F47023836083681343836000E000BFF6
:102A900000BF70470246002013680B4003B10120BD
:102AA0007047F0B51D4606290CDA436B01EB810730
:102AB0001F26BE40B34301EB810602FA06F63343FC
:102AC000436322E00C290EDA036B8E1F06EB8607A8
:102AD0001F26BE40B3438E1F06EB860602FA06F69B
:102AE0003343036311E010290FDAC36AA1F10C0626
:102AF00006EB86071F26BE40B343A1F10C0606EB8A
:102B0000860602FA06F63343C3620A2A0CDA04691F
:102B100002EB42070726BE40B44302EB420605FA29
:102B200006F63443046111E0122A0FDCC468A2F1F6
:102B30000A0606EB46070726BE40B443A2F10A0682
:102B400006EB460605FA06F63443C460F0BD0129DB
:102B500002D002290AD104E0826842F080428260F9
:102B600005E0826842F48002826000E000BF00BF9E
:102B70007047AAB101F480731BB1436843F48073BA
:102B8000436001F480631BB1436843F48063436096
:102B900001F00203CBB1836843F00203836014E0C9
:102BA00001F480731BB1436823F48073436001F424
:102BB00080631BB1436823F48063436001F0020328
:102BC0001BB1836823F002038360704770B504462D
:102BD0000D46607801232A4604F1300101F0B5FD6D
:102BE00008B1032070BD94F82E1294F82F0241EA28
:102BF00000204AF65521884201D00220F2E794F8DD
:102C00006900010694F8680041EA004194F8670001
:102C100041EA002094F86610084320F07F400E49F6
:102C2000884201D10020DDE794F88500010694F880
:102C3000840041EA004194F8830041EA002094F8BE
:102C40008210084320F07F400349884201D10020D0
:102C5000C8E70120C6E7000046415400024600E0F4
:102C6000521C107810B110788842F9D11078704752
:102C70002DE9F74F88B00898006801900198007816
:102C800030380790079809280AD8019840783A28E0
:102C900006D10198801C019008990198086001E014
:102CA00000200790079818B10B200BB0BDE8F08FFB
:102CB000D049079851F82040099804600CB90C20BD
:102CC000F3E7207878B1607801F067FD804608F07E
:102CD000010040B90A9820B108F0040008B10A20A8
:102CE000E3E70020E1E7002020700798607060783B
:102CF00001F0E5FC804608F0010008B10320D4E7AC
:102D00000A9820B108F0040008B10A20CDE74FF07E
:102D1000000B59462046FFF759FF054600BF012D1D
:102D200021D14FF0000ABAF1000F03D0AAF101003F
:102D300000F0FF0A4FF4DF7000EB0A1104F13000DD
:102D40000F18387978B1F87A0106B87A41EA00416B
:102D5000787A41EA0020397A40EA010B5946204648
:102D6000FFF734FF0546032D01D101209DE70DB18A
:102D70000D209AE73B20015D94F83C0041EA0020D9
:102D8000B0F5007F01D00D208FE74620015D94F85B
:102D9000470041EA0029B9F1000F0ED194F857001D
:102DA000010694F8560041EA004194F8550041EAC2
:102DB000002094F8541040EA0109C4F81C90402007
:102DC000065DE670012E03D0022E01D00D206CE7C7
:102DD00009FB06F93D20005D0646A07016B1701E85
:102DE000304008B10D2060E74120015D94F84200B9
:102DF00041EA00202081207A00F00F0008B10D2068
:102E000053E74320015D94F8440041EA0020069016
:102E1000069870B994F85300010694F8520041EAFC
:102E2000004194F8510041EA002094F85010084302
:102E300006903E20015D94F83F0041EA0020029098
:102E4000029808B90D2030E702984844218900EB28
:102E500011100590DDE90501814201D20D2024E722
:102E6000DDE90510401AA178B0FBF1F00490049858
:102E700008B90D2019E7012540F6F671049888423B
:102E800000D302254FF6F6710498884200D303253B
:102E90000498801CA06105985844A0620298584488
:102EA0002062032D16D1208908B10D20FDE694F88B
:102EB0005F00010694F85E0041EA004194F85D006D
:102EC00041EA002094F85C1008436062A069800029
:102ED000039014E0208908B90D20E6E6206A4844F2
:102EE0006062022D02D1A069400007E0207E00F060
:102EF0000100A16901EB410100EB51000390E16980
:102F0000039800F2FF10B1EB502F01D20D20CCE658
:102F10004FF0FF3020610020E060032D5CD1607134
:102F200094F8601094F8610041EA00205844606110
:102F30006078012304F13001626901F006FCE8BB0E
:102F400094F82E1294F82F0241EA00204AF65521F7
:102F5000884241D13320005D01063220005D41EA04
:102F600000413120005D41EA002094F83010084310
:102F70002149884230D194F81702010694F81602CC
:102F800041EA004194F8150241EA002094F8141235
:102F900008431A4988421FD194F81F02010694F889
:102FA0001E0241EA004194F81D0241EA002094F813
:102FB0001C120843E06094F81B0200E00CE00106DC
:102FC00094F81A0241EA004194F8190241EA0020FB
:102FD00094F8181208432061257009480088401CA5
:102FE00080B207490880E0800020E062207100BFC5
:102FF0005BE600006800002052526141727241613C
:103000006C0000200246891E9069801E884201D80B
:10301000002070479378906A01FB0300F9E70000F5
:1030200070B557480078012876D1564C00E0641CF2
:1030300020780D28FBD020780A28F8D02078202886
:10304000F5D020780928F2D02046FDF730F985B276
:1030500004E00021681E80B205462154002D0FDDDA
:10306000681E205C0D28F4D0681E205C0A28F0D071
:10307000681E205C2028ECD0681E205C0928E8D05F
:1030800041A12046FDF7EBF828B141A002F01CFF5A
:1030900000F0E4FC70E044A12046FDF7E0F828B120
:1030A00044A002F011FF00F0FDF865E044A12046C5
:1030B000FDF7D5F810B100F0CDF95DE042A1204652
:1030C000FDF7CDF828B142A002F0FEFE00F0A6FB0D
:1030D00052E043A12046FDF7C2F828B142A002F019
:1030E000F3FE00F0D9FA47E043A12046FDF7B7F818
:1030F00010B100F075FA3FE042A12046FDF7AFF8AD
:1031000010B100F023FA37E041A12046FDF7A7F8FF
:1031100018B100F0B5F92FE031E03FA12046FDF7EE
:103120009EF828B13EA002F0CFFE00F039FC23E06B
:1031300040A12046FDF793F828B140A002F0C4FE5C
:1031400000F068FC18E043A12046FDF788F828B19C
:1031500042A002F0B9FE00F091FD0DE042A1204630
:10316000FDF77DF828B142A002F0AEFE00F086FA2D
:1031700002E042A004F0F0FB00F08AFA00BF70BD4C
:10318000640000205805002074657374000000007E
:1031900073797374656D20686172647761726520FC
:1031A000746573740000000052544320436F6E66D0
:1031B0006967000072746320636F6E666967000060
:1031C000525443206E6F7700726174696F00000083
:1031D000726174696F20636F6E666967000000003A
:1031E0006C696D69740000006C696D697420636FAF
:1031F0006E66696700000000636F6E666967207322
:1032000061766500636F6E66696720726561640050
:10321000636F6E66000000007374617274000000DA
:1032200073616D706C65207374617274202D2063FE
:103230000000000073746F700000000073616D7017
:103240006C652073746F702028636F6D6D616E64A0
:1032500029000000756E686964650000756E686914
:103260006465206461746100686964650000000041
:10327000686964652064617461000000556E6B6E5E
:103280006F776E20636F6D6D616E642E20506C657C
:103290006173652074727920616761696E2E0D0A11
:1032A0000000000070B5A2B0FEF7C8FC0020424943
:1032B000087042A004F050FB00BF3F48007800288F
:1032C000FBD03F2242490CA8FCF7DBFF00208DF821
:1032D0006F000CAC00E0641C20780D28FBD0207837
:1032E0000A28F8D020782028F5D020780928F2D0B4
:1032F0002046FCF7DCFF054603E00021681E05467A
:1033000021547DB1681E205C0D28F6D0681E205C1B
:103310000A28F2D0681E205C2028EED0681E205CAF
:103320000928EAD0207848B92AA004F015FB2FA07C
:1033300002F0CAFD00F0ACF922B070BD1CA81DA9B6
:103340001EAA1FABCDE90021029020AA21A9204688
:1033500003F074FD06464EB1314628A004F0FCFA95
:1033600022A002F0B1FD00F093F9E5E7202104A8C6
:1033700002F0D4FA9DF870009DF87410CDE90010A9
:103380009DF878309DF87C209DF88010BDF8840071
:1033900004F076FC27A004F0DFFA2CA004F0DCFA9D
:1033A00004F096FC04A802F0B9FE08A004F0D4FAD8
:1033B00000F06EF900BFBFE7640000200D0A496EFF
:1033C000707574204461746574696D650D0A000040
:1033D000580500204572726F723A20656D707479DD
:1033E00020696E7075740D0A00000000727463200D
:1033F000636F6E666967206661696C00446174651D
:1034000074696D65207061727365206661696C65B1
:10341000642028636F6465202564292E20506C6524
:103420006173652074727920616761696E2E0D0A7F
:103430000000000052544320436F6E66696720739A
:103440007563636573730D0A0000000054696D6550
:103450003A20000010B505A004F07EFA04F038FC14
:1034600006A004F079FA00F013F910BD0D0A4375B7
:103470007272656E742054696D653A000D0A000021
:1034800010B52DED028B1849184802F099FB012860
:1034900021D116480068FDF780FA41EC180B53EC77
:1034A000182B13A004F058FA0F480068FDF775FABE
:1034B00041EC180B53EC182B12A004F04DFA15A098
:1034C00004F04AFA0848D0ED000A084890ED000AD6
:1034D00006F0F0FC02E015A004F03EFA00F0D8F887
:1034E000BDEC028B10BD0000A8000020A40000204D
:1034F0000D0A526174696F203D20252E32660D0A37
:10350000000000004C696D6974203D20252E326654
:103510000D0A0000436F6E66696720726561642062
:10352000737563636573730D0A0000000D0A636FA2
:103530006E6669672E696E692066696C65206E6FBC
:103540007420666F756E640D0A00000010B52DEDD5
:10355000028B1149114806F07DFC11A004F0FCF922
:103560000E480068FDF719FA41EC180B53EC182BC4
:1035700013A004F0F1F908480068FDF70EFA41ECD9
:10358000180B53EC182B12A004F0E6F900F080F8A9
:10359000BDEC028B10BD0000A8000020A40000209C
:1035A0000D0A7265616420706172616D6574657287
:1035B000732066726F6D20666C6173680D0A00007F
:1035C000726174696F3A20252E3266200D0A000060
:1035D0006C696D69743A20252E3266200D0A000050
:1035E00010B52DED028B13480068FDF7D6F941ECBC
:1035F000180B53EC182B10A004F0AEF91348006818
:10360000FDF7CBF941EC180B53EC182B10A004F08C
:10361000A3F913A004F0A0F90C48D0ED000A054866
:1036200090ED000A06F046FC00F032F8BDEC028B8B
:1036300010BD0000A40000200D0A726174696F3A89
:1036400020252E3266200D0A00000000A800002070
:103650006C696D69743A20252E3266200D0A0000CF
:103660007361766520706172616D65746572732037
:10367000746F20666C6173680D0A000010B501203C
:103680000249087000F004F810BD00009E00002000
:1036900010B5FEF7D3FA10BD00B52DED028B81B049
:1036A0009FED2E0A8DED000A2D480068FDF775F993
:1036B00041EC180B53EC182B2AA004F04DF92EA066
:1036C00004F04AF9FFF7E4FF00203149087000BF19
:1036D0002F4800780028FBD06A462EA12E48FCF720
:1036E000FBFD9DED000AB5EEC00AF1EE10FA1FDBFE
:1036F0009DED000ADFED290AB4EEE00AF1EE10FAC2
:1037000016D89DED000A164880ED000A24A004F0AA
:1037100023F913480068FDF740F941EC180B53EC0E
:10372000182B26A004F018F928A002F0CDFB10E019
:103730002CA004F011F90A480068FDF72EF941ECBD
:10374000180B53EC182B1DA004F006F92AA002F068
:10375000BBFB01B0BDEC028B00BD0000000000000F
:10376000A80000200D0A4C696D6974203D20252EAB
:1037700032660D0A00000000496E70757420766193
:103780006C756528307E323030293A200D0A0000F1
:103790006400002025660000580500200000484312
:1037A0000D0A6C696D6974206D6F64696669656482
:1037B00020737563636573730D0A00006C696D692E
:1037C000743D20252E32660D0A0000006C696D697B
:1037D0007420636F6E6669672073756363657373C6
:1037E00020746F000D0A6C696D697420696E7661D2
:1037F0006C69640D0A0000006C696D697420636F68
:103800006E666967206661696C20286F7574206F29
:10381000662072616E6765290000000000B52DED1D
:10382000028B81B09FED2E0A8DED000A2D480068B5
:10383000FDF7B3F841EC180B53EC182B2AA004F059
:103840008BF82EA004F088F8FFF722FF0020314902
:10385000087000BF2F4800780028FBD06A462EA1D0
:103860002E48FCF739FD9DED000AB5EEC00AF1EED9
:1038700010FA1FDB9DED000ADFED290AB4EEE00A25
:10388000F1EE10FA16D89DED000A164880ED000AF8
:1038900024A004F061F813480068FDF77EF841ECBD
:1038A000180B53EC182B26A004F056F828A002F0B1
:1038B0000BFB10E02CA004F04FF80A480068FDF75D
:1038C0006CF841EC180B53EC182B1DA004F044F8D5
:1038D0002AA002F0F9FA01B0BDEC028B00BD000095
:1038E00000000000A40000200D0A526174696F20DE
:1038F0003D20252E32660D0A00000000496E7075CD
:10390000742076616C756528307E313030293A201C
:103910000D0A000064000020256600005805002004
:103920000000C8420D0A726174696F206D6F64698E
:103930006669656420737563636573730D0A0000BF
:10394000526174696F3D20252E32660D0A00000019
:10395000726174696F20636F6E6669672073756347
:103960006365737320746F000D0A726174696F2050
:10397000696E76616C69640D0A0000007261746999
:103980006F20636F6E666967206661696C20286FBF
:103990007574206F662072616E67652900000000F3
:1039A00010B50DA003F0D8FF114800684FF47A71EC
:1039B000B0FBF1F421460FA003F0CEFF0020124926
:1039C00008701249086004F0F3FAFFF761FE012065
:1039D0000F49087010BD00000D0A506572696F64D0
:1039E00069632053616D706C696E670D0A00000099
:1039F0007800002053616D706C65206379636C659D
:103A00003A202564730D0A009D0000207C000020F0
:103A10009C00002010B500200649087006A003F0A5
:103A20009BFFFFF735FE00200A4908700A4908701D
:103A300010BD00009C000020506572696F646963CE
:103A40002053616D706C696E672053544F500D0A9E
:103A5000000000009E0000209D00002010B539A04D
:103A600003F07AFF06F0E0F83E4988421DD13E4857
:103A70000078012819D13DA003F06EFF41A003F0AA
:103A80006BFF06F0D1F80446214644A003F064FF22
:103A900004F07AFE0446214645A003F05DFF04F0E1
:103AA00017F94AA002F010FA45E006F0BDF82D49DA
:103AB000884219D12C480078002815D12BA003F09A
:103AC0004BFF44A003F048FF06F0AEF80446214641
:103AD00032A003F041FF46A003F03EFF04F0F8F8E7
:103AE00049A002F0F1F926E006F09EF81D4988424F
:103AF00016D01D480078012812D14BA003F02CFFEE
:103B000020A003F029FF04F03FFE0446214628A030
:103B100003F022FF04F0DCF84AA002F0D5F90AE035
:103B200041A003F019FF2BA003F016FF04F0D0F81A
:103B30004BA002F0C9F903A003F00EFFFFF7A8FDA8
:103B400010BD00000D0A3D3D3D3D3D737973746528
:103B50006D2073656C66746573743D3D3D3D3D0D30
:103B60000A0000001340C800C8000020666C6173A2
:103B7000682E2E2E2E2E2E2E2E2E2E2E2E4F4B0D0E
:103B80000A000000736420636172642E2E2E2E2EB4
:103B90002E2E2E2E2E2E2E4F4B0D0A00666C61738C
:103BA000682049443A20307825580D0A000000006A
:103BB00054462063617264206D656D6F72793A209E
:103BC000256C75204B420D0A00000000746573746B
:103BD000206F6B00736420636172642E2E2E2E2E74
:103BE0002E2E2E2E2E2E2E4552524F520D0A0000F2
:103BF00063616E206E6F742066696E642054462087
:103C0000636172640D0A00007465737420657272DA
:103C10006F723A2074662063617264206E6F742044
:103C2000666F756E64000000666C6173682E2E2EE0
:103C30002E2E2E2E2E2E2E2E2E4552524F520D0A45
:103C40000000000074657374206572726F723A2010
:103C5000666C617368206E6F7420666F756E6400A9
:103C600074657374206572726F7228746620636164
:103C70007264202620666C617368290010B50020EC
:103C800002490870FFF704FD10BD00009E000020EF
:103C900070B51D25084C00E0641E802005F05CFE18
:103CA00008B9002CF8D114B91325284670BD034873
:103CB00005F04CFE2846F9E7A0860100FF07C0008A
:103CC000F0B503460A46107820F04000401E00EB95
:103CD000800101EBC0050026012400BF1748805D6C
:103CE000105C1649895D1144497840EA01277CB18E
:103CF000384601F0FEFD0446FF2D07D229466D1C13
:103D000033F8110001F0F5FDA04207D00020F0BD0E
:103D10004FF6FF70874201D00020F8E7701C06467E
:103D20000D28DBD3107800F0400028B124B133F81F
:103D3000150008B10020EAE70120E8E78CCA000876
:103D40002DE9F04704468946B9F1000F06D1E7682E
:103D500017B1A069B84211D801270FE049462046A3
:103D600002F0E8FB0646022E02D20120BDE8F087F1
:103D7000A069B04201D93046F8E74F463D4600BF42
:103D80006D1CA069A84204D80225BD4201D90020BB
:103D9000ECE72946204602F0CDFB064606B909E0CD
:103DA000701C08B1012E01D13046DFE7BD42E7D1DA
:103DB0000020DBE700BF6FF070422946204603F089
:103DC000C5F98046B8F1000F08D1B9F1000F05D050
:103DD0002A464946204603F0B9F98046B8F1000F5B
:103DE00009D1E5602069401C68B12069401E20614E
:103DF0000120607107E0B8F1010F02D14FF0FF30F0
:103E000000E0012005462846B0E700002DE9F34F09
:103E100083B0814604980068019002E00198401C3C
:103E20000190019800782F28F8D0019800785C283C
:103E3000F4D0D9F81CA000252F4600BF38467F1CBF
:103E400001990C5C202C03DB2F2C01D05C2C00D1C1
:103E500038E0FF2D03D3062005B0BDE8F08FE4B2B3
:103E6000812C02DBE0B29F2805DDE0B2E02813DB05
:103E7000E0B2FC2810DC38467F1C01990E5C402E15
:103E800001DB7E2E05DD802E01DBFC2E01DD062010
:103E9000E2E706EB042084B20121204601F028FD70
:103EA00004460CB90620D7E7802C06DA214671A01B
:103EB000FEF7D4FE08B10620CEE728466D1C2AF88E
:103EC0001040BBE700BF0198C11904980160202C85
:103ED00001DA042000E00020804608E0681E3AF87D
:103EE0001040202C02D02E2C00D002E06D1E002DA0
:103EF000F4D100BF0DB90620AEE700202AF8150066
:103F00000B222021D9F8180002F0DDFE002700E086
:103F10007F1C3AF817002028FAD03AF817002E280C
:103F2000F6D00FB148F0030800E06D1E25B1681E01
:103F30003AF810002E28F8D10020064602904FF0E3
:103F4000080B00BF38467F1C3AF8104004B963E004
:103F5000202C03D02E2C04D1AF4202D048F003080D
:103F6000F0E70298584501D2AF4214D1BBF10B0FD4
:103F700002D148F003084FE0AF4201D048F00308F7
:103F8000AF4200D948E02F46082002904FF00B0BBB
:103F9000B006060ED6E7802C09DB204601F0A9FC0E
:103FA0000246002101F0A4FC044648F00208FF2C60
:103FB00011DDABF101000299884204D848F00308F2
:103FC000CDF808B0BEE72212D9F818300298411C8B
:103FD00002911A5419E024B1214629A0FEF73EFEB1
:103FE00018B15F2448F003080FE0412C04DB5A2C81
:103FF00002DC46F0020608E0612C06DB7A2C04DCC9
:1040000046F00106A4F1200084B2D9F818300298D5
:10401000411C02911C5495E700BFD9F818000078A4
:10402000E52803D10520D9F818100870BBF1080F56
:1040300001D1B006060E06F00C000C2803D006F0E5
:104040000300032801D148F0020808F0020058B923
:1040500006F00300012801D148F0100806F00C001A
:10406000042801D148F00808D9F8180080F80B801E
:104070000020F1E6222A3A3C3E3F7C7F000000000F
:104080002B2C3B3D5B5D000010B52DED0C8BFDF73F
:10409000F3F80446FCF774FC41EC1D0B9FED2E0B6E
:1040A00053EC102BFCF7FDFB41EC1C0B9FED2C0B94
:1040B00053EC102BFCF783FB41EC1B0B9FED2A0B01
:1040C00053EC102BFCF77BFB41EC1A0BB0EE4A0AC9
:1040D000F0EE6A0AFDF740FFB0EE409AF0EE609A0B
:1040E0009FED210B53EC102B51EC190BFCF7D9FB76
:1040F00041EC180BFCF77CFC1D490860084690ED6C
:10410000000A1C48D0ED000A20EE200ADFED1A0A52
:1041100020EE200A10EE101A0846FCF73EFC41EC97
:104120001A0BB0EE4A0AF0EE6A0AFDF715FFB0EE80
:10413000409AF0EE609A9FED0C0B53EC102B51EC73
:10414000190BFCF7AEFB41EC180BFCF751FC0B49CB
:104150000860BDEC0C8B10BD0000000000FEAF40FD
:104160006666666666660A40000000000000594008
:10417000AC000020A40000200000C842B0000020D5
:10418000094890ED000A0948D0ED000AB4EEE00AB3
:10419000F1EE10FA03DD0120054908707047002098
:1041A0000349087000BFF9E7B0000020A800002014
:1041B0009D0000202DE9F0432DED028B83B003F02C
:1041C000B3FD06467088318840EA0149214890EDE8
:1041D000000ABCEEC00A10EE100A84B21D48D0EDF1
:1041E000000A00EE104AB8EE400A30EEC00AB0EE07
:1041F000408ADFED190A68EE200AB0EE600AFDF78A
:1042000047FE0746B7F5803F02D3601C84B2002703
:104210001FFA87F84B4611A218211448CDE900482F
:10422000FDF7DAFD1248007801280DD10F48FCF7A0
:104230003EF80546172D06D22A200C494855002184
:104240000A4A681C115400BF084803B0BDEC028B39
:10425000BDE8F083B00000200000804725303858CA
:10426000253034582530345800000000580700200D
:104270009D0000200349086000BF02490968002929
:10428000FBD17047000000200448006820B10348BB
:104290000068401E014908607047000000000020CF
:1042A0002DE9F04704460021204600F0BAF9074600
:1042B00017B13846BDE8F0874FF0FF09CA4600BF86
:1042C0002169206802F009FD074607B154E06569DD
:1042D0002E780EB904274FE0E87A00F03F08E52E6B
:1042E00005D008F0080028B1B8F10F0F02D04FF048
:1042F000FF093AE0B8F10F0F1CD1E069A0B306F056
:10430000400030B195F80DA026F04006B146E08897
:1043100020844E450AD1687B504507D12946E06983
:10432000FFF7CEFC10B1A9F1010000E0FF2000F082
:10433000FF091AE0B9F1000F05D1284605F0D2FDBA
:10434000504500D118E04FF0FF094FF6FF70208470
:10435000A069C07A00F0010030B90B222846A1699B
:1043600002F091FC00B907E0FFE70021204600F0D1
:1043700006F80746002FA3D000BF38469AE72DE97C
:10438000F0410446884600BFE088401C86B20EB16A
:10439000206910B90420BDE8F08106F00F00002864
:1043A0006FD12069401C2061E06828B9206800892D
:1043B000B04266DC0420EEE720688078401E00EA08
:1043C000161000285DD1E168206802F0B3F80546B8
:1043D000012D01D80220DEE7681C08B90120DAE7C8
:1043E00020688069A84246D8B8F1000F01D10420A6
:1043F000D1E7E1682068FFF7A3FC05460DB9072067
:10440000C9E7012D01D10220C5E7681C08B90120C8
:10441000C1E70021206802F060FC08B10120BAE782
:10442000216801F130004FF40072002102F04BFCD2
:1044300029462068FEF7E6FD2168C862002710E0E3
:104440000120216808710021206802F046FC08B1B3
:104450000120A0E72068C06A401C2168C862781C5F
:10446000C7B220688078B842EADC2068C06AC01B06
:104470002168C86200BFE56029462068FEF7C2FDDA
:104480002061E6802068303006F00F0100EB41101B
:10449000606100207FE72DE9F04F85B00446D4F835
:1044A0001880D4F81CB00C22414601A802F0FEFB93
:1044B00000BF9DF80F0000F0010030B3002088F825
:1044C0000B00E06101270DE03B465A4601A940463A
:1044D00001F0CBFF2046FFF7E3FE054605B103E000
:1044E000781C87B2642FEFDB00BF642F03D1072055
:1044F00005B0BDE8F08F042D01D02846F8E79DF8FF
:104500000F0088F80B00C4F81CB09DF80F0000F0F5
:10451000020070B1002601E0701C86B23BF8160064
:104520000028F9D106F119000D2190FBF1F086B2B7
:1045300000E001260021204600F073F805460DB189
:104540002846D5E700200746049000BF216920686F
:1045500002F0C3FB054605B119E0606990F80090D0
:10456000B9F1E50F02D0B9F1000F08D10FB9E08819
:104570000490781C80B20746B04201D107E00027C2
:1045800001212046FFF7FBFE0546002DDED000BFCF
:104590004DBB012E27DD2046049900F042F8054668
:1045A0000DBBA06905F09EFC0090701E86B200BF96
:1045B0002169206802F091FB054605B112E0F2B2D4
:1045C0006169E069009B01F0C1FE0120216808716A
:1045D00000212046FFF7D3FE05461DB9701E80B2AC
:1045E000061EE5D100BFD5B92169206802F075FB30
:1045F0000546A5B9D4F814A020220021504602F0A7
:1046000062FB0B225046A16902F050FBA069C07A00
:1046100000F018008AF80C00012021680871284673
:1046200066E72DE9F04104460E46E680A568012DB7
:1046300003D020688069A84202D80220BDE8F0813A
:104640002DB920680078032801D12068456A65B932
:10465000E56020680089B04201DC0220EEE72068B6
:10466000406A00EB1610206120E020688078070186
:1046700012E02946206801F05DFF0546681C08B974
:104680000120DBE7022D03D320688069A84201D80E
:104690000220D3E7F01B86B2BE42EADAE560294683
:1046A0002068FEF7AFFC00EB161020612068303068
:1046B00006F00F0100EB411060610020BEE730B54D
:1046C00093B0054600200090002D39D104F03EFB48
:1046D00004461D2C04D101A804F0AAF8044602E007
:1046E000012013B030BD1D2C05D1BDF8480004F0E9
:1046F0008DFA044601E00120F3E7684604F0F6FA7B
:104700000446009800F0007008B100BFFEE71D2CC1
:1047100005D14FF4006003F06FFF044601E0012073
:10472000DFE71D2C04D1002005F02AF8044601E043
:104730000120D6E71D2C01D10020D2E70120D0E7CF
:104740000120CEE70346002070472DE9F0410746DF
:104750000C4615461E464FF01C0814B90420BDE84F
:10476000F0810EB90420FAE787B9012E06D169025B
:104770007202204603F0A4FC804607E0690233463B
:104780004FF40072204604F09DFB8046B8F11D0FE7
:1047900001D10020E3E70120E1E7014609B900204B
:1047A00070470120FCE72DE9F04107460C4615460D
:1047B0001E464FF01C0814B90420BDE8F0810EB964
:1047C0000420FAE787B9012E06D169027202204659
:1047D00003F082FD804607E0690233464FF4007221
:1047E000204604F0BDFC8046B8F11D0F01D1002029
:1047F000E3E70120E1E710B501EB4102D30000F14E
:104800001002D25822F0010301EB4102D40000F162
:104810001002135110BD10B501EB4102D30000F19D
:104820001002D25842F0010301EB4102D40000F122
:104830001002135110BD30B5134601EB4104E500E1
:1048400000F11004625922F0606242EA436201EB17
:104850004104E50000F11004625130BD10B501EBD8
:104860004102D30000F11002D25822F0010301EB03
:104870004102D40000F110021351002301EB410268
:10488000D40000F11002135101EB4102D40000F1F9
:104890001402135101EB4102D40000F1180213512C
:1048A00001EB4102D40000F11C02135101EB410263
:1048B000D40000F120021351212301EB4102D40066
:1048C00000F12402135104290CDA01EB41025300D8
:1048D000C1F3400203EB82033D229A4083681A43EE
:1048E00082600DE00A1FD1B201EB41025300C1F317
:1048F000400203EB82033D229A40C3681A43C26020
:1049000010BD70B504460D46164629462046FFF7F1
:1049100072FF20222946204600F00AF83246294636
:10492000204600F07DFA29462046FFF774FF70BD4F
:1049300010B504290CDA01EB41035C00C1F340031C
:1049400004EB830302FA03F38468234383600DE0DE
:104950000B1FD9B201EB41035C00C1F3400304EB30
:10496000830302FA03F3C4682343C36010BD10B588
:10497000034604290FDA01EB41004400C1F3400073
:1049800004EB800402FA04F01C68204008B1012006
:1049900010BD0020FCE7081FC1B201EB410044003C
:1049A000C1F3400004EB800402FA04F05C6820408C
:1049B00008B10120ECE70020EAE730B572B901EB5D
:1049C0004103DC0000F110031B5923F0200401EB2C
:1049D0004103DD0000F110035C510DE001EB4103E8
:1049E000DC0000F110031B5943F0200401EB4103EC
:1049F000DD0000F110035C5130BD000070B501EB2B
:104A00004104E50000F124046459156A45F00405E9
:104A10002C4301EB4105EE0000F12405AC5101EB04
:104A20004104E60000F118041568A55101EB4104AA
:104A3000E60000F11C04D568A55101EB4104E60035
:104A400000F11404D56AA55101EB4104E50000F121
:104A500010046359414C2340156954682C43156B6D
:104A60002C43956A2C4395692C43D5692C432343E9
:104A700001EB4104E50000F110046351946874B93E
:104A800001EB4104E50000F11004645944F40075A1
:104A900001EB4104E60000F11004A5511FE0946809
:104AA000012C0ED101EB4104E50000F11004645922
:104AB00024F4007501EB4104E60000F11004A55157
:104AC0000DE001EB4104E50000F11004645944F4E9
:104AD000004501EB4104E60000F11004A5515469C2
:104AE00074B901EB4104E50000F11004645944F489
:104AF000806501EB4104E60000F11004A5510DE0D2
:104B000001EB4104E50000F11004645924F48065D0
:104B100001EB4104E60000F11004A551546A74B998
:104B200001EB4104E50000F11004645944F4807580
:104B300001EB4104E60000F11004A5510DE001EB8A
:104B40004104E50000F11004645924F4807501EB80
:104B50004104E60000F11004A55170BD3F871CFE22
:104B600030B58DB004460D46012203212748FFF7DA
:104B7000DFFE042203212548FFF7DAFE0822032185
:104B80002248FFF7D5FE102203212048FFF7D0FE70
:104B9000202203211D48FFF7CBFE03211B48FFF70E
:104BA0002AFE03211948FFF759FE19480090039483
:104BB00000200A900B9001200290002005904FF4F5
:104BC00080500190800004904FF440300C904FF4DE
:104BD00000100790800006900320089001200990A3
:104BE0006A4603210948FFF709FF0122032107480C
:104BF000FFF7E3FE042203210448FFF71CFE032114
:104C00000248FFF708FE0DB030BD0000006402400E
:104C1000802C014070B501EB4104E50000F1240453
:104C2000645924F0040501EB4104E60000F124047A
:104C3000A55101EB4104E60000F118041568A551E7
:104C400001EB4104E60000F11C049568A55101EB5D
:104C50004104E60000F11404D569A55101EB4104BB
:104C6000E50000F1100463593F4C2340146944EA05
:104C70008404156A2C4395692C43234301EB4104BA
:104C8000E50000F110046351546874B901EB41046C
:104C9000E50000F11004645944F4007501EB41048F
:104CA000E60000F11004A5511FE05468012C0ED15C
:104CB00001EB4104E50000F11004645924F400758F
:104CC00001EB4104E60000F11004A5510DE001EBF9
:104CD0004104E50000F11004645944F4004501EB7F
:104CE0004104E60000F11004A551D46874B901EB49
:104CF0004104E50000F11004645944F4806501EBBF
:104D00004104E60000F11004A5510DE001EB41045F
:104D1000E50000F11004645924F4806501EB4104BE
:104D2000E60000F11004A551546974B901EB410487
:104D3000E50000F11004645944F4807501EB41046E
:104D4000E60000F11004A5510DE001EB4104E5007F
:104D500000F11004645924F4807501EB4104E6006D
:104D600000F11004A55170BD3F87FCFF30B58DB038
:104D700004460D46012203212748FFF7D9FD0422EE
:104D800003212548FFF7D4FD082203212248FFF71D
:104D9000CFFD102203212048FFF7CAFD2022032166
:104DA0001D48FFF7C5FD03211B48FFF724FD032124
:104DB0001948FFF753FD19480090039440200A90CA
:104DC00000200B9001200290002005904FF48050AD
:104DD0000190800004904FF440300C904FF400108C
:104DE00007908000069001200990032008906A46F1
:104DF00003210948FFF702FE012203210648FFF7BD
:104E0000DCFD042203210448FFF715FD03210248BD
:104E1000FFF701FD0DB030BD00640240802C014061
:104E200010B501EB4103DC0000F114031A5110BD71
:104E3000024601EB4100C30002F11400C058704764
:104E400000B589B040F6154002F0F8FC0521114884
:104E5000FFF704FD10480090012001900F480290D8
:104E6000002003900490059006904FF48070079006
:104E7000000208906A4605210648FFF7CBFE04228F
:104E800005210448FFF7D7FC05210248FFF7C3FCC2
:104E900009B000BD006002400444004058050020F5
:104EA000F0B589B006460F4614461D4640F615403B
:104EB00002F0C4FC40F6164002F0C0FC3946304611
:104EC000FFF7CCFC00940120019002950020039094
:104ED00004900120059040200690002007904FF498
:104EE000803008906A4639463046FFF793FE042228
:104EF00039463046FFF79FFC09B0F0BD70B5044657
:104F0000204600F092FB05460DB90020206028469F
:104F100070BD2DE9FC4105460E46174615B1002E21
:104F200000DD17B90020BDE8FC81002400200190BD
:104F3000009021E001AB01226946384600F08EFA6C
:104F40008046B8F1000F01D00020ECE7019800B9CD
:104F500015E09DF800000D2800D10DE09DF800003F
:104F60000A2803D1002028552846DCE79DF80020B8
:104F70002046641C2A5400BF701EA042DADC00BF29
:104F80000CB90020CFE7002028552846CBE72DE9B3
:104F9000F04704460E46A188206805F06EFD824663
:104FA000BAF1000F02D05046BDE8F087A07900F0BA
:104FB000800008B10220F7E7E068B04204D2A0798F
:104FC00000F0020000B9E668D4F808904FF000083D
:104FD000C4F80880002E77D0206880784702B9F1A5
:104FE000000F11D0701EB0FBF7F1A9F10100B0FB6A
:104FF000F7F0814208D3A9F10100791E8843A0602F
:10500000A068361A656918E02569ADB900212068E5
:10501000FEF796FE0546012D05D1A07940F08000EF
:10502000A0710220C0E7681C28B9A07940F0800078
:10503000A0710120B8E725616561002D44D029E009
:10504000A07900F0020038B129462068FEF778FE0A
:10505000054635B93E461FE02946206801F06AFA48
:105060000546681C28B9A07940F08000A071012095
:105070009AE7012D03D920688069A84205D8A07954
:1050800040F08000A07102208EE76561A06838447E
:10509000A060F61BBE42D3D800BFA0683044A06019
:1050A000C6F3080068B129462068FDF7ABFF8046CB
:1050B000B8F1000F06D1A07940F08000A071022065
:1050C00072E701E008EB56282089C0F3080050B3CE
:1050D000A069404527D0A07900F0400090B1216838
:1050E0004878012304F12401A269FFF75CFB28B191
:1050F000A07940F08000A071012055E7A07920F050
:105100004000A071216848780123424604F124013F
:10511000FFF71BFB28B1A07940F08000A0710120AF
:1051200042E7C4F81880D4E90201884205D9A06892
:10513000E060A07940F02000A071504634E7000004
:105140002DE9F1478DB001F067FA0746012204A965
:105150000DA8FDF78DFD0646002E6ED101A80A9020
:1051600058480B9004A80D9901F030F9064606B98D
:10517000082600BF042EF0D100210498FEF7E0FDC0
:105180000546002605B90726012D00D10226681C18
:1051900000B9012626B90021049801F09EFD0646BB
:1051A000002E68D129460498FDF72CFF824604980A
:1051B00000F130044FF400720021204601F083FD1D
:1051C0000B222021204601F07EFD2E202070102091
:1051D000E072A775390AE175390C2176390E6176CE
:1051E000A576290AE176280C2075290E6175202202
:1051F000214604F1200001F059FD2E2084F8210001
:10520000DDF8188004980078032804D10498406AD7
:10521000404500D1B04684F83A804FEA182184F81E
:105220003B10C8F30741342001554FEA186184F858
:105230003510049890F8029019E03FE00498C0F807
:105240002CA00AF1010A0120049908710021049898
:1052500001F043FD064606B10CE04FF40072002158
:10526000204601F030FDA9F1010000F0FF09B9F17D
:10527000000FE3D100BF1EB904A8FFF70CF90646E2
:1052800026B12946049802F01BFB17E0099C102068
:10529000E072A775390AE175390C2176390E61760D
:1052A000A576290AE176280C2075290E6175012062
:1052B00004990871049804F025FE064630460EB0A5
:1052C000BDE8F087580300200246012A01DB0B20CD
:1052D000704709B100200870024840F822100020F1
:1052E000F6E70000680000202DE9F7438CB0054682
:1052F00016460020286006F01F0626F0010203A9CA
:105300000DA8FDF7B5FC0746CDF824D052480A9009
:1053100027B903A80D9901F059F80746089C0FB961
:1053200004B9062706F01C00002858D04FB1042FFE
:1053300003D103A8FFF7AFF8074646F00806089C1C
:1053400009E0E07A00F0110008B1072703E006F059
:10535000040000B10827002F40D106F00800002803
:105360003CD001F059F9804684F80E804FEA1821AC
:10537000E1734FEA184121744FEA1861617400200B
:10538000E072207700216177A177E177A17EE07E4E
:1053900041EA0021227D607D42EA002041EA004985
:1053A0000020A0760021E176207561750120039927
:1053B0000871B9F1000F11D00398D0F82C8049463C
:1053C000039802F07DFA074647B9A9F10100039955
:1053D000C8604146039801F080FC07460EE06FB9B3
:1053E000E07A00F0100008B1042707E006F00200A0
:1053F00020B1E07A00F0010000B1072747B906F0BC
:10540000080008B146F020060398C06AE8612C62E3
:10541000F7B9AE71A17EE07E41EA0021227D607D78
:1054200042EA002041EA00402861E07F0106A07FB7
:1054300041EA0041607F41EA0020217F0843E860A3
:105440000020A860A861039828600398C088A880FD
:1054500038460FB0BDE8F083580300202DE9FF4F18
:1054600083B0044615469A46DDF810B00020CAF80D
:105470000000A188206805F000FB0290029818B196
:10548000029807B0BDE8F08FA07900F0800008B165
:105490000220F6E7A07900F0010008B90720F0E744
:1054A000D4E90210401A00900098854200D9009D6E
:1054B000B6E02089C0F3080000287DD120688078FC
:1054C000401EA16800EA512000F0FF09B9F1000F69
:1054D0001DD1A06810B92069019004E061692068BD
:1054E00001F028F801900198022805D2A07940F037
:1054F0008000A0710220C4E70198401C28B9A0795F
:1055000040F08000A0710120BBE7019860616169F3
:105510002068FDF777FD06462EB9A07940F080009F
:10552000A0710220ADE74E444FEA5528B8F1000FB4
:105530002DD009EB080021688978884203D92068BA
:105540008078A0EB090808F0FF032168487832460C
:105550005946FFF7FAF828B1A07940F08000A07111
:1055600001208EE7A07900F0400068B1A069801B9F
:10557000404509D2A169891B0BEB41204FF4007211
:1055800004F1240101F092FB4FEA48273EE0A069B4
:10559000B04227D0A07900F04000A0B1216848783F
:1055A000012304F12401A269FFF7FDF838B1A079C5
:1055B00040F08000A07100E015E0012061E7A079D3
:1055C00020F04000A071216848780123324604F1A0
:1055D0002401FFF7BAF828B1A07940F08000A0714B
:1055E00001204EE7A6612089C0F30800C0F50077CE
:1055F000AF4200D92F462089C0F3080204F12400ED
:1056000011183A46584601F051FB00BFBB44A06850
:105610003844A060DAF800003844CAF80000ED1BF6
:10562000002D7FF446AF00202BE72DE9F041044622
:10563000A188206805F021FA0746002F4FD1A079F4
:1056400000F0200000284AD0A07900F0400078B196
:1056500021684878012304F12401A269FFF7A3F827
:1056600010B10120BDE8F081A07920F04000A071C8
:10567000E169206801F031FB0746002F2FD1256A30
:10568000E87A40F02000E872207B2877A089010AA0
:105690006977E068010CA977E068010EE977207C62
:1056A000A876208A010AE9762069000C287520690D
:1056B000010E697500F0B0FF0646AE75310AE97556
:1056C000310C2976310E6976A07920F02000A07186
:1056D000012021680871206804F014FC0746384650
:1056E000C0E72DE9FF4F83B0044615469B4604985A
:1056F00001900020CBF80000A188206805F0BDF9DA
:105700000290029818B1029807B0BDE8F08FA07916
:1057100000F0800008B10220F6E7A07900F0020056
:1057200008B90720F0E7E0682844E168884200D221
:105730000025CDE02089C0F30800002877D120683B
:105740008078401EA16800EA512000F0FF0ABAF1FB
:10575000000F2AD1A06858B9D4F81080B8F1000F12
:105760000BD100212068FEF7EBFA8046206104E0AF
:1057700061692068FEF7E4FA8046B8F1000F00D1B5
:10578000A9E0B8F1010F05D1A07940F08000A07127
:105790000220B9E708F1010028B9A07940F08000A3
:1057A000A0710120B0E7C4F81480A07900F0400097
:1057B00090B121684878012304F12401A269FEF721
:1057C000F2FF28B1A07940F08000A07101209BE792
:1057D000A07920F04000A07161692068FDF712FCFB
:1057E00006462EB9A07940F08000A07102208BE718
:1057F00056444FEA5529B9F1000F2FD00AEB0900A2
:1058000021688978884203D920688078A0EB0A094A
:1058100009F0FF032168487832460199FEF7C3FF7B
:1058200030B1A07940F08000A07101206CE72CE03D
:10583000A069801B48450ED2A069801B019A02EB2B
:1058400040214FF4007204F1240001F02FFAA079F6
:1058500020F04000A0714FEA49272DE0A069B04236
:1058600012D0D4E9020188420ED22168487801237F
:10587000324604F12401FEF768FF28B1A07940F018
:105880008000A07101203FE7A6612089C0F30800D5
:10589000C0F50077AF4200D92F462189C1F3080235
:1058A00004F1240150183A46019901F0FFF9A0795A
:1058B00040F04000A07100BF019838440190A068FA
:1058C0003844A060DBF800003844CBF80000ED1B42
:1058D000002D7FF42FAF00BFD4E90201884201D927
:1058E000A068E060A07940F02000A07100200BE7E4
:1058F00070470146612905DB7A2903DCA1F120000C
:1059000080B270470846FCE7014601F00F000A0923
:1059100002EB820200EB4200C0B270472DE9F04F6B
:1059200087B004460D46174802F054F81549087828
:10593000FFF7EAFF064613494878FFF7E5FF0746F9
:1059400010498878FFF7E0FF80460E490879FFF795
:10595000DBFF81460B494879FFF7D6FF82460949AC
:105960008879FFF7D1FF834606F5FA6006908DE847
:10597000800F05A229462046069BFCF72DFA07B0AA
:10598000BDE8F08F14030020253034752D2530320A
:10599000752D2530327520253032753A2530327517
:1059A0003A253032750000002DE9F04F87B00446EB
:1059B0000D46174802F00EF815490878FFF7A4FFC6
:1059C000064613494878FFF79FFF07461049887835
:1059D000FFF79AFF80460E490879FFF795FF814649
:1059E0000B494879FFF790FF824609498879FFF70C
:1059F0008BFF834606F5FA6006908DE8800F05A2BE
:105A000029462046069BFCF7E7F907B0BDE8F08F72
:105A10001403002025303475253032752530327559
:105A20002530327525303275253032750000000082
:105A300000B5A9B0002010490860A0224FF4104121
:105A400001A803F0FBFF0A220CA11048FFF74CFC51
:105A50000FA000F039FA002201A908A000F004FA12
:105A60000EA000F031FA13A000F02EFA0748FFF75D
:105A700045FA29B000BD0000CC000020303A2F6C60
:105A80006F672F6C6F67302E74787400600A002087
:105A900073797374656D20696E69740073797374BA
:105AA000656D2068617264776172652074657374D6
:105AB0000000000074657374206572726F723A2082
:105AC00074662063617264206E6F7420666F756EF9
:105AD0006400000000B591B0084809A240210368A5
